S0150000436F636B7461696C6D697865722E73726563C0
S11300000C946E010C9496010C9496010C94960138
S11300100C9496010C9496010C9496010C94960100
S11300200C9496010C9496010C9496010C949601F0
S11300300C9496010C9496010C9496010C949601E0
S11300400C9496010C9496010C9496010C949601D0
S11300500C9496010C9496010C9496010C949601C0
S11300600C9496010C9496010C9496010C949601B0
S11300700C94931A0C9496010C9496010C9496018A
S11300800C9496010C9496010C9496010C94960190
S11300900C9496010C9496010C9496010C94960180
S11300A00C9496010C9496010C9496010C94960170
S11300B00C9496010C9496010C9496010C94960160
S11300C00C9496010C9496010C9496010C94960150
S11300D00C9496010C9496010C9496010C94960140
S11300E00C9496010C9496010C9496010C94960130
S11300F00C9496010C9496010C9496010C94960120
S11301000C9496010C9496010C94120D0C94670DAA
S11301100C9496010C9496010C9496010C949601FF
S11301200C9496010C9496010C9496010C949601EF
S11301300C9496010C9496010C9496010C949601DF
S11301400C9496010C9496010C9496010C949601CF
S11301500C9496010C9496010C9496010C949601BF
S11301600C9496010C9496010C9496010C949601AF
S11301700C9496010C9496013B0D3F0D570D430DC5
S1130180470D4B0D570D570D4F0D530D890D8D0D0B
S1130190A90D910D950D990DA90DA90D9D0DA10DFB
S11301A0A50D740F7F0F8A0F950FA00FAB0FB60F1D
S11301B0C10FDE0FE90FF40FFF0F0A101510201006
S11301C02B10481053105E10691074107F108A10A1
S11301D09510B210BD10C810D310DE10E910F41041
S11301E0FF101C11271132113D11481153115E11DA
S11301F069119511A111AE11BB11C811D511E211EC
S1130200EF110E121A122712341241124E125B12FF
S1130210681287129312A012AD12BA12C712D41226
S1130220E11200130C1319132613331340134D1347
S11302305A137913851392139F13AC13B913C6136E
S1130240D3132A1A111A2D1A141A171A1A1A1D1A44
S1130250201A231A261A07634236B79BD8A71A39DD
S1130260685618AEBAAB558C1D3CB7CC5763BD6D00
S1130270EDFD753EF6177231BF000000803F0800A7
S11302800000BE922449123EABAAAA2ABECDCCCC11
S11302904C3E00000080BEABAAAAAA3E00000000AB
S11302A0BF000000803F0000000000084178D3BB7D
S11302B04387D1133D190E3CC3BD4282AD2B3E682A
S11302C0EC8276BED98FE1A93E4C80EFFFBE01C41B
S11302D0FF7F3F0000000000B90D2E0F11241FBE48
S11302E0CFEFCDBFDFE2DEBF11E2A0E0B0E2E6EB8C
S11302F0F5E402C005900D92AA39B107D9F723E2BB
S1130300AAE9B1E201C01D92A835B207E1F711E0F4
S1130310CDE6D1E004C02197FE010E949F1FCC3698
S1130320D107C9F70E943A0C0C94CE220C94000019
S1130330E0E0F2E084E0818380E3828387E08483E9
S113034081E0808380A308950F931F93CF93DF935D
S1130350EC01062F142F0E94510F602FCE010E9432
S1130360580F612FCE010E945B0F61E0CE010E9405
S11303705E0FCE010E94610FCE010E949801DF91B1
S1130380CF911F910F910895CF93DF93EC010E94B9
S1130390520F813409F098C0CE010E94550F81118B
S11303A00EC0E0E0F2E081A1877F81A381A18F7E6E
S11303B081A381A18F7D81A381A18F7B81A3CE01A4
S11303C00E94550F813071F4E0E0F2E081A1886071
S11303D081A381A18F7E81A381A18F7D81A381A12E
S11303E08F7B81A3CE010E94550F823071F4E0E02F
S11303F0F2E081A1877F81A381A1806181A381A192
S11304008F7D81A381A18F7B81A3CE010E94550F93
S1130410833071F4E0E0F2E081A1886081A381A1DE
S1130420806181A381A18F7D81A381A18F7B81A321
S1130430CE010E94550F843071F4E0E0F2E081A116
S1130440877F81A381A18F7E81A381A1806281A303
S113045081A18F7B81A3CE010E94550F853071F459
S1130460E0E0F2E081A1886081A381A18F7E81A375
S113047081A1806281A381A18F7B81A3CE010E948F
S1130480550F863071F4E0E0F2E081A1877F81A30B
S113049081A1806181A381A1806281A381A18F7BDD
S11304A081A3CE010E94550F873071F4E0E0F2E0A1
S11304B081A1886081A381A1806181A381A18062DF
S11304C081A381A18F7B81A3E0E0F2E080A1806819
S11304D080A383A18823E9F3E0E0F2E081E083A331
S11304E080899189DF91CF91089508950E94B40A7B
S11304F008950E94AA0A84E190E20E942A0B62E015
S113050080E00E94150B82E290E20E942A0B08957B
S11305100E94AA0A61E080E00E94150B87E290E243
S11305200E942A0B62E080E00E94150B85E390E2B2
S11305300E942A0B0895CF93DF93EC010E94AA0A2C
S113054084E490E20E942A0B62E080E00E94150B92
S1130550CE010E94A6190E942A0B88E590E20E940F
S11305602A0BDF91CF9108950E94AA0A85E690E2B2
S11305700E942A0B62E080E00E94150B81E790E262
S11305800E942A0B0895CF93DF93EC0162E089E087
S11305900E94150BC436D10520F487E291E20E9433
S11305A02A0BCA30D10520F487E291E20E942A0B7B
S11305B0CE010E94A6190E942A0B8AE790E20E94AB
S11305C02A0BDF91CF91089561E080E00E94150B22
S11305D080EA90E20E942A0B089521E030E002C0F4
S11305E0220F331F6A95E2F7282381E009F480E0A3
S11305F008950F93FC01062F21E030E040E050E025
S113060060E070E080E090E00E94A51FA0812A2BAA
S113061020832181322B31832281422B4283238107
S1130620522B53832481622B64832581722B75831F
S11306302681822B86838781982B97830F91089537
S11306400F93FC01062F21E030E040E050E060E031
S113065070E080E090E00E94A51F209530954095C1
S113066050956095709580959095A0812A2320835C
S113067021813223318322814223428323815223E5
S113068053832481622364832581722375832681A5
S1130690822386838781982397830F910895EF920D
S11306A0FF920F93CF93DF93CDB7DEB76097CDBFA3
S11306B0DEBF7C0181E089831A821B821C821D8239
S11306C01E821F82188619861A861B861C861D8622
S11306D01E861F86188A29853A854B855C856D851B
S11306E07E858F859889AFE20E94CA1F11F008F0B9
S11306F069C029813A814B815C816D817E818F81C2
S11307009885D701EC912E231196EC9111973E23F5
S11307101296EC9112974E231396EC9113975E2345
S11307201496EC9114976E231596EC9115977E23ED
S11307301696FC9116971796EC918F239E23A0E0B2
S11307400E94CA1F31F460E082E892E20E944619D6
S113075005C061E082E892E20E94461929813A814B
S11307604B815C816D817E818F81988501E00E943F
S1130770A51F29833A834B835C836D837E838F8398
S1130780988729853A854B855C856D857E858F851F
S11307909889A1E00E94BE1F29873A874B875C870E
S11307A06D877E878F87988B29853A854B855C85F5
S11307B06D857E858F859889AFE20E94CA1F09F0F6
S11307C008F497CF6096CDBFDEBFDF91CF910F9134
S11307D0FF90EF900895CF93DF9300D0CDB7DEB7AD
S11307E08CE192E20E9404168DE70E949B060E940F
S11307F0880286E192E20E94870B82E192E20E94E3
S1130800390B19821A8289819A819C012F5F3F4F8B
S113081029833A8321E0892B09F420E0222359F02B
S113082089819A81880F991F880F991F86509E4D40
S11308300E94390BE8CF0E94901982E892E20E944C
S1130840A41882E892E20E943F1961E082E892E2F1
S11308500E9469191092032000000F900F90DF91FD
S1130860CF9108950F931F93CF93DF93CDB7DEB746
S1130870A297CDBFDEBF8B8F9C8F6D8F7E8F4F8FE6
S113088058A329A33AA326E0CE010D96FC01322FEA
S113089011923A95E9F726E0CE014396FC01322FF6
S11308A011923A95E9F7198E1A8E19821A821B82CF
S11308B01C821D821E829B8981E089278823C9F4BA
S11308C09C8981E089278823A1F49D8981E0892777
S11308D0882379F49E8981E08927882351F49F89AC
S11308E081E08927882329F4988D81E0892788234A
S11308F011F081E001C080E0882309F413C2898DDE
S11309009A8D21E006970CF020E02223A1F21B82AD
S11309101C821D821E82898D9A8D9E012D5E3F4F01
S1130920820F931FFC01908181E08927882309F4B9
S1130930F3C1298D3A8DC901880F991F820F931F26
S1130940880F991F865C9D4D0E94AD09898D9A8DF3
S1130950880F991F2B8D3C8D820F931FFC01808182
S1130960918121E0C3970CF020E02223A1F0098DAE
S11309701A8D898D9A8D880F991F880F991F825A15
S11309809D4D0E94C401282FCE010796800F911F10
S1130990FC01208314C0098D1A8D898D9A8D880FCE
S11309A0991F880F991F825A9D4D0E94C40122E10C
S11309B0280FCE010796800F911FFC012083298DFB
S11309C03A8DC901880F991F820F931F880F991FB1
S11309D0865C9D4D0E94B409898D9A8D9E01295F84
S11309E03F4F820F931FFC018081282F30E0898DB7
S11309F09A8D880F991F4B8D5C8D840F951FFC0178
S1130A008081918141E0821793070CF440E04423F4
S1130A1071F1898D9A8D298D3A8D220F331F4B8D5B
S1130A205C8D240F351FF90120813181622F298DBE
S1130A303A8DAE01495F5F4F240F351FF9012081C4
S1130A40462F421B9E01235F3F4F820F931FFC01E1
S1130A504083298D3A8DC901880F991F820F931FF6
S1130A60880F991F865C9D4D61E00E94BE09898DA7
S1130A709A8D9E01295F3F4F820F931FFC01808155
S1130A80282F30E0898D9A8D880F991F4B8D5C8DAE
S1130A90840F951FFC018081918141E082179307A7
S1130AA00CF040E0442369F1898D9A8D298D3A8DAB
S1130AB0AE01495F5F4F240F351FF9016081298D15
S1130AC03A8D220F331F4B8D5C8D240F351FF90196
S1130AD020813181462F421B9E01235F3F4F820FAD
S1130AE0931FFC014083298D3A8DC901880F991FFA
S1130AF0820F931F880F991F865C9D4D60E00E94B2
S1130B00BE09898D9A8D8A5F9F4DFC011081298DC4
S1130B103A8DC901880F991F820F931F880F991F5F
S1130B20865C9D4D0E94BB09982F81E0191709F03E
S1130B3080E0882359F189819A81181619060CF4EA
S1130B4049C00E94901982E892E20E94A41882E8A7
S1130B5092E20E943F1961E082E892E20E946919E0
S1130B60098D1A8D298D3A8DC901880F991F820F1D
S1130B70931F880F991F865C9D4D0E94BB09282FE7
S1130B80C8018A5F9F4DFC01208324C00E949019F4
S1130B9082E892E20E94A41882E892E20E943F193D
S1130BA061E082E892E20E946919098D1A8D298D0B
S1130BB03A8DC901880F991F820F931F880F991FBF
S1130BC0865C9D4D0E94BB09282FC8018A5F9F4DFA
S1130BD0FC01208389819A81019689839A83298DD6
S1130BE03A8DC901880F991F820F931F880F991F8F
S1130BF0865C9D4D0E94B409898D9A8D9E01235F68
S1130C003F4F820F931FFC01908181E0923008F0E6
S1130C1080E08823C1F0298D3A8DC901880F991F7E
S1130C20820F931F880F991F865C9D4D0E94AD090A
S1130C30898D9A8D9E012D5E3F4F820F931F21E077
S1130C40FC01208368CE898D9A8D9E01235F3F4FDE
S1130C50820F931FFC01908181E09F3108F080E0B6
S1130C60882371F1298D3A8D4DE0429FC001439F45
S1130C70900D11248A569D4D0E945917DC01CB0119
S1130C8011E020E030E040E751E4BC01CD010E94D6
S1130C90F61B882309F410E0112309F43CCE298DB6
S1130CA03A8D4DE0429FC001439F900D11248A5616
S1130CB09D4D40E050E060E771E40E94AA162BCEFF
S1130CC0898D9A8D9E01235F3F4F820F931FFC01F4
S1130CD08081882F90E0A0E0B0E0BC01CD010E94AB
S1130CE0A31CDC01CB0120E030E040EC5FE3BC015D
S1130CF0CD010E94FB1BDC01CB01AC01BD01298DA0
S1130D003A8DEDE0E29FC001E39F900D11248A56D5
S1130D109D4D0E94AA16FFCD898D9A8D0196898FCB
S1130D209A8FEDCD0000A296CDBFDEBFDF91CF91AB
S1130D301F910F9108950F931F93CF93DF93CDB716
S1130D40DEB76997CDBFDEBF898F26E0CE01099655
S1130D50FC01322F11923A95E9F726E0CE010F9665
S1130D60FC01322F11923A95E9F71D8A1E8A1982E5
S1130D701A829F8581E089278823C9F4988981E0B4
S1130D8089278823A1F4998981E08927882379F424
S1130D909A8981E08927882351F49B8981E08927F6
S1130DA0882329F49C8981E08927882311F081E034
S1130DB001C080E0882309F4FDC18D899E8921E06A
S1130DC006970CF020E02223A1F28D899E899E01D2
S1130DD0215F3F4F820F931FFC01908181E089279F
S1130DE0882309F484C10D891E898D899E89880F01
S1130DF0991F880F991F825A9D4D0E94C401282F64
S1130E00CE010396800F911FFC0120838D899E895A
S1130E109E012D5F3F4F820F931FFC01208181E0D3
S1130E20998D291708F080E0882319F18D899E890E
S1130E302D893E89AE014D5F5F4F240F351FF901A7
S1130E402081398D432F421B9E01275F3F4F820F24
S1130E50931FFC0140832D893E89C901880F991F86
S1130E60820F931F880F991F865C9D4D61E00E943D
S1130E70BE098D899E899E012D5F3F4F820F931F6E
S1130E80FC01208181E0998D921708F080E088238D
S1130E9019F18D899E892D893E89AE014D5F5F4F81
S1130EA0240F351FF9013081298D432F421B9E01E8
S1130EB0275F3F4F820F931FFC0140832D893E899A
S1130EC0C901880F991F820F931F880F991F865C91
S1130ED09D4D60E00E94BE098D899E898A5F9F4D69
S1130EE0FC0110812D893E89C901880F991F820F49
S1130EF0931F880F991F865C9D4D0E94BB09982FF4
S1130F0081E0191709F080E0882359F189819A81D9
S1130F10181619060CF449C00E94901982E892E24E
S1130F200E94A41882E892E20E943F1961E082E8DC
S1130F3092E20E9469190D891E892D893E89C90191
S1130F40880F991F820F931F880F991F865C9D4DF0
S1130F500E94BB09282FC8018A5F9F4DFC01208392
S1130F6024C00E94901982E892E20E94A41882E8A8
S1130F7092E20E943F1961E082E892E20E946919BC
S1130F800D891E892D893E89C901880F991F820FF9
S1130F90931F880F991F865C9D4D0E94BB09282FC3
S1130FA0C8018A5F9F4DFC01208389819A81019643
S1130FB089839A832D893E89C901880F991F820FDD
S1130FC0931F880F991F865C9D4D0E94B4098D89DB
S1130FD09E899E01275F3F4F820F931FFC019081E2
S1130FE081E0923008F080E08823C1F02D893E89A9
S1130FF0C901880F991F820F931F880F991F865C60
S11310009D4D0E94AD098D899E899E01215F3F4FB0
S1131010820F931F21E0FC012083D7CE8D899E8906
S11310209E01275F3F4F820F931FFC01908181E057
S11310309F3108F080E0882371F12D893E894DE0CD
S1131040429FC001439F900D11248A569D4D0E94DA
S11310505917DC01CB0111E020E030E040EF51E40E
S1131060BC01CD010E94F61B882309F410E0112372
S113107009F4ABCE2D893E894DE0429FC001439FC8
S1131080900D11248A569D4D40E050E060EF71E4CC
S11310900E94AA169ACE8D899E899E01275F3F4F92
S11310A0820F931FFC018081882F90E0A0E0B0E0C4
S11310B0BC01CD010E94A31CDC01CB0126E636E66F
S11310C046E150E4BC01CD010E94FB1BDC01CB01D5
S11310D0AC01BD012D893E89EDE0E29FC001E39F93
S11310E0900D11248A569D4D0E94AA166ECE8D89AC
S11310F09E8921E0059709F020E0222309F454C0D9
S11311001F8A188E8F89988D21E006970CF020E0B5
S1131110222309F449C00F89188D8F89988D880F6F
S1131120991F880F991F825A9D4D0E94C401282F30
S1131130CE010396800F911FFC0120838F89988D27
S11311409E012D5F3F4F820F931FFC018081282F4A
S113115030E0898D882F90E0A901481B590BCA0102
S113116021E002970CF020E0222359F08F89988D1A
S11311709E01215F3F4F820F931F21E0FC012083DA
S11311800DC08F89988D9E01215F3F4F820F931F61
S1131190FC0110828FEF9FEF8D8B9E8B8F89988D32
S11311A001968F8B988FAECF8D899E8901968D8BFA
S11311B09E8B03CE00006996CDBFDEBFDF91CF9139
S11311C01F910F910895CF93DF93CDB7DEB7289782
S11311D0CDBFDEBF6D837E838F83988720E030E0B0
S11311E048EC52E46D817E818F8198850E94551D63
S11311F088235CF420E030E0A9016D817E818F8139
S113120098850E94F61B181644F120E030E048EC63
S113121052E46D817E818F8198850E94551D181638
S113122044F480E090E0A0E7B3E489839A83AB833D
S1131230BC8320E030E0A9016D817E818F81988597
S11312400E94F61B18166CF180E090E0A0E7B1E470
S113125089839A83AB83BC8324C02D813E814F81D3
S1131260588560E070E088EC92E40E94FB1BDC018E
S1131270CB019C01AD0160E070E081E693E40E9443
S1131280FB1BDC01CB0120E030E040E751E4BC0172
S1131290CD010E948A1BDC01CB0189839A83AB8335
S11312A0BC8389819A81AB81BC81BC01CD010E9440
S11312B0171EDC01CB01BC01CD010E94741CDC01B2
S11312C0CB012896CDBFDEBFDF91CF9108950F9358
S11312D01F93CF93DF9300D000D0CDB7DEB78B83BD
S11312E09C8319821A8289819A8106976CF5898177
S11312F09A81880F991F2B813C818901080F191F3E
S113130089819A81880F991F2B813C81820F931FB9
S1131310FC0180819181092E000CAA0BBB0BBC013E
S1131320CD010E94A51CDC01CB01BC01CD010E94B2
S1131330E308882F90E0F8018083918389819A8162
S1131340019689839A83CFCF00002496CDBFDEBF58
S1131350DF91CF911F910F91089560E0FC0180818E
S113136091810E945F17089561E0FC018081918161
S11313700E945F170895FC01858108951F93CF9300
S1131380DF93EC01162F8C818130F1F4662371F028
S113139060E88A819B810E94170A60E28A819B81AE
S11313A00E941C0A8C81823049F513C060E28A8154
S11313B09B810E94170A60E88A819B810E941C0A13
S11313C08C818230D9F410C08C818230B9F46623C8
S11313D059F068E08A819B810E94170A62E08A8141
S11313E09B810E941C0A0AC062E08A819B810E9440
S11313F0170A68E08A819B810E941C0A1D83DF9181
S1131400CF911F910895FC016083718342835383BC
S1131410248361E00E94BE090895FC014083618336
S11314200895FC0181810895FC0180810895FC01E7
S11314302181622B61830895FC019181662314F458
S11314409F776058603410F09F7B6054603210F0D6
S11314509F7D6052603110F09F7E6051683010F0C3
S1131460977F6850643010F09B7F6450623010F0B6
S11314709D7F625061119E7F91830895E0E5F0E0C5
S1131480808182608083818181FFFDCF88ED84BF6C
S113149081E08093400008950E943E0A0895807F71
S11314A02CF492E09093E507805803C092E0909367
S11314B0E607803428F091E09093E507805403C058
S11314C091E09093E607803228F098E090938506A7
S11314D0805203C098E090938606803120F084E027
S11314E08093850603C084E08093860682E080931F
S11314F0850695ED9A95F1F7000080938606089588
S1131500CF93C82F81E0809385068C2F0E944F0AC9
S11315108C2F8295807F0E944F0A8FE691E001977D
S1131520F1F700C00000CF910895CF93C82F81E058
S1131530809386068C2F0E944F0A8C2F8295807F81
S11315400E944F0A8FE491E00197F1F700C0000078
S1131550CF91089581E00E94950A8FE79EE3019759
S1131560F1F700C0000008950F931F93CF93E1EEAD
S1131570F7E081E08083C2E0C083E1E8F6E08083A5
S1131580C08324E0208398E09083E6EEF7E0808334
S1131590C08306E816E0D8018C93CC932C939C93DB
S11315A0BFEFE6E7F1E0B150E040F040E1F700C002
S11315B0000080E30E944F0A8FE39CE90197F1F752
S11315C000C00000E5E8F6E0C08395ED9A95F1F7D8
S11315D00000D801CC938FE39FE10197F1F700C09D
S11315E00000C08395ED9A95F1F70000CC93EFE3EA
S11315F0FFE13197F1F700C0000080E20E944F0A3A
S11316008FE39CE90197F1F700C0000088E20E9493
S1131610950A8CE00E94950A86E00E94950A0E9431
S1131620AA0ACF911F910F910895623059F018F4CE
S1131630613031F00895633039F0643039F0089541
S1131640805805C0805403C0805701C080530E9455
S1131650950A0895CF93DF93EC018881882331F0B4
S113166021960E94800A89918111FBCFDF91CF914D
S11316700895CF93DF93EC018B81813029F460E8E6
S113168089819A810E941C0A8B81823029F460E44A
S113169089819A810E941C0A8B81833029F460E23B
S11316A089819A810E941C0A8B81843029F460E12B
S11316B089819A810E941C0A8B81853029F468E013
S11316C089819A810E941C0A8B81863029F464E006
S11316D089819A810E941C0A8B81873029F462E0F7
S11316E089819A810E941C0A8B81883029F461E0E7
S11316F089819A810E941C0A1882DF91CF910895F2
S1131700FC016383418352830E94390B0895CF9374
S1131710DF93EC018B81813029F460E889819A811F
S11317200E94170A8B81823029F460E489819A81AE
S11317300E94170A8B81833029F460E289819A819F
S11317400E94170A8B81843029F460E189819A818F
S11317500E94170A8B81853029F468E089819A8177
S11317600E94170A8B81863029F464E089819A816A
S11317700E94170A8B81873029F462E089819A815B
S11317800E94170A8B81883029F461E089819A814B
S11317900E94170A81E08883DF91CF910895FC01AC
S11317A0808108950E944C0A2FEF83EC99E0215028
S11317B080409040E1F700C000000E9476022FEFC5
S11317C083EC99E0215080409040E1F700C0000094
S11317D00E94CB19F894E0E0F6E082858068828765
S11317E08385806483878AE1868B878B85E0818704
S11317F0E0EAF0E0828187608283789408950F9311
S11318001F93CF93DF93CAEFD1E202E112E2CE013C
S11318100E94390B2496C017D107C9F70E9490196A
S113182082E892E20E94A41882E892E20E943F19A0
S113183061E082E892E20E946919DF91CF911F91E1
S11318400F91089524E0829FC001112486509E4D7B
S11318500E94870B0E94901982E892E20E94A418C9
S113186082E892E20E943F1961E082E892E20E94DB
S11318706919089510921B2210E0C0E0D0E0CC2436
S1131880C3946894AA24A1F80F2EF3E09F2EF02DA0
S11318900F2EF3E4EF2EF1E2FF2EF02D0F2EF0E3E6
S11318A06F2EF5E77F2EF02D0F2EF9E0BF2EF02DD1
S11318B080911B22811102C0C0921B2280911B22A5
S11318C0813051F40E94D20B0E94790282E892E2A4
S11318D00E942419A0921B2280911B22823089F439
S11318E00E94EB0390921B221092F921E092AB210B
S11318F0F092AC21C7010E94DE190E94021A1092D4
S11319001A2280911B22833009F03FC02196CE0118
S1131910B3010E948B1F892B21F4812F0E94220C7A
S11319201F5F163029F40E94FF0B10E0C0E0D0E0E6
S11319308091A821882349F10E94751B8093A921D5
S11319409093AA21FC010C9620E030E04191519142
S1131950240F351FE817F907C9F72436310579F440
S113196080E591E20E94DE1980E591E28093AB214B
S11319709093AC21C0921A221092A82104C080E650
S113198091E20E94DE190E94021A80911B22843087
S113199079F580911A228823C9F08091A921909128
S11319A0AA210E9467092AE332E24EE552E266E97F
S11319B072E28091A9219091AA210E94320410928E
S11319C01A221092A821B0921B2212C084E690E041
S11319D00E949B0224E535E885E491E021503040E3
S11319E080409040D9F700C000C00000B0921B2294
S11319F080911B22893051F480911B22893031F46B
S1131A000E94E51380911B228930D1F380911B221F
S1131A108A3009F04DCF8CE192E20E941816A09210
S1131A201B2246CF1F920F920FB60F9211242F93B1
S1131A308F939F93AF93BF93EF93FF93F894809109
S1131A400320811137C081E0809303202FEF8FE0C2
S1131A5097E2215080409040E1F700C00000E091FF
S1131A601B228E2F90E08A30910508F5FC01E45486
S1131A70FF4F0C949F1F82E080931B221BC082E0C7
S1131A8080931B2217C084E080931B2213C082E042
S1131A9080931B220FC082E080931B220BC082E044
S1131AA080931B2207C08AE080931B2203C082E03C
S1131AB080931B227894FF91EF91BF91AF919F91F6
S1131AC08F912F910F900FBE0F901F9018951F921A
S1131AD00F920FB60F9211242F938F939F93AF936E
S1131AE0BF93EF93FF93F8942FEF8FE097E2215089
S1131AF080409040E1F700C00000E0911B228E2F4F
S1131B0090E08B30910528F5FC01EA53FF4F0C94CB
S1131B109F1F82E080931B221FC082E080931B22C0
S1131B201BC082E080931B2217C082E080931B229B
S1131B3013C082E080931B220FC082E080931B229B
S1131B400BC082E080931B2207C082E080931B229B
S1131B5003C082E080931B227894FF91EF91BF91A0
S1131B60AF919F918F912F910F900FBE0F901F9067
S1131B701895CF92EF920F931F9321E046E061E412
S1131B808CEF92E20E94791121E047E061E488EF52
S1131B9092E20E94791120E043E064E484EF92E24F
S1131BA00E94791120E044E064E480EF92E20E9414
S1131BB0791120E045E064E48CEE92E20E94791110
S1131BC020E047E064E488EE92E20E94791120E08C
S1131BD046E064E484EE92E20E947911C12C0F2E57
S1131BE0F3E4EF2EF02D00E010E020E030E440E0DC
S1131BF050E0BA0186E992E20E944018CC24C394D2
S1131C0000E010E020E030E440E050E0BA0183EA74
S1131C1092E20E9440186894CC24C1F800E010E0DD
S1131C2020E030E440E050E0BA0180EB92E20E9410
S1131C3040180F2EF3E0CF2EF02D00E010E020E04E
S1131C4030E440E050E0BA018DEB92E20E9440188B
S1131C50C12C0F2EF4E4EF2EF02D00E010E020E074
S1131C6030E440E050E0BA018AEC92E20E9440186D
S1131C70CC24C39400E010E020E030E440E050E0E5
S1131C80BA0187ED92E20E94401882E892E20E9433
S1131C90801841E060E086E792E20E940D0A42E08B
S1131CA060E088E792E20E940D0A43E060E08AE780
S1131CB092E20E940D0A44E060E08CE792E20E9406
S1131CC00D0A45E060E08EE792E20E940D0A46E0CC
S1131CD060E080E892E20E940D0A40E061E48EE553
S1131CE092E20E94A40141E061E482E692E20E9451
S1131CF0A40142E061E486E692E20E94A40143E08A
S1131D0061E48AE692E20E94A40144E061E48EE682
S1131D1092E20E94A40145E061E482E792E20E941B
S1131D20A40121E040E852E266E972E28AE392E229
S1131D300E94030A22E040E852E263EA72E280E48D
S1131D4092E20E94030A21E04EE752E260EB72E263
S1131D5086E492E20E94030A22E04EE752E26DEB2F
S1131D6072E28CE492E20E94030A21E04CE752E220
S1131D706AEC72E282E592E20E94030A22E04CE7F6
S1131D8052E267ED72E288E592E20E94030A4AE7B2
S1131D9052E261E08CE192E20E94B5154AE752E218
S1131DA062E081E292E20E94B5154AE752E263E002
S1131DB086E292E20E94B5154AE752E264E08BE2C1
S1131DC092E20E94B5154AE752E265E080E392E2AE
S1131DD00E94B5154AE752E266E085E392E20E946A
S1131DE0B51548E752E268E086E192E20E94800B72
S1131DF048E752E267E082E192E20E94800B48E702
S1131E0052E261E08AEF91E20E94800B48E752E2DD
S1131E1062E08EEF91E20E94800B48E752E263E0B9
S1131E2082E092E20E94800B48E752E264E086E09E
S1131E3092E20E94800B48E752E265E08AE092E277
S1131E400E94800B48E752E266E08EE092E20E9434
S1131E50800B1F910F91EF90CF900895CF93DF9354
S1131E60CAE3D2E22597CE010E94031682E2CC3166
S1131E70D807C1F7C6E7D2E22497CE010E947502C3
S1131E8082E2CE35D807C1F7C4EED2E22D97CE0157
S1131E900E947F1882E2C639D807C1F7DF91CF913B
S1131EA008950895FC0180810895FC0181810895BD
S1131EB0FC0160830895FC0161830895FC01628341
S1131EC00895CF93DF93EC018881813409F066C0D3
S1131ED0E9818E2F90E08830910508F05DC0FC0107
S1131EE0EF52FF4F0C949F1F8A81882321F081E0D9
S1131EF08093020653C081E0809301064FC08A811B
S1131F00882321F082E08093020648C082E0809317
S1131F10010644C08A81882321F084E0809302066C
S1131F203DC084E08093010639C08A81882321F072
S1131F3088E08093020632C088E0809301062EC0B8
S1131F408A81882321F080E18093020627C080E102
S1131F508093010623C08A81882321F080E2809344
S1131F6002061CC080E28093010618C08A8188237F
S1131F7021F080E48093020611C080E4809301067E
S1131F800DC08A81882321F080E88093020606C070
S1131F9080E88093010602C00E94E40288818234B2
S1131FA009F066C0E9818E2F90E08830910508F031
S1131FB05DC0FC01E752FF4F0C949F1F8A81882368
S1131FC021F081E08093220653C081E080932106B2
S1131FD04FC08A81882321F082E08093220648C082
S1131FE082E08093210644C08A81882321F084E022
S1131FF0809322063DC084E08093210639C08A8103
S1132000882321F088E08093220632C088E0809300
S113201021062EC08A81882321F080E18093220644
S113202027C080E18093210623C08A81882321F080
S113203080E2809322061CC080E28093210618C0AF
S11320408A81882321F080E48093220611C080E4F1
S1132050809321060DC08A81882321F080E8809333
S1132060220606C080E88093210602C00E94E40292
S11320708881833409F066C0E9818E2F90E088302E
S1132080910508F05DC0FC01EF51FF4F0C949F1FB8
S11320908A81882321F081E08093420653C081E045
S11320A0809341064FC08A81882321F082E0809387
S11320B0420648C082E08093410644C08A81882356
S11320C021F084E0809342063DC084E08093410681
S11320D039C08A81882321F088E08093420632C087
S11320E088E0809341062EC08A81882321F080E114
S11320F08093420627C080E18093410623C08A81F1
S1132100882321F080E2809342061CC080E2809301
S1132110410618C08A81882321F080E48093420616
S113212011C080E4809341060DC08A81882321F088
S113213080E88093420606C080E88093410602C08E
S11321400E94E4028881843409F066C0E9818E2FFC
S113215090E08830910508F05DC0FC01E751FF4F25
S11321600C949F1F8A81882321F081E0809362066A
S113217053C081E0809361064FC08A81882321F097
S113218082E08093620648C082E08093610644C086
S11321908A81882321F084E0809362063DC084E034
S11321A08093610639C08A81882321F088E0809376
S11321B0620632C088E0809361062EC08A8188233B
S11321C021F080E18093620627C080E1809361065C
S11321D023C08A81882321F080E2809362061CC098
S11321E080E28093610618C08A81882321F080E40C
S11321F08093620611C080E4809361060DC08A81D9
S1132200882321F080E88093620606C080E88093EA
S1132210610602C00E94E4028881853409F066C028
S1132220E9818E2F90E08830910508F05DC0FC01B3
S1132230EF50FF4F0C949F1F8A81882321F081E087
S11322408093820653C081E0809381064FC08A81C7
S1132250882321F082E08093820648C082E0809344
S1132260810644C08A81882321F084E08093820619
S11322703DC084E08093810639C08A81882321F09F
S113228088E08093820632C088E0809381062EC065
S11322908A81882321F080E18093820627C080E12F
S11322A08093810623C08A81882321F080E2809371
S11322B082061CC080E28093810618C08A8188232C
S11322C021F080E48093820611C080E4809381062B
S11322D00DC08A81882321F080E88093820606C09D
S11322E080E88093810602C00E94E402DF91CF91CE
S11322F00895FC016083418322830E94610F089545
S11323001F93CF93DF93EC01162F8881813409F05A
S113231075C0E9818E2F90E08830910508F06CC07B
S1132320FC01E750FF4F0C949F1F662329F081E0C6
S1132330809305068B8362C081E0809306061B822E
S11323405DC0662331F082E08093050681E08B83D3
S113235055C082E0809306061B8250C0662331F08C
S113236084E08093050681E08B8348C084E08093F9
S113237006061B8243C0662331F088E0809305067D
S113238081E08B833BC088E0809306061B8236C0C5
S1132390662331F080E18093050681E08B832EC0B3
S11323A080E1809306061B8229C0662331F080E217
S11323B08093050681E08B8321C080E2809306062A
S11323C01B821CC0662331F080E48093050681E003
S11323D08B8314C080E4809306061B820FC066239F
S11323E031F080E88093050681E08B8307C080E8A4
S11323F0809306061B8202C00E94E4028881823414
S113240009F075C0E9818E2F90E08830910508F0BD
S11324106CC0FC01EF5FFE4F0C949F1F112329F049
S113242081E0809325068B8362C081E08093260639
S11324301B825DC0112331F082E08093250681E088
S11324408B8355C082E0809326061B8250C01123E3
S113245031F084E08093250681E08B8348C084E0DA
S1132460809326061B8243C0112331F088E08093B9
S1132470250681E08B833BC088E0809326061B827F
S113248036C0112331F080E18093250681E08B83EF
S11324902EC080E1809326061B8229C0112331F0CF
S11324A080E28093250681E08B8321C080E28093C3
S11324B026061B821CC0112331F080E4809325067C
S11324C081E08B8314C080E4809326061B820FC0B6
S11324D0112331F080E88093250681E08B8307C0C7
S11324E080E8809326061B8202C00E94E402888151
S11324F0833409F075C0E9818E2F90E0883091050E
S113250008F06CC0FC01E75FFE4F0C949F1F112381
S113251029F081E0809345068B8362C081E080933B
S113252046061B825DC0112331F082E0809345068C
S113253081E08B8355C082E0809346061B8250C0A5
S1132540112331F084E08093450681E08B8348C0F9
S113255084E0809346061B8243C0112331F088E057
S11325608093450681E08B833BC088E080934606D8
S11325701B8236C0112331F080E18093450681E04F
S11325808B832EC080E1809346061B8229C01123D1
S113259031F080E28093450681E08B8321C080E2A4
S11325A0809346061B821CC0112331F080E4809383
S11325B0450681E08B8314C080E4809346061B8229
S11325C00FC0112331F080E88093450681E08B83AE
S11325D007C080E8809346061B8202C00E94E40282
S11325E08881843409F075C0E9818E2F90E08830A9
S11325F0910508F06CC0FC01EF5EFE4F0C949F1F28
S1132600112329F081E0809365068B8362C081E009
S1132610809366061B825DC0112331F082E08093B3
S1132620650681E08B8355C082E0809366061B8239
S113263050C0112331F084E08093650681E08B83E0
S113264048C084E0809366061B8243C0112331F0A6
S113265088E08093650681E08B833BC088E08093AB
S113266066061B8236C0112331F080E18093650633
S113267081E08B832EC080E1809366061B8229C093
S1132680112331F080E28093650681E08B8321C0C1
S113269080E2809366061B821CC0112331F080E423
S11326A08093650681E08B8314C080E48093660682
S11326B01B820FC0112331F080E88093650681E00E
S11326C08B8307C080E8809366061B8202C00E9449
S11326D0E4028881853409F074C0E9818E2F90E08A
S11326E08830910508F06BC0FC01E75EFE4F0C9446
S11326F09F1F112329F081E0809385068B8361C09D
S113270081E0809386061B825CC0112331F082E055
S11327108093850681E08B8354C082E08093860693
S11327201B824FC0112331F084E08093850681E041
S11327308B8347C084E0809386061B8242C01123AA
S113274031F088E08093850681E08B833AC088E08D
S1132750809386061B8235C0112331F080E180937B
S1132760850681E08B832DC080E1809386061B82E1
S113277028C0112331F080E28093850681E08B83A9
S113278020C080E2809386061B821BC0112331F097
S113279080E48093850681E08B8313C080E480937A
S11327A086061B820EC0112331F080E880938506D3
S11327B081E08B8306C080E88093860602C00E9475
S11327C0E402DF91CF911F910895CF93DF93CDB7AA
S11327D0DEB76E97CDBFDEBF81E0898381E08C8751
S11327E01A821B820E94B402209104203091052099
S11327F080EF90E0B9010E948B1FCB01092E000CE1
S1132800AA0BBB0BBC01CD010E94A51CDC01CB01B2
S11328108D879E87AF87B88B198A1A8A1B8A1C8A70
S11328201D8A1E8A1F8A188E198E1A8E1B8E1C8E64
S113283085E090E08D8F9E8F1C821D821E821F82F8
S113284020911B2290916E2181E0291709F080E0EC
S1132850882309F419C11A821B821886198688856F
S1132860998506970CF0B5C01C821D821E821F82BA
S11328701A861B868A859B8505973CF588859985EC
S1132880880F991F880F991F825A9D4D0E94C40179
S1132890CC01A0E0B0E0BC01CD010E94A31CDC018E
S11328A0CB019C01AD016C817D818E819F810E9451
S11328B08A1BDC01CB018C839D83AE83BF838A8515
S11328C09B8501968A879B87D5CF20E030E040EA3C
S11328D050E46C817D818E819F810E94FB1BDC0111
S11328E0CB01BC01CD010E94171EDC01CB01BC0150
S11328F0CD010E946D1CDC01CB01898B9A8B8989E7
S11329009A890F978D8B9E8B8D899E89092E000C39
S1132910AA0BBB0BBC01CD010E94A51CDC01CB01A1
S11329202D853E854F855889BC01CD010E94FB1B36
S1132930DC01CB018F8B988FA98FBA8F8F89988DEB
S1132940A98DBA8DBC01CD010E94171EDC01CB01FB
S1132950BC01CD010E946D1CDC01CB018B8B9C8BD7
S113296088859985880F991F83519E4D2B893C89B1
S1132970FC012083318388859985880F991F8351B1
S11329809E4DFC018081918121E004970CF020E0B0
S1132990222349F088859985880F991F83519E4D7C
S11329A0FC011082118288859985880F991F8351B3
S11329B09E4DFC01808191819C018A819B81820FC3
S11329C0931F8A839B838885998501968887998735
S11329D046CF8A819B810E94C3021092032080917A
S11329E00420909105209C0141E08A819B81281755
S11329F0390708F440E0442321F181E08C87998170
S1132A008C85981709F41CCF86E192E20E94870B0B
S1132A1082E192E20E94390B0E94901982E892E2CC
S1132A200E94A41882E892E20E943F1961E082E8C1
S1132A3092E20E94691986E192E20E94CF0B898397
S1132A40FFCE1C8699818C85981709F4F9CE86E10E
S1132A5092E20E94390B82E192E20E94870B0E946B
S1132A60901982E892E20E94A41882E892E20E94FD
S1132A703F1961E082E892E20E94691986E192E2DC
S1132A800E94CF0B8983DCCE20911B229091702170
S1132A9081E0291709F480E08823D1F08091042093
S1132AA0909105209C0141E08A819B812817390778
S1132AB008F440E0442329F080916D2180931B2287
S1132AC007C081E08093F92180916F2180931B22BC
S1132AD000006E96CDBFDEBFDF91CF910895CF93F6
S1132AE0DF93EC018C81813029F460E88A819B8139
S1132AF00E941C0A8C81823029F460E48A819B81C3
S1132B000E941C0A8C81833029F460E28A819B81B3
S1132B100E941C0A8C81843029F460E18A819B81A3
S1132B200E941C0A8C81853029F468E08A819B818B
S1132B300E941C0A8C81863029F464E08A819B817E
S1132B400E941C0A8C81873029F462E08A819B816F
S1132B500E941C0A8C81883029F461E08A819B815F
S1132B600E941C0ADF91CF910895FC016083428387
S1132B70538364830E946F150895CF93DF93EC0110
S1132B808C81813029F460E88A819B810E94170A34
S1132B908C81823029F460E48A819B810E94170A27
S1132BA08C81833029F460E28A819B810E94170A18
S1132BB08C81843029F460E18A819B810E94170A08
S1132BC08C81853029F468E08A819B810E94170AF0
S1132BD08C81863029F464E08A819B810E94170AE3
S1132BE08C81873029F462E08A819B810E94170AD4
S1132BF08C81883029F461E08A819B810E94170AC4
S1132C00DF91CF91089508950F931F93CF93DF938E
S1132C10EC018C01025E1F4FCE010E946F152596B8
S1132C20C017D107C9F7DF91CF911F910F91089574
S1132C308F929F92AF92BF92CF92DF92EF92FF92C8
S1132C400F931F93CF93DF938C010F2EFAEFAF2EC8
S1132C50F1E2BF2EF02D6501C0E0D0E00F2EF2E1CD
S1132C60EF2EF2E2FF2EF02DFE01EE0FFF1FE351D7
S1132C70FE4D80819181181619060CF054C0802EE7
S1132C80912EC8010E94BD15C6010E94870B0E94A7
S1132C90901982E892E20E94A41882E892E20E94CB
S1132CA03F1961E082E892E20E946919FE01EE0F89
S1132CB0FF1FE351FE4D8081918118161906B4F46B
S1132CC080E090E0FE01EE0FFF1FE351FE4D2FEF79
S1132CD033E341E2215030404040E1F700C00000BE
S1132CE0019620813181821793078CF3882D992DC9
S1132CF00E946F154501C4010E94390B84E0880EBF
S1132D00911C8E149F04B9F70E94901982E892E2F4
S1132D100E94A41882E892E20E943F1961E082E8CE
S1132D2092E20E94691921960B5F1F4F24E0C20EA4
S1132D30D11CC630D10509F097CFDF91CF911F91F7
S1132D400F91FF90EF90DF90CF90BF90AF909F9046
S1132D508F900895CF92DF92EF92FF92CF93DF93FB
S1132D60EC016A017B012DEC3CEC47EC52E4C70119
S1132D70B6010E94F61B88232CF4CC82DD82EE82FD
S1132D80FF8208C080E090E0A8ECB2E48C839D83CD
S1132D90AE83BF83CE010E94520F833421F084346A
S1132DA009F456C07FC0CE010E94550F811110C096
S1132DB020E030E040EA50E46C817D818E819F8187
S1132DC00E945A1D0E94741C60932808709329085D
S1132DD0CE010E94550F813081F420E030E040EABA
S1132DE050E46C817D818E819F810E945A1D0E94D6
S1132DF0741C60932A0870932B08CE010E94550F0F
S1132E00823081F420E030E040EA50E46C817D813E
S1132E108E819F810E945A1D0E94741C60932C080D
S1132E2070932D08CE010E94550F8330D9F520E010
S1132E3030E040EA50E46C817D818E819F810E9464
S1132E405A1D0E94741C60932E0870932F082AC088
S1132E50CE010E94550F811110C020E030E040EAFD
S1132E6050E46C817D818E819F810E945A1D0E9455
S1132E70741C6093280970932909CE010E94550F90
S1132E80813081F420E030E040EA50E46C817D81BF
S1132E908E819F810E945A1D0E94741C60932A098E
S1132EA070932B09DF91CF91FF90EF90DF90CF903B
S1132EB00895FC01648175818681978108951F932B
S1132EC0CF93DF93EC01162F0E94520F833421F02D
S1132ED0843409F470C0ADC0CE010E94550F811135
S1132EE01AC0112361F0E0E0F8E081818061818300
S1132EF0CE010E94550F813009F094C013C0E0E068
S1132F00F8E081818F7E8183CE010E94550F81304C
S1132F1009F081C012C0CE010E94550F8130C1F466
S1132F20112359F0E0E0F8E0818180628183CE01D1
S1132F300E94550F823059F512C0E0E0F8E081811B
S1132F408F7D8183CE010E94550F823001F513C01D
S1132F50CE010E94550F8230D1F4112361F0E0E0DC
S1132F60F8E0818180648183CE010E94550F833013
S1132F7009F05FC014C0E0E0F8E081818F7B8183B9
S1132F80CE010E94550F833009F053C00EC0CE010C
S1132F900E94550F833009F04CC0112331F0E0E05A
S1132FA0F8E081818068818344C0E0E0F8E08181B9
S1132FB08F7781833EC0CE010E94550F811118C0C6
S1132FC0112359F0E0E0F9E0818180618183CE0131
S1132FD00E94550F813069F512C0E0E0F9E081816B
S1132FE08F7E8183CE010E94550F813011F50DC073
S1132FF0CE010E94550F8130E1F4112331F0E0E05D
S1133000F9E081818062818314C0E0E0F9E081818C
S11330108F7D81830EC0CE010E94550F823009F04E
S1133020B6CFA9CFCE010E94550F823009F0AFCFA1
S113303096CFDF91CF911F9108950E94520F833450
S113304019F0843479F0089585E080934906E0E02E
S1133050F8E087E0808383E0818384EF91E086A3B6
S113306097A3089585E080936906E0E0F9E087E09E
S1133070808383E0818384EF91E086A397A30895FE
S11330804F925F926F927F928F929F92AF92BF9274
S1133090CF92EF920F931F93CF93DF93EC012A010A
S11330A03B01480159010E94510F6E2DCE010E942F
S11330B0580F6C2DCE010E945B0FB301A201CE010B
S11330C00E94AA1688869986AA86BB8660E0CE01ED
S11330D00E945E0FCE010E94610FCE010E941D1856
S11330E0DF91CF911F910F91EF90CF90BF90AF9050
S11330F09F908F907F906F905F904F900895089568
S1133100CF93DF93EC010E94510FCE0104960E94ED
S1133110510FCE0108960E94510FCE010C960E94C9
S1133120510FCE0140960E94510F84E093E28093A8
S11331300223909303238CE090E2809300239093E6
S11331400123DF91CF9108958091042380930C2073
S11331508091052380930D208091062380930E2077
S11331608091072380930F2080910823809310205F
S1133170809109238093112080910A238093122047
S113318080910B23809313200895FF920F931F9334
S1133190CF93DF931F92CDB7DEB7F62E042F000F27
S11331A0000F000F085010E0612F8F2D0E94ED02D8
S11331B089838981813049F4612F600F80910223D2
S11331C0909103230E94F90208C0612F600F80913F
S11331D00223909103230E9420031F5F183021F7DC
S11331E00F90DF91CF911F910F91FF900895FF925F
S11331F00F931F93CF93DF9300D0CDB7DEB78C012D
S113320069837A83CE0101960E94140AF82ECE01B6
S113321001960E94110A4F2D682FC8010E94C518FB
S11332200F900F90DF91CF911F910F91FF90089510
S113323060E084EE92E20E948011089561E084EEE1
S113324092E20E948011089560E088EE92E20E946A
S1133250801160E080EF92E20E94801160E08CEEC9
S113326092E20E9480118FEB9DE50197F1F700C077
S1133270000061E08CEE92E20E948011089580913A
S11332800023909101230E944F030895611105C00A
S113329084EF92E20E94801105C061E084EF92E223
S11332A00E9480118FE39FE10197F1F700C00000B5
S11332B061E080EF92E20E9480118FEB9DE501971F
S11332C0F1F700C0000060E080EF92E20E948011FC
S11332D008951F93CF93DF93EC01162F0E941E19BC
S11332E061E088EE92E20E9480118FEB9DE50197E8
S11332F0F1F700C0000060E088EE92E20E948011C5
S1133300112321F0CE010E94181903C0CE010E949E
S11333101E19CE010E94A418DF91CF911F91089528
S1133320CF93DF93C0E0D0E0FE01EE0FFF1FEA5819
S1133330FD4D6081718182E892E20E94F718219626
S1133340C630D10589F7DF91CF9108950F931F936C
S1133350CF93DF93CDB7DEB72A97CDBFDEBF9F9360
S11333608F9384E791E29F938F938E010F5F1F4F9A
S11333701F930F930E94EA1F0F900F900F900F90CE
S11333800F900F90C8012A96CDBFDEBFDF91CF9179
S11333901F910F910895E0E4F6E090E4928380E8B1
S11333A0818388E1878BE0EBF8E097839CE0968348
S11333B0848383E0858380E383830895FC01019003
S11333C00020E9F731973E2F381B61F0DC0120E043
S11333D0E0EBF8E0918195FFFDCF8D9180832F5F25
S11333E03213F8CFE0EBF8E0818185FFFDCFE0EB0D
S11333F0F8E0818185FFFDCF089510924B23109250
S11334004A2308950E94FD191092EC21089590E03A
S1133410FC01F097EA30F105E0F4EF5DFE4F0C9407
S11334209F1F81E090E0089583E090E0089584E098
S113343090E0089585E090E0089586E090E0089596
S113344087E090E0089588E090E0089589E090E0B6
S11334500895089580E090E0089582E090E0089552
S11334606F927F928F929F92AF92BF92CF92DF9290
S1133470EF92FF920F931F93CF93DF93662E712CDD
S113348016141704F4F5C82ED92E00E010E0C0E09D
S1133490D0E0F60181916F010E94071A7C01B80106
S11334A0012E000C880B990B0E94A51C9B01AC01FA
S11334B060E070E080E291E40E94C71D4B015C0172
S11334C0B701FF0C880B990B0E94A51CA501940160
S11334D00E945A1D4B015C01BE01DD0F880B990B44
S11334E00E94A51C9B01AC01C501B4010E948A1B6A
S11334F00E946D1CEB010F5F1F4F0615170549F65F
S113350002C0C0E0D0E0CE01DF91CF911F910F91B6
S1133510FF90EF90DF90CF90BF90AF909F908F90EF
S11335207F906F9008951F920F920FB60F921124FF
S1133530EF92FF920F931F932F933F934F935F93B9
S11335406F937F938F939F93AF93BF93CF93DF93A7
S1133550EF93FF938091B008833241F08B3261F492
S11335608091AE218F5F8093AE2112C08091AD21F6
S11335708F5F8093AD210CC08A3009F489C08D30EF
S113358009F486C090914A239C3308F46FC080C02C
S11335908091AE21843009F091C08091AD218430B6
S11335A009F08CC07CC08091B321833709F47DC0BD
S11335B08091AF21803309F054C08091B0218A33C7
S11335C009F04FC0C0E0D0E00F2EF3E0EF2EF0E2A0
S11335D0FF2EF02DFE01E155FE4D80818B33B9F5B0
S11335E08E0105501109F801E155FE4D80810E94BC
S11335F0071A80939A2190939B21CE010197E0E0D2
S1133600F0E2DC01A155BE4D2C9121930197EE16F9
S1133610FF06B9F7F801E155FE4D80810E94071AB3
S1133620815080930C23082F10E063E080E090E247
S11336300E94301A9801220F331FF901E456FE4DFF
S113364080839183F901E351FE4D80839183219618
S1133650C833D10509F0BECF81E08093A8210E9430
S1133660021A1092AE211092AD2128C0E0914A2393
S1133670F0E0E35FFC4D8083E0914A23F0E0E15504
S1133680FE4D808380914A238F5F80934A2380CFAD
S113369087E791E20E94DE190E94021A79CF809195
S11336A0AF21873609F084CF7ECF8091AB219091F2
S11336B0AC210E94DE190E94021A7ACFFF91EF9189
S11336C0DF91CF91BF91AF919F918F917F916F9136
S11336D05F914F913F912F911F910F91FF90EF9028
S11336E00F900FBE0F901F901895ACE4B3E280E0EA
S11336F090E0FC01EE0FFF1FE351FE4D208131816C
S11337002D933D9301968630910599F78CE493E2CD
S113371008955058BB27AA270E94A11B0C941B1D77
S11337200E940D1D38F00E94141D20F039F49F3FB3
S113373019F426F40C940A1D0EF4E095E7FB0C949E
S1133740041DE92F0E942C1D58F3BA176207730752
S11337508407950720F079F4A6F50C944E1D0EF419
S1133760E0950B2EBA2FA02D0B01B90190010C018D
S1133770CA01A0011124FF27591B99F0593F50F4A5
S1133780503E68F11A16F040A22F232F342F4427FD
S1133790585FF3CF469537952795A795F0405395F5
S11337A0C9F77EF41F16BA0B620B730B840BBAF0C5
S11337B09150A1F0FF0FBB1F661F771F881FC2F730
S11337C00EC0BA0F621F731F841F48F48795779544
S11337D06795B795F7959E3F08F0B0CF9395880FFE
S11337E008F09927EE0F9795879508950E94E01C9D
S11337F008F481E008950E940F1C0C941B1D0E9484
S1133800141D58F00E940D1D40F029F45F3F29F06B
S11338100C94041D51110C944F1D0C940A1D0E940C
S11338202C1D68F39923B1F3552391F3951B550B84
S1133830BB27AA2762177307840738F09F5F5F4F7F
S1133840220F331F441FAA1FA9F335D00E2E3AF0BE
S1133850E0E832D091505040E695001CCAF72BD0D6
S1133860FE2F29D0660F771F881FBB1F2617370727
S11338704807AB07B0E809F0BB0B802DBF01FF2759
S113388093585F4F3AF09E3F510578F00C94041D15
S11338900C944F1D5F3FE4F3983ED4F386957795DF
S11338A06795B795F7959F5FC9F7880F911D969512
S11338B0879597F90895E1E0660F771F881FBB1F6E
S11338C0621773078407BA0720F0621B730B840B1B
S11338D0BA0BEE1F88F7E09508950E94741C689453
S11338E0B1110C944F1D08950E94341D88F09F5708
S11338F098F0B92F9927B751B0F0E1F0660F771F10
S1133900881F991F1AF0BA95C9F714C0B13091F005
S11339100E944E1DB1E008950C944E1D672F782F20
S11339208827B85F39F0B93FCCF3869577956795CA
S1133930B395D9F73EF490958095709561957F4F36
S11339408F4F9F4F0895E89409C097FB3EF49095DC
S11339508095709561957F4F8F4F9F4F9923A9F064
S1133960F92F96E9BB279395F695879577956795F3
S1133970B795F111F8CFFAF4BB0F11F460FF1BC037
S11339806F5F7F4F8F4F9F4F16C0882311F096E9CA
S113399011C0772321F09EE8872F762F05C0662378
S11339A071F096E8862F70E060E02AF09A95660F31
S11339B0771F881FDAF7880F9695879597F90895EA
S11339C0990F0008550FAA0BE0E8FEEF161617062C
S11339D0E807F907C0F012161306E407F50798F094
S11339E0621B730B840B950B39F40A2661F0232BAD
S11339F0242B252B21F408950A2609F4A140A69529
S1133A008FEF811D811D089597F99F6780E870E00D
S1133A1060E008959FEF80EC089500240A94161640
S1133A20170618060906089500240A9412161306A8
S1133A30140605060895092E0394000C11F4882336
S1133A4052F0BB0F40F4BF2B11F460FF04C06F5F52
S1133A507F4F8F4F9F4F089557FD9058440F551F28
S1133A6059F05F3F71F04795880F97FB991F61F0FC
S1133A709F3F79F087950895121613061406551F73
S1133A80F2CF4695F1DF08C0161617061806991FDF
S1133A90F1CF86957105610508940895E894BB27D4
S1133AA066277727CB0197F908950E94E01C08F454
S1133AB08FEF08950E946D1D0C941B1D0E940D1D17
S1133AC038F00E94141D20F0952311F00C94041D6D
S1133AD00C940A1D11240C944F1D0E942C1D70F38C
S1133AE0959FC1F3950F50E0551F629FF001729F9F
S1133AF0BB27F00DB11D639FAA27F00DB11DAA1FAE
S1133B00649F6627B00DA11D661F829F2227B00DFA
S1133B10A11D621F739FB00DA11D621F839FA00D85
S1133B20611D221F749F3327A00D611D231F849FD5
S1133B30600D211D822F762F6A2F11249F5750402C
S1133B409AF0F1F088234AF0EE0FFF1FBB1F661FA7
S1133B50771F881F91505040A9F79E3F510580F070
S1133B600C94041D0C944F1D5F3FE4F3983ED4F372
S1133B70869577956795B795F795E7959F5FC1F714
S1133B80FE2B880F911D9695879597F90895FA0154
S1133B90EE0FFF1F309621053105A1F16115710566
S1133BA061F48038BFE39B0749F16894903881053C
S1133BB061F08038BFEF9B0741F099234AF5FF3F3E
S1133BC0E1053105210519F1E8940894E795D90137
S1133BD0AA2329F4AB2FBE2FF85FD0F310C0FF5FE8
S1133BE070F4A695E0F7F73950F019F0FF3A38F47D
S1133BF09F779F930DD00F9007FC9058089546F03F
S1133C000C940A1D60E070E080E89FE308954FE79C
S1133C109F775F934F933F932F930E940F1F2F9192
S1133C203F914F915F910E945A1D0C94431E0E9434
S1133C30341DE8F09E37E8F09639B8F49E3848F41D
S1133C40672F782F8827985FF9CF869577956795A2
S1133C5093959539D0F3B62FB1706B0F711D811DFB
S1133C6020F487957795679593950C94751E0C941D
S1133C70901E0C944F1D29F416F00C94041D0C9402
S1133C804E1D0C940A1D0E94341DA8F39638A0F70B
S1133C9007F80F92E8942BE33AEA48EB5FE70E94B7
S1133CA0701D0F920F920F924DB75EB70F920E9444
S1133CB0571FE6E5F2E00E949E1E4F915F91EF913F
S1133CC0FF91E595EE1FFF1F49F0FE57E06844277A
S1133CD0EE0F441FFA95E1F74195550B0E94D11E52
S1133CE00F9007FE0C94C51E0895882371F4772362
S1133CF021F09850872B762F07C0662311F499275B
S1133D000DC09051862B70E060E02AF09A95660F02
S1133D10771F881FDAF7880F9695879597F9089586
S1133D209F3F31F0915020F4879577956795B7952B
S1133D30880F911D9695879597F90895DF93CF93F2
S1133D401F930F93FF92EF92DF927B018C01689493
S1133D5006C0DA2EEF010E946D1DFE01E894A591C4
S1133D602591359145915591A6F3EF010E94A11B30
S1133D70FE019701A801DA9469F7DF90EF90FF90B4
S1133D800F911F91CF91DF9108959B01AC0160E0E9
S1133D9070E080E89FE30C94FB1B0C94041D0C94CE
S1133DA0901E0E94341DD8F39923C9F3940F511D1A
S1133DB0A3F39150504094F059F0882332F0660FE9
S1133DC0771F881F91505040C1F79E3F51052CF733
S1133DD0880F911D9695879597F908955F3FACF0EC
S1133DE0983E9CF0BB27869577956795B79508F420
S1133DF0B1609395C1F7BB0F58F711F460FFE8CF9A
S1133E006F5F7F4F8F4F9F4FE3CF0C944F1D16F082
S1133E100C94901E0C940A1D68940C94041D0E942A
S1133E20341DA8F39923C1F3AEF3DF93CF931F930B
S1133E300F93FF92C92FDD2788232AF02197660F5D
S1133E40771F881FDAF720E030E040E85FEB9FE35C
S1133E50883920F0803E38F021968F770E948A1BA3
S1133E60EEE7F2E004C00E948A1BEBEAF2E00E9453
S1133E709E1E8B01BE01EC01FB2E6F5771097595D7
S1133E80771F880B990B0E94A51C28E132E741E3B8
S1133E905FE30E946D1DAF2D9801AE01FF900F915D
S1133EA01F91CF91DF910E94A11B0C941B1DFA015D
S1133EB0DC01AA0FBB1F9B01AC01BF5728F42227CA
S1133EC033274427507820C0B75190F4AB2F0024F7
S1133ED0469537952795011CA395D2F3002071F0E0
S1133EE0220F331F441FB395DAF30ED00C94891BB1
S1133EF061307105A0E88A07B94630F49B01AC0132
S1133F006627772788279078309621F0208331839D
S1133F1042835383089597FB072E16F4009407D029
S1133F2077FD09D00E94D61F07FC05D03EF490957A
S1133F3081959F4F0895709561957F4F0895EE0F79
S1133F40FF1F0590F491E02D09940F93083090F031
S1133F50982F872F762F652F542F432F322F222708
S1133F600850F4CF220F331F441F551F661F771FBD
S1133F70881F991F0A95B2F70F9108950024A7FD91
S1133F8000942A0F301D401D501D601D701D801DA2
S1133F90901D08950024A7FD00942A1730054005BC
S1133FA0500560057005800590050895AA1BBB1B8C
S1133FB051E107C0AA1FBB1FA617B70710F0A61B25
S1133FC0B70B881F991F5A95A9F780959095BC0146
S1133FD0CD010895AEE0B0E0E0EFFFE10C94AB2238
S1133FE00D891E8986E08C8309831A838FEF9FE7EE
S1133FF08D839E83AE01475E5F4F6F89788DCE01BE
S113400001960E940C20EF81F885E00FF11F1082C9
S11340102E96E4E00C94C422ABE0B0E0E2E1F0E2DE
S11340200C949D226C017B018A01FC01168217828B
S1134030838181FFCCC1CE0101963C01F6019381BD
S1134040F70193FD859193FF81917F01882309F402
S1134050BAC1853239F493FD859193FF81917F0133
S1134060853229F4B60190E00E940322E7CF912C17
S1134070212C312CFFE1F315D8F08B3279F038F490
S1134080803279F08332A1F4232D20611DC08D325A
S113409061F0803369F4232D216016C0832D826082
S11340A0382EE32DE4603E2E2AC0F32DF8601DC0A7
S11340B037FC2DC020ED280F2A3040F08E32B9F4A1
S11340C036FC81C1232D2064322E19C036FE06C071
S11340D08AE0989E200D1124922E11C0EAE02E9EB3
S11340E0200D1124222EF32DF0623F2E08C08C36B1
S11340F021F4832D8068382E02C0883641F4F701FC
S113410093FD859193FF81917F018111B3CF982F06
S11341109F7D9554933028F40C5F1F4F9FE3998340
S11341200DC0833631F0833771F0833509F059C0FF
S113413021C0F801808189830E5F1F4F88248394F6
S1134140912C530113C02801F2E04F0E511CF801C9
S1134150A080B18036FE03C0692D70E002C06FEF0D
S11341607FEFC5010E94F8214C018201F32DFF77F6
S11341703F2E16C0280122E0420E511CF801A080F7
S1134180B18036FE03C0692D70E002C06FEF7FEF8F
S1134190C5010E94ED214C01F32DF0683F2E8201F0
S11341A033FC1BC0822D90E088169906B0F4B6014A
S11341B080E290E00E9403222A94F4CFF50137FCB8
S11341C0859137FE81915F01B60190E00E94032240
S11341D021102A9421E0821A91088114910471F724
S11341E0E8C0843611F0893641F5F80137FE07C07E
S11341F060817181828193810C5F1F4F08C060814F
S11342007181072E000C880B990B0E5F1F4FF32D45
S1134210FF763F2E97FF09C0909580957095619524
S11342207F4F8F4F9F4FF0683F2E2AE030E0A3016D
S11342300E943F22882E861845C0853731F4232DED
S11342402F7EB22E2AE030E025C0932D997FB92E1F
S11342508F36C1F018F4883579F0B5C0803719F07D
S1134260883721F0B0C0E92FE061BE2EB4FE0DC046
S1134270FB2DF460BF2E09C034FE0AC0292F26602E
S1134280B22E06C028E030E005C020E130E002C0D4
S113429020E132E0F801B7FE07C0608171818281BC
S11342A093810C5F1F4F06C06081718180E090E0B4
S11342B00E5F1F4FA3010E943F22882E8618FB2DFC
S11342C0FF773F2E36FE0DC0232D2E7FA22E89149C
S11342D058F434FE0BC032FC09C0832D8E7EA82E08
S11342E005C0B82CA32C03C0B82C01C0B92CA4FE63
S11342F00FC0FE01E80DF11D8081803321F49A2D59
S1134300997EA92E09C0A2FE06C0B394B39404C03A
S11343108A2D867809F0B394A3FC11C0A0FE06C0D0
S1134320B21488F4280C922C9B180EC0B21460F4BA
S1134330B60180E290E00E940322B394F7CFB21456
S113434018F42B1802C0982C212CA4FE10C0B6011E
S113435080E390E00E940322A2FE17C0A1FC03C0E8
S113436088E790E002C088E590E0B6010CC08A2D91
S1134370867859F0A1FE02C08BE201C080E2A7FC5E
S11343808DE2B60190E00E940322891438F4B6014C
S113439080E390E00E9403229A94F7CF8A94F30179
S11343A0E80DF11D8081B60190E00E940322811086
S11343B0F5CF222009F442CEB60180E290E00E94BB
S11343C003222A94F6CFF6018681978102C08FEFEB
S11343D09FEF2B96E2E10C94B622FC01059061500C
S11343E070400110D8F7809590958E0F9F1F089507
S11343F0FC016150704001900110D8F780959095B0
S11344008E0F9F1F08950F931F93CF93DF93FB018C
S1134410238121FD03C08FEF9FEF2CC022FF16C024
S113442046815781248135814217530744F4A08182
S1134430B1819D012F5F3F4F208331838C9326816F
S113444037812F5F3F4F2683378314C08B01EC01E4
S1134450FB010084F185E02D0995892BE1F6D80153
S113446016968D919C911797019616968D939C9311
S11344701797CE01DF91CF911F910F910895FA0103
S1134480AA27283051F1203181F1E8946F936E7F8F
S11344906E5F7F4F8F4F9F4FAF4FB1E03ED0B4E080
S11344A03CD0670F781F891F9A1FA11D680F791FC1
S11344B08A1F911DA11D6A0F711D811D911DA11DD2
S11344C020D009F468943F912AE0269F11243019E2
S11344D0305D3193DEF6CF010895462F4770405D7D
S11344E04193B3E00FD0C9F7F6CF462F4F70405D2C
S11344F04A3318F0495D31FD4052419302D0A9F787
S1134500EACFB4E0A6959795879577956795BA9580
S1134510C9F700976105710508959B01AC010A2E46
S113452006945795479537952795BA95C9F7620F1D
S1134530731F841F951FA01D08952F923F924F92C1
S11345405F926F927F928F929F92AF92BF92CF921F
S1134550DF92EF92FF920F931F93CF93DF93CDB728
S1134560DEB7CA1BDB0BCDBFDEBF09942A883988AE
S113457048885F846E847D848C849B84AA84B984F7
S1134580C884DF80EE80FD800C811B81AA81B98103
S1134590CE0FD11DCDBFDEBFED01089511E0CDE6F4
S11345A0D1E004C0FE010E949F1F2196CE36D107A0
S10945B0C9F7F894FFCFE7
S11345B6303030016400010101010101983A000024
S11345C60000000053797374656D20666165687236
S11345D67400686F6368005748532D5372696E6799
S11345E620303036005374617274206472756563CA
S11345F66B656E006D61782E204675656C6C6D6515
S11346066E676520766F6E006D6C6C206265616303
S11346166874656E0052657A657074757220696E89
S11346260053756D6D6520202020206D6C6C005341
S11346367461727420777572646500676564727557
S113464665636B740053746F7020777572646500CC
S11346564572722050696E204E756D004572722047
S1134666506F7274204275636873740050574D20FE
S11346767775726465006465616B697476696572E1
S1134686740044757479204379636C65203D004158
S1134696444320576572740041627765696368759F
S11346A66E670048616C7420777572646500657284
S11346B67265696368742E0052657A657074207732
S11346C6697264006175736765676562656E00503B
S11346D6756D7065206E6F200020616E676573705E
S11346E6726F6368656E0055415254205374726943
S11346F66E67002323232349444C452B2B2B2B0085
S113470623232323446174615F4F4B2B2B2B2B00F4
S11347164461746120496E76616C6964000A090417
S11347260225752E257500456E6465205A656963F4
S113473668656E206F646572204F766572666C6F6D
S10D4746772065726B616E6E7400DB
S9030000FC
