:100000000C942D010C9455010C9455010C94550140
:100010000C9455010C9455010C9455010C94550108
:100020000C9455010C9455010C9455010C945501F8
:100030000C9455010C9455010C9455010C945501E8
:100040000C9455010C9455010C9455010C945501D8
:100050000C9455010C9455010C9455010C945501C8
:100060000C9455010C9455010C9455010C945501B8
:100070000C94E7190C9455010C9455010C945501FE
:100080000C9455010C9455010C9455010C94550198
:100090000C9455010C9455010C9455010C94550188
:1000A0000C9455010C9455010C9455010C94550178
:1000B0000C9455010C9455010C9455010C94550168
:1000C0000C9455010C9455010C9455010C94550158
:1000D0000C9455010C9455010C9455010C94550148
:1000E0000C9455010C9455010C9455010C94550138
:1000F0000C9455010C9455010C9455010C94550128
:100100000C9455010C9455010C94DC0C0C943D0D91
:100110000C9455010C9455010C9455010C94550107
:100120000C9455010C9455010C9455010C945501F7
:100130000C9455010C9455010C9455010C945501E7
:100140000C9455010C9455010C9455010C945501D7
:100150000C9455010C9455010C9455010C945501C7
:100160000C9455010C9455010C9455010C945501B7
:100170000C9455010C9455010C0D100D280D140D07
:10018000180D1C0D280D280D200D240D660D6A0D6F
:10019000860D6E0D720D760D860D860D7A0D7E0D17
:1001A000820D560F610F6C0F770F820F8D0F980F16
:1001B000A30FC00FCB0FD60FE10FEC0FF70F0210FC
:1001C0000D102A10351040104B10561061106C1095
:1001D000771094109F10AA10B510C010CB10D61035
:1001E000E110FE10091114111F112A1135114011CF
:1001F0004B117711831190119D11AA11B711C411E0
:10020000D111F011FC1109121612231230123D12F5
:100210004A126912751282128F129C12A912B6121A
:10022000C312E212EE12FB120813151322132F133E
:100230003C135B136713741381138E139B13A81362
:10024000B513C71A741A771A7D1A851A8D1A971A58
:10025000A11AAD1AB71A9B0D100F11241FBECFEFB4
:10026000CDBFDFE2DEBF11E2A0E0B0E2E2EFF1E4F9
:1002700002C005900D92A03AB107D9F723E2A0EA97
:10028000B1E201C01D92AC34B207E1F711E0CCE25B
:10029000D1E004C02197FE010E94BD1DCB32D107E1
:1002A000C9F70E94270C0C94EC200C940000E0E0AD
:1002B000F2E084E0818380E3828387E0848381E0CD
:1002C000808380A308950F931F93CF93DF93EC0156
:1002D000062F142F0E94330F602FCE010E943A0F79
:1002E000612FCE010E943D0F61E0CE010E94400FC0
:1002F000CE010E94430FCE010E945701DF91CF91A2
:100300001F910F910895CF93DF93EC010E94340F5A
:10031000813409F098C0CE010E94370F81110EC0C0
:10032000E0E0F2E081A1877F81A381A18F7E81A39C
:1003300081A18F7D81A381A18F7B81A3CE010E94AA
:10034000370F813071F4E0E0F2E081A1886081A391
:1003500081A18F7E81A381A18F7D81A381A18F7BCC
:1003600081A3CE010E94370F823071F4E0E0F2E009
:1003700081A1877F81A381A1806181A381A18F7DDC
:1003800081A381A18F7B81A3CE010E94370F83308F
:1003900071F4E0E0F2E081A1886081A381A1806135
:1003A00081A381A18F7D81A381A18F7B81A3CE01B8
:1003B0000E94370F843071F4E0E0F2E081A1877F82
:1003C00081A381A18F7E81A381A1806281A381A16C
:1003D0008F7B81A3CE010E94370F853071F4E0E05E
:1003E000F2E081A1886081A381A18F7E81A381A198
:1003F000806281A381A18F7B81A3CE010E94370FF0
:10040000863071F4E0E0F2E081A1877F81A381A1D1
:10041000806181A381A1806281A381A18F7B81A35F
:10042000CE010E94370F873071F4E0E0F2E081A145
:10043000886081A381A1806181A381A1806281A361
:1004400081A18F7B81A3E0E0F2E080A1806880A39E
:1004500083A18823E9F3E0E0F2E081E083A38089CF
:100460009189DF91CF91089508950E94DC0A089543
:100470000E94D20A81E190E20E94520B62E080E089
:100480000E943D0B8FE190E20E94520B08950E9462
:10049000D20A61E080E00E943D0B84E290E20E947B
:1004A000520B62E080E00E943D0B82E390E20E94EA
:1004B000520B0895CF93DF93EC010E94D20A87E498
:1004C00090E20E94520B62E080E00E943D0BCE0160
:1004D0000E948B190E94520B8BE590E20E94520BF6
:1004E000DF91CF9108950E94D20A88E690E20E949F
:1004F000520B62E080E00E943D0B8AE790E20E948E
:10050000520B0895CF93DF93EC0162E088E00E94E4
:100510003D0BC436D10520F483E391E20E94520BD7
:10052000CA30D10520F483E391E20E94520BCE0140
:100530000E948B190E94520B86E890E20E94520B97
:10054000DF91CF9108950E94D20A8BE890E20E9439
:10055000520B62E080E00E943D0B87E990E20E942E
:10056000520B08950E94D20A81EA90E20E94520B37
:1005700062E080E00E943D0B87E990E20E94520B0E
:10058000089561E080E00E943D0B8CEA90E20E94B9
:10059000520B089561E080E00E943D0B84E191E2FE
:1005A0000E94520B62E080E00E943D0B80E291E2EB
:1005B0000E94520B0895CF93DF93EC010E94D20A60
:1005C00061E080E00E943D0B8BE291E20E94520BC1
:1005D00062E080E00E943D0BCE010E948B190E94D8
:1005E000520B62E082E00E943D0B85E391E20E94A3
:1005F000520BDF91CF91089521E030E002C0220F2D
:10060000331F6A95E2F7282381E009F480E008951A
:100610000F93FC01062F21E030E040E050E060E065
:1006200070E080E090E00E94C31DA0812A2B20830F
:100630002181322B31832281422B42832381522B11
:1006400053832481622B64832581722B75832681D9
:10065000822B86838781982B97830F9108950F9320
:10066000FC01062F21E030E040E050E060E070E067
:1006700080E090E00E94C31D2095309540955095F4
:100680006095709580959095A0812A232083218183
:100690003223318322814223428323815223538395
:1006A00024816223648325817223758326818223BA
:1006B00086838781982397830F910895EF92FF9205
:1006C0000F93CF93DF93CDB7DEB76097CDBFDEBF7B
:1006D0007C0181E089831A821B821C821D821E821A
:1006E0001F82188619861A861B861C861D861E8602
:1006F0001F86188A29853A854B855C856D857E85A0
:100700008F859889AFE20E94E81D11F008F069C05A
:1007100029813A814B815C816D817E818F819885B1
:10072000D701EC912E231196EC9111973E2312964E
:10073000EC9112974E231396EC9113975E23149627
:10074000EC9114976E231596EC9115977E231696CF
:10075000FC9116971796EC918F239E23A0E00E94A0
:10076000E81D31F460E087E792E20E942B1905C092
:1007700061E087E792E20E942B1929813A814B813F
:100780005C816D817E818F81988501E00E94C31D0F
:1007900029833A834B835C836D837E838F83988721
:1007A00029853A854B855C856D857E858F85988901
:1007B000A1E00E94DC1D29873A874B875C876D8703
:1007C0007E878F87988B29853A854B855C856D85DB
:1007D0007E858F859889AFE20E94E81D09F008F4B4
:1007E00097CF6096CDBFDEBFDF91CF910F91FF9085
:1007F000EF900895CF93DF9300D0CDB7DEB781E1BE
:1008000092E20E94E6158FE00E94BB060E9447021A
:100810008BE092E20E94AF0B87E092E20E94610BB4
:1008200019821A8289819A819C012F5F3F4F298307
:100830003A8321E0892B09F420E0222359F08981B1
:100840009A81880F991F880F991F81519E4D0E9490
:10085000610BE8CF0E94751987E792E20E94891820
:1008600087E792E20E94241961E087E792E20E9402
:100870004E191092002000000F900F90DF91CF9141
:1008800008950F931F93CF93DF93CDB7DEB7A29751
:10089000CDBFDEBF8B8F9C8F6D8F7E8F4F8F58A308
:1008A00029A33AA326E0CE010D96FC01322F119226
:1008B0003A95E9F726E0CE014396FC01322F1192DA
:1008C0003A95E9F7198E1A8E19821A821B821C82B8
:1008D0001D821E829B8981E089278823C9F49C8917
:1008E00081E089278823A1F49D8981E089278823D5
:1008F00079F49E8981E08927882351F49F8981E0DA
:100900008927882329F4988D81E08927882311F08D
:1009100081E001C080E0882309F424C2898D9A8D8A
:1009200021E006970CF020E02223A1F21B821C821A
:100930001D821E82898D9A8D9E012D5E3F4F820FF2
:10094000931FFC01908181E08927882309F404C268
:10095000298D3A8DC901880F991F820F931F880F27
:10096000991F815D9D4D0E94D509098D1A8D898D34
:100970009A8D880F991F880F991F8D5A9D4D0E943F
:100980008301282FCE010796800F911FFC01208341
:10099000298D3A8DC901880F991F820F931F880FE7
:1009A000991F815D9D4D0E94DC09898D9A8D9E0164
:1009B000295F3F4F820F931FFC018081282F30E079
:1009C000898D9A8D880F991F4B8D5C8D840F951F93
:1009D000FC018081918141E0281739070CF040E04B
:1009E000442371F1898D9A8D298D3A8D220F331F01
:1009F0004B8D5C8D240F351FF90120813181622FD1
:100A0000298D3A8DAE01495F5F4F240F351FF901E3
:100A10002081462F421B9E01235F3F4F820F931F71
:100A2000FC014083298D3A8DC901880F991F820FDF
:100A3000931F880F991F815D9D4D61E00E94E6091B
:100A4000898D9A8D9E01295F3F4F820F931FFC0174
:100A50008081282F30E0898D9A8D880F991F4B8DCA
:100A60005C8D840F951FFC018081918141E082178C
:100A700093070CF040E0442369F1898D9A8D298D0C
:100A80003A8DAE01495F5F4F240F351FF901608138
:100A9000298D3A8D220F331F4B8D5C8D240F351F0E
:100AA000F90120813181462F421B9E01235F3F4F78
:100AB000820F931FFC014083298D3A8DC901880F55
:100AC000991F820F931F880F991F815D9D4D60E0D4
:100AD0000E94E609898D9A8D8D5F9F4DFC011081E2
:100AE000298D3A8DC901880F991F820F931F880F96
:100AF000991F815D9D4D0E94E309982F81E0191790
:100B000009F080E0882359F189819A811816190625
:100B10000CF449C00E94751987E792E20E94891877
:100B200087E792E20E94241961E087E792E20E943F
:100B30004E19098D1A8D298D3A8DC901880F991F7B
:100B4000820F931F880F991F815D9D4D0E94E309BD
:100B5000282FC8018D5F9F4DFC01208324C00E9477
:100B6000751987E792E20E94891887E792E20E944E
:100B7000241961E087E792E20E944E19098D1A8DCF
:100B8000298D3A8DC901880F991F820F931F880FF5
:100B9000991F815D9D4D0E94E309282FC8018D5F3B
:100BA0009F4DFC01208389819A81019689839A83D4
:100BB000298D3A8DC901880F991F820F931F880FC5
:100BC000991F815D9D4D0E94DC09898D9A8D9E0142
:100BD000235F3F4F820F931FFC01908181E0903192
:100BE00008F080E0882309F497C0898D9A8D9E01D2
:100BF000235F3F4F820F931FFC01908181E0903172
:100C000008F080E08823C1F0298D3A8DC901880F52
:100C1000991F820F931F880F991F815D9D4D0E9420
:100C2000D509898D9A8D9E012D5E3F4F820F931FAE
:100C300021E0FC0120837ECE898D9A8D9E012D5E60
:100C40003F4F820F931FFC01908181E08927882309
:100C500009F470CE20E030E040E85FE36B817C81F6
:100C60008D819E810E941F1BDC01CB018B839C83A5
:100C7000AD83BE83298D3A8D4DE0429FC001439FD5
:100C8000900D11249C0125573D4D8B819C81AD8198
:100C9000BE81AC01BD01C9010E948F16898D9A8D5C
:100CA000880F991F2B8D3C8D820F931FFC01808133
:100CB00091818C01898D9A8D880F991F880F991FBA
:100CC0008D5A9D4D0E9483019801281B390BC90143
:100CD00099231CF491958195910921E002970CF0DC
:100CE00020E0222309F4A8CF298D3A8DC901880F6D
:100CF000991F820F931F880F991F815D9D4D0E9440
:100D0000D509898D9A8D9E012D5E3F4F820F931FCD
:100D100021E0FC01208390CF898D9A8D9E01235F75
:100D20003F4F820F931FFC018081882F90E0A0E04D
:100D3000B0E0BC01CD010E94381CAB01BC01298D83
:100D40003A8DEDE0E29FC001E39F900D112485579D
:100D50009D4D0E948F16EECD898D9A8D0196898FBB
:100D60009A8FDCCD0000A296CDBFDEBFDF91CF9180
:100D70001F910F9108950F931F93CF93DF93CDB7DA
:100D8000DEB76F97CDBFDEBF8F8F26E0CE010F9607
:100D9000FC01322F11923A95E9F726E0CE014596F3
:100DA000FC01322F11923A95E9F71B8E1C8E81E0DF
:100DB00090E08B839C831D821E821F82188619827D
:100DC0001A829D8981E089278823C9F49E8981E060
:100DD00089278823A1F49F8981E08927882379F4D2
:100DE000988D81E08927882351F4998D81E08927A6
:100DF000882329F49A8D81E08927882311F081E0E6
:100E000001C080E0882309F4FDC18B8D9C8D21E019
:100E100006970CF020E02223A1F28B8D9C8D9E0181
:100E20002B5E3F4F820F931FFC01908181E0892749
:100E3000882309F484C10B8D1C8D8B8D9C8D880FAC
:100E4000991F880F991F8D5A9D4D0E948301282F4D
:100E5000CE010996800F911FFC0120838B8D9C8D04
:100E60009E01275F3F4F820F931FFC01208181E08D
:100E70009F8D291708F080E0882319F18B8D9C8DB8
:100E80002B8D3C8DAE01475F5F4F240F351FF9015D
:100E900020813F8D432F421B9E01215F3F4F820FD8
:100EA000931FFC0140832B8D3C8DC901880F991F36
:100EB000820F931F880F991F815D9D4D61E00E94F5
:100EC000E6098B8D9C8D9E01275F3F4F820F931FFC
:100ED000FC01208181E09F8D921708F080E088233B
:100EE00019F18B8D9C8D2B8D3C8DAE01475F5F4F33
:100EF000240F351FF90130812F8D432F421B9E0196
:100F0000215F3F4F820F931FFC0140832B8D3C8D4F
:100F1000C901880F991F820F931F880F991F815D48
:100F20009D4D60E00E94E6098B8D9C8D8D5F9F4DED
:100F3000FC0110812B8D3C8DC901880F991F820FF8
:100F4000931F880F991F815D9D4D0E94E309982F83
:100F500081E0191709F080E0882359F189819A818D
:100F6000181619060CF449C00E94751987E792E219
:100F70000E94891887E792E20E94241961E087E7BE
:100F800092E20E944E190B8D1C8D2B8D3C8DC90158
:100F9000880F991F820F931F880F991F815D9D4DA8
:100FA0000E94E309282FC8018D5F9F4DFC0120831B
:100FB00024C00E94751987E792E20E94891887E78A
:100FC00092E20E94241961E087E792E20E944E19A2
:100FD0000B8D1C8D2B8D3C8DC901880F991F820FA5
:100FE000931F880F991F815D9D4D0E94E309282F53
:100FF000C8018D5F9F4DFC01208389819A810196F4
:1010000089839A832B8D3C8DC901880F991F820F8C
:10101000931F880F991F815D9D4D0E94DC098B8D68
:101020009C8D9E01215F3F4F820F931FFC01908199
:1010300081E0923008F080E08823C1F02B8D3C8D58
:10104000C901880F991F820F931F880F991F815D17
:101050009D4D0E94D5098B8D9C8D9E012B5E3F4F2F
:10106000820F931F21E0FC012083D7CE8B8D9C8DB6
:101070009E01215F3F4F820F931FFC01908181E011
:10108000953108F080E0882371F12B8D3C8D4DE087
:10109000429FC001439F900D112485579D4D0E9492
:1010A0003E17DC01CB0111E020E030E040EA51E4E2
:1010B000BC01CD010E948B1B882309F410E0112391
:1010C00009F4ABCE2B8D3C8D4DE0429FC001439F78
:1010D000900D112485579D4D40E050E060EA71E489
:1010E0000E948F169ACE8B8D9C8D9E01215F3F4F63
:1010F000820F931FFC018081882F90E0A0E0B0E078
:10110000BC01CD010E94381CDC01CB0126E636E68D
:1011100046E150E4BC01CD010E94901BDC01CB01F3
:10112000AC01BD012B8D3C8DEDE0E29FC001E39F42
:10113000900D112485579D4D0E948F166ECE8B8D7C
:101140009C8D21E0059709F020E0222309F454C08A
:101150001D8E1E8E8D8D9E8D21E006970CF020E059
:10116000222309F449C00D8D1E8D8D8D9E8D880F13
:10117000991F880F991F8D5A9D4D0E948301282F1A
:10118000CE010996800F911FFC0120838D8D9E8DCD
:101190009E01275F3F4F820F931FFC018081282F04
:1011A00030E08F8D882F90E0A901481B590BCA01B0
:1011B00021E044970CF020E0222359F08D8D9E8D84
:1011C0009E012B5E3F4F820F931F21E0FC01208385
:1011D0000DC08D8D9E8D9E012B5E3F4F820F931F04
:1011E000FC0110828FEF9FEF8B8F9C8F8D8D9E8DDA
:1011F00001968D8F9E8FAECF8B8D9C8D01968B8FA0
:101200009C8F03CE00006F96CDBFDEBFDF91CF91E4
:101210001F910F910895CF93DF93CDB7DEB7289735
:10122000CDBFDEBF6D837E838F83988720E030E063
:1012300048EC52E46D817E818F8198850E94EA1C82
:1012400088235CF420E030E0A9016D817E818F81EC
:1012500098850E948B1B181644F120E030E048EC82
:1012600052E46D817E818F8198850E94EA1C181658
:1012700044F480E090E0A0E7B3E489839A83AB83F1
:10128000BC8320E030E0A9016D817E818F8198854B
:101290000E948B1B18166CF180E090E0A0E7B1E48F
:1012A00089839A83AB83BC8324C02D813E814F8187
:1012B000588560E070E088EC92E40E94901BDC01AD
:1012C000CB019C01AD0160E070E081E693E40E94F7
:1012D000901BDC01CB0120E030E040E751E4BC0191
:1012E000CD010E941F1BDC01CB0189839A83AB8354
:1012F000BC8389819A81AB81BC81BC01CD010E94F4
:101300005C1DDC01CB01BC01CD010E94091CDC018C
:10131000CB012896CDBFDEBFDF91CF9108950F930B
:101320001F93CF93DF9300D000D0CDB7DEB78B8370
:101330009C8319821A8289819A8106976CF589812A
:101340009A81880F991F2B813C818901080F191FF1
:1013500089819A81880F991F2B813C81820F931F6D
:10136000FC0180819181092E000CAA0BBB0BBC01F2
:10137000CD010E943A1CDC01CB01BC01CD010E94D1
:101380000B09882F90E0F8018083918389819A81ED
:10139000019689839A83CFCF00002496CDBFDEBF0C
:1013A000DF91CF911F910F91089560E0FC01808142
:1013B00091810E944417089561E0FC018081918130
:1013C0000E9444170895FC01858108951F93CF93CF
:1013D000DF93EC01162F8C818130F1F4662371F0DC
:1013E00060E88A819B810E943F0A60E28A819B813A
:1013F0000E94440A8C81823049F513C060E28A81E0
:101400009B810E943F0A60E88A819B810E94440A76
:101410008C818230D9F410C08C818230B9F466237B
:1014200059F068E08A819B810E943F0A62E08A81CC
:101430009B810E94440A0AC062E08A819B810E94CB
:101440003F0A68E08A819B810E94440A1D83DF91E4
:10145000CF911F910895FC01608371834283538370
:10146000248361E00E94E6090895FC0140836183C2
:101470000895FC0181810895FC0180810895FC019B
:101480002181622B61830895FC019181662314F40C
:101490009F776058603410F09F7B6054603210F08A
:1014A0009F7D6052603110F09F7E6051683010F077
:1014B000977F6850643010F09B7F6450623010F06A
:1014C0009D7F625061119E7F91830895E0E5F0E079
:1014D000808182608083818181FFFDCF88ED84BF20
:1014E00081E08093400008950E94660A0895807FFD
:1014F0002CF492E09093E507805803C092E090931B
:10150000E607803428F091E09093E507805403C00B
:1015100091E09093E607803228F098E0909385065A
:10152000805203C098E090938606803120F084E0DA
:101530008093850603C084E08093860682E08093D2
:10154000850695ED9A95F1F700008093860608953B
:10155000CF93C82F81E0809385068C2F0E94770A55
:101560008C2F8295807F0E94770A8FE691E0019709
:10157000F1F700C00000CF910895CF93C82F81E00C
:10158000809386068C2F0E94770A8C2F8295807F0D
:101590000E94770A8FE491E00197F1F700C0000004
:1015A000CF91089581E00E94BD0A8FE79EE30197E5
:1015B000F1F700C0000008950F931F93CF93E1EE61
:1015C000F7E081E08083C2E0C083E1E8F6E0808359
:1015D000C08324E0208398E09083E6EEF7E08083E8
:1015E000C08306E816E0D8018C93CC932C939C938F
:1015F000BFEFE6E7F1E0B150E040F040E1F700C0B6
:10160000000080E30E94770A8FE39CE90197F1F7DD
:1016100000C00000E5E8F6E0C08395ED9A95F1F78B
:101620000000D801CC938FE39FE10197F1F700C050
:101630000000C08395ED9A95F1F70000CC93EFE39D
:10164000FFE13197F1F700C0000080E20E94770AC5
:101650008FE39CE90197F1F700C0000088E20E9447
:10166000BD0A8CE00E94BD0A86E00E94BD0A0E946D
:10167000D20ACF911F910F910895623059F018F45A
:10168000613031F00895633039F0643039F00895F5
:10169000805805C0805403C0805701C080530E9409
:1016A000BD0A0895CF93DF93EC018881882331F040
:1016B00021960E94A80A89918111FBCFDF91CF91D9
:1016C0000895CF93DF93EC018B81813029F460E89A
:1016D00089819A810E94440A8B81823029F460E4D6
:1016E00089819A810E94440A8B81833029F460E2C7
:1016F00089819A810E94440A8B81843029F460E1B7
:1017000089819A810E94440A8B81853029F468E09E
:1017100089819A810E94440A8B81863029F464E091
:1017200089819A810E94440A8B81873029F462E082
:1017300089819A810E94440A8B81883029F461E072
:1017400089819A810E94440A1882DF91CF9108957D
:10175000FC016383418352830E94610B0895CF9300
:10176000DF93EC018B81813029F460E889819A81D3
:101770000E943F0A8B81823029F460E489819A813A
:101780000E943F0A8B81833029F460E289819A812B
:101790000E943F0A8B81843029F460E189819A811B
:1017A0000E943F0A8B81853029F468E089819A8103
:1017B0000E943F0A8B81863029F464E089819A81F6
:1017C0000E943F0A8B81873029F462E089819A81E7
:1017D0000E943F0A8B81883029F461E089819A81D7
:1017E0000E943F0A81E08883DF91CF910895FC0138
:1017F000808108950E94740A2FEF83EC99E02150B4
:1018000080409040E1F700C000000E9435022FEFB9
:1018100083EC99E0215080409040E1F700C0000047
:101820000E94B019F894E0E0F6E082858068828733
:101830008385806483878AE1868B878B85E08187B7
:10184000E0EAF0E0828187608283789408951092C4
:10185000102204EA11E2FF24F3946894DD24D1F805
:101860000F2EF3E0CF2EF02DC7E5D1E20F2EF9E0D9
:10187000EF2EF02D80911022811102C0F0921022E3
:1018800080911022813051F40E94FA0B0E9438029C
:1018900087E792E20E940919D092102280911022CB
:1018A000823089F40E94FA03C09210221092EE2135
:1018B000C093A221D093A321CE010E94C3190E94FC
:1018C000E21910920F2280911022833049F5809105
:1018D000E121813029F5F8018481803309F5868181
:1018E0008133F1F45EC041915191240F351FE81707
:1018F000F907C9F72436310569F484E691E20E94BC
:10190000C31984E691E28093A2219093A321F092DF
:101910000F2204C084E791E20E94C3190E94E219D9
:1019200080911022843009F580910F228823B9F02C
:101930008091A0219091A1210E948F092FE232E293
:1019400043E552E26BE872E28091A0219091A121DF
:101950000E94410410920F22E092102206C084E6F9
:1019600090E00E945A02E092102280911022893069
:1019700051F480911022893031F40E94C713809174
:1019800010228930D1F3809110228A3009F072CF71
:101990000E94CA0281E192E20E94FA15D0921022BE
:1019A00069CF0E94DE1A8093A0219093A121FC01AF
:1019B0000C9620E030E097CF1F920F920FB60F9257
:1019C00011242F933F934F935F936F937F938F9344
:1019D0009F93AF93BF93EF93FF93F8948091002070
:1019E000811139C081E0809300200E94A3022FEF73
:1019F0008FE19EE4215080409040E1F700C000005C
:101A0000E09110228E2F90E08A30910508F5FC01BC
:101A1000E454FF4F0C94BD1D82E0809310221BC044
:101A200082E08093102217C084E08093102213C0BC
:101A300082E0809310220FC082E0809310220BC0BE
:101A400082E08093102207C08AE08093102203C0B6
:101A500082E0809310227894FF91EF91BF91AF9133
:101A60009F918F917F916F915F914F913F912F91B6
:101A70000F900FBE0F901F9018951F920F920FB6E8
:101A80000F9211242F933F934F935F936F937F9304
:101A90008F939F93AF93BF93EF93FF93F8940E941C
:101AA000B2022FEF8FE097E2215080409040E1F7A3
:101AB00000C00000E09110228E2F90E08B30910545
:101AC00028F5FC01EA53FF4F0C94BD1D82E0809382
:101AD00010221FC082E0809310221BC082E08093FE
:101AE000102217C082E08093102213C082E08093FE
:101AF00010220FC082E0809310220BC082E08093FE
:101B0000102207C082E08093102203C082E08093FD
:101B100010227894FF91EF91BF91AF919F918F9197
:101B20007F916F915F914F913F912F910F900FBED9
:101B30000F901F901895CF92EF920F931F9321E073
:101B400046E061E481EF92E20E945B1121E047E010
:101B500061E48DEE92E20E945B1120E043E064E4D8
:101B600089EE92E20E945B1120E044E064E485EE9D
:101B700092E20E945B1120E045E064E481EE92E293
:101B80000E945B1120E047E064E48DED92E20E9448
:101B90005B1120E046E064E489ED92E20E945B1173
:101BA000C12C0F2EF3E4EF2EF02D00E010E020E02A
:101BB00030E440E050E0BA018BE892E20E94251840
:101BC000CC24C39400E010E020E030E440E050E09A
:101BD000BA0188E992E20E9425186894CC24C1F8E1
:101BE00000E010E020E030E440E050E0BA0185EA97
:101BF00092E20E9425180F2EF3E0CF2EF02D00E088
:101C000010E020E030E440E050E0BA0182EB92E2E4
:101C10000E942518C12C0F2EF4E4EF2EF02D00E0C9
:101C200010E020E030E440E050E0BA018FEB92E2B7
:101C30000E942518CC24C39400E010E020E030E49A
:101C400040E050E0BA018CEC92E20E94251887E750
:101C500092E20E94651841E060E08BE692E20E9409
:101C6000350A42E060E08DE692E20E94350A43E0E8
:101C700060E08FE692E20E94350A44E060E081E78E
:101C800092E20E94350A45E060E083E792E20E941A
:101C9000350A46E060E085E792E20E94350A40E0BE
:101CA00061E483E592E20E94630141E061E487E53B
:101CB00092E20E94630142E061E48BE592E20E94BD
:101CC000630143E061E48FE592E20E94630144E036
:101CD00061E483E692E20E94630145E061E487E605
:101CE00092E20E94630121E045E752E26BE872E272
:101CF0008FE292E20E942B0A22E045E752E268E975
:101D000072E285E392E20E942B0A21E043E752E26D
:101D100065EA72E28BE392E20E942B0A22E043E73B
:101D200052E262EB72E281E492E20E942B0A21E02D
:101D300041E752E26FEB72E287E492E20E942B0AE3
:101D400022E041E752E26CEC72E28DE492E20E9402
:101D50002B0A4FE652E261E081E192E20E94971580
:101D60004FE652E262E086E192E20E9497154FE66A
:101D700052E263E08BE192E20E9497154FE652E255
:101D800064E080E292E20E9497154FE652E265E03D
:101D900085E292E20E9497154FE652E266E08AE2FF
:101DA00092E20E9497154DE652E268E08BE092E2E3
:101DB0000E94A80B4DE652E267E087E092E20E94A3
:101DC000A80B4DE652E261E08FEE91E20E94A80B73
:101DD0004DE652E262E083EF91E20E94A80B4DE6ED
:101DE00052E263E087EF91E20E94A80B4DE652E2D7
:101DF00064E08BEF91E20E94A80B4DE652E265E0B1
:101E00008FEF91E20E94A80B4DE652E266E083E07C
:101E100092E20E94A80B1F910F91EF90CF9008952E
:101E2000CF93DF93CFE2D2E22597CE010E94E51552
:101E300082E2C131D807C1F7CBE6D2E22497CE01C6
:101E40000E94340282E2C335D807C1F7C9EDD2E25D
:101E50002D97CE010E94641882E2CB38D807C1F7D3
:101E6000DF91CF9108950895FC0180810895FC01D0
:101E700081810895FC0160830895FC0161830895C8
:101E8000FC0162830895CF93DF93EC018881813454
:101E900009F066C0E9818E2F90E08830910508F046
:101EA0005DC0FC01EF52FF4F0C94BD1D8A81882359
:101EB00021F081E08093020653C081E08093010607
:101EC0004FC08A81882321F082E08093020648C0B7
:101ED00082E08093010644C08A81882321F084E057
:101EE000809302063DC084E08093010639C08A8158
:101EF000882321F088E08093020632C088E0809336
:101F000001062EC08A81882321F080E18093020699
:101F100027C080E18093010623C08A81882321F0B5
:101F200080E2809302061CC080E28093010618C004
:101F30008A81882321F080E48093020611C080E426
:101F4000809301060DC08A81882321F080E8809368
:101F5000020606C080E88093010602C00E94C1020A
:101F60008881823409F066C0E9818E2F90E0883044
:101F7000910508F05DC0FC01E752FF4F0C94BD1DB8
:101F80008A81882321F081E08093220653C081E07A
:101F9000809321064FC08A81882321F082E08093BC
:101FA000220648C082E08093210644C08A818823AB
:101FB00021F084E0809322063DC084E080932106D6
:101FC00039C08A81882321F088E08093220632C0BC
:101FD00088E0809321062EC08A81882321F080E149
:101FE0008093220627C080E18093210623C08A8146
:101FF000882321F080E2809322061CC080E2809337
:10200000210618C08A81882321F080E4809322066B
:1020100011C080E4809321060DC08A81882321F0BD
:1020200080E88093220606C080E88093210602C0E3
:102030000E94C1028881833409F066C0E9818E2F35
:1020400090E08830910508F05DC0FC01EF51FF4F32
:102050000C94BD1D8A81882321F081E08093420683
:1020600053C081E0809341064FC08A81882321F0CC
:1020700082E08093420648C082E08093410644C0DB
:102080008A81882321F084E0809342063DC084E069
:102090008093410639C08A81882321F088E08093AB
:1020A000420632C088E0809341062EC08A81882390
:1020B00021F080E18093420627C080E180934106B1
:1020C00023C08A81882321F080E2809342061CC0CD
:1020D00080E28093410618C08A81882321F080E441
:1020E0008093420611C080E4809341060DC08A812E
:1020F000882321F080E88093420606C080E8809320
:10210000410602C00E94C1028881843409F066C081
:10211000E9818E2F90E08830910508F05DC0FC01C8
:10212000E751FF4F0C94BD1D8A81882321F081E087
:102130008093620653C081E0809361064FC08A811C
:10214000882321F082E08093620648C082E0809379
:10215000610644C08A81882321F084E0809362066E
:102160003DC084E08093610639C08A81882321F0D4
:1021700088E08093620632C088E0809361062EC0BA
:102180008A81882321F080E18093620627C080E164
:102190008093610623C08A81882321F080E28093A6
:1021A00062061CC080E28093610618C08A81882381
:1021B00021F080E48093620611C080E48093610680
:1021C0000DC08A81882321F080E88093620606C0D2
:1021D00080E88093610602C00E94C1028881853434
:1021E00009F066C0E9818E2F90E08830910508F0F3
:1021F0005DC0FC01EF50FF4F0C94BD1D8A81882308
:1022000021F081E08093820653C081E080938106B3
:102210004FC08A81882321F082E08093820648C0E3
:1022200082E08093810644C08A81882321F084E083
:10223000809382063DC084E08093810639C08A8104
:10224000882321F088E08093820632C088E0809362
:1022500081062EC08A81882321F080E18093820646
:1022600027C080E18093810623C08A81882321F0E2
:1022700080E2809382061CC080E28093810618C0B1
:102280008A81882321F080E48093820611C080E453
:10229000809381060DC08A81882321F080E8809395
:1022A000820606C080E88093810602C00E94C102B7
:1022B000DF91CF910895FC016083418322830E94C6
:1022C000430F08951F93CF93DF93EC01162F88815E
:1022D000813409F075C0E9818E2F90E08830910536
:1022E00008F06CC0FC01E750FF4F0C94BD1D662345
:1022F00029F081E0809305068B8362C081E08093A2
:1023000006061B825DC0662331F082E080930506DD
:1023100081E08B8355C082E0809306061B8250C00B
:10232000662331F084E08093050681E08B8348C00A
:1023300084E0809306061B8243C0662331F088E068
:102340008093050681E08B833BC088E0809306067E
:102350001B8236C0662331F080E18093050681E060
:102360008B832EC080E1809306061B8229C06623E2
:1023700031F080E28093050681E08B8321C080E20A
:10238000809306061B821CC0662331F080E4809394
:10239000050681E08B8314C080E4809306061B82CF
:1023A0000FC0662331F080E88093050681E08B83BF
:1023B00007C080E8809306061B8202C00E94C1020B
:1023C0008881823409F075C0E9818E2F90E08830D1
:1023D000910508F06CC0FC01EF5FFE4F0C94BD1D31
:1023E000112329F081E0809325068B8362C081E070
:1023F000809326061B825DC0112331F082E080931A
:10240000250681E08B8355C082E0809326061B82DF
:1024100050C0112331F084E08093250681E08B8346
:1024200048C084E0809326061B8243C0112331F00C
:1024300088E08093250681E08B833BC088E0809311
:1024400026061B8236C0112331F080E180932506D9
:1024500081E08B832EC080E1809326061B8229C0F9
:10246000112331F080E28093250681E08B8321C027
:1024700080E2809326061B821CC0112331F080E489
:102480008093250681E08B8314C080E48093260628
:102490001B820FC0112331F080E88093250681E074
:1024A0008B8307C080E8809326061B8202C00E94AF
:1024B000C1028881833409F075C0E9818E2F90E0D4
:1024C0008830910508F06CC0FC01E75FFE4F0C946A
:1024D000BD1D112329F081E0809345068B8362C0E6
:1024E00081E0809346061B825DC0112331F082E0BB
:1024F0008093450681E08B8355C082E08093460639
:102500001B8250C0112331F084E08093450681E0A6
:102510008B8348C084E0809346061B8243C011230E
:1025200031F088E08093450681E08B833BC088E0F2
:10253000809346061B8236C0112331F080E18093E0
:10254000450681E08B832EC080E1809346061B8286
:1025500029C0112331F080E28093450681E08B830E
:1025600021C080E2809346061B821CC0112331F0FB
:1025700080E48093450681E08B8314C080E48093DF
:1025800046061B820FC0112331F080E88093450678
:1025900081E08B8307C080E8809346061B8202C0DF
:1025A0000E94C1028881843409F075C0E9818E2FB0
:1025B00090E08830910508F06CC0FC01EF5EFE4FA2
:1025C0000C94BD1D112329F081E0809365068B8357
:1025D00062C081E0809366061B825DC0112331F0EA
:1025E00082E08093650681E08B8355C082E0809312
:1025F00066061B8250C0112331F084E0809365068B
:1026000081E08B8348C084E0809366061B8243C0D0
:10261000112331F088E08093650681E08B833BC015
:1026200088E0809366061B8236C0112331F080E17A
:102630008093650681E08B832EC080E180936606DF
:102640001B8229C0112331F080E28093650681E06E
:102650008B8321C080E2809366061B821CC01123FD
:1026600031F080E48093650681E08B8314C080E4C0
:10267000809366061B820FC0112331F080E880939F
:10268000650681E08B8307C080E8809366061B8225
:1026900002C00E94C1028881853409F074C0E981BA
:1026A0008E2F90E08830910508F06BC0FC01E75E4A
:1026B000FE4F0C94BD1D112329F081E08093850607
:1026C0008B8361C081E0809386061B825CC01123EE
:1026D00031F082E08093850681E08B8354C082E0F4
:1026E000809386061B824FC0112331F084E08093D3
:1026F000850681E08B8347C084E0809386061B8239
:1027000042C0112331F088E08093850681E08B83FD
:102710003AC088E0809386061B8235C0112331F0D1
:1027200080E18093850681E08B832DC080E18093DA
:1027300086061B8228C0112331F080E28093850633
:1027400081E08B8320C080E2809386061B821BC0C1
:10275000112331F080E48093850681E08B8313C0E0
:1027600080E4809386061B820EC0112331F080E83E
:102770008093850681E08B8306C080E8809386067F
:1027800002C00E94C102DF91CF911F910895CF93A3
:10279000DF93CDB7DEB76E97CDBFDEBF81E0898313
:1027A00081E08C871A821B820E9473022091012093
:1027B0003091022080EF90E0B9010E94A91DCB0169
:1027C000092E000CAA0BBB0BBC01CD010E943A1CC8
:1027D000DC01CB018D879E87AF87B88B198A1A8A57
:1027E0001B8A1C8A1D8A1E8A1F8A188E198E1A8EB1
:1027F0001B8E1C8E85E090E08D8F9E8F1C821D822B
:102800001E821F82209110229091822181E029173F
:1028100009F080E0882309F419C11A821B82188606
:1028200019868885998506970CF0B5C01C821D8293
:102830001E821F821A861B868A859B8505973CF51A
:1028400088859985880F991F880F991F8D5A9D4DEE
:102850000E948301CC01A0E0B0E0BC01CD010E9448
:10286000381CDC01CB019C01AD016C817D818E8126
:102870009F810E941F1BDC01CB018C839D83AE8353
:10288000BF838A859B8501968A879B87D5CF20E069
:1028900030E040EA50E46C817D818E819F810E940E
:1028A000901BDC01CB01BC01CD010E945C1DDC0151
:1028B000CB01BC01CD010E94021CDC01CB01898B44
:1028C0009A8B89899A890F978D8B9E8B8D899E898A
:1028D000092E000CAA0BBB0BBC01CD010E943A1CB7
:1028E000DC01CB012D853E854F855889BC01CD018A
:1028F0000E94901BDC01CB018F8B988FA98FBA8F20
:102900008F89988DA98DBA8DBC01CD010E945C1D67
:10291000DC01CB01BC01CD010E94021CDC01CB011A
:102920008B8B9C8B88859985880F991F8E519E4D26
:102930002B893C89FC012083318388859985880F08
:10294000991F8E519E4DFC018081918121E0049759
:102950000CF020E0222349F088859985880F991F83
:102960008E519E4DFC011082118288859985880FB9
:10297000991F8E519E4DFC01808191819C018A811D
:102980009B81820F931F8A839B83888599850196FB
:102990008887998746CF8A819B810E948202109204
:1029A000002080910120909102209C0141E08A81C9
:1029B0009B812817390708F440E0442321F181E086
:1029C0008C8799818C85981709F41CCF8BE092E253
:1029D0000E94AF0B87E092E20E94610B0E94751982
:1029E00087E792E20E94891887E792E20E94241901
:1029F00061E087E792E20E944E198BE092E20E942A
:102A0000F70B8983FFCE1C8699818C85981709F472
:102A1000F9CE8BE092E20E94610B87E092E20E9485
:102A2000AF0B0E94751987E792E20E94891887E729
:102A300092E20E94241961E087E792E20E944E1917
:102A40008BE092E20E94F70B8983DCCE209110226A
:102A50009091842181E0291709F480E08823D1F046
:102A600080910120909102209C0141E08A819B810C
:102A70002817390708F440E0442329F08091812188
:102A80008093102207C081E08093EE218091832102
:102A90008093102200006E96CDBFDEBFDF91CF91F4
:102AA0000895CF93DF93EC018C81813029F460E8A5
:102AB0008A819B810E94440A8C81823029F460E4DF
:102AC0008A819B810E94440A8C81833029F460E2D0
:102AD0008A819B810E94440A8C81843029F460E1C0
:102AE0008A819B810E94440A8C81853029F468E0A8
:102AF0008A819B810E94440A8C81863029F464E09B
:102B00008A819B810E94440A8C81873029F462E08B
:102B10008A819B810E94440A8C81883029F461E07B
:102B20008A819B810E94440ADF91CF910895FC0124
:102B300060834283538364830E9451150895CF9329
:102B4000DF93EC018C81813029F460E88A819B81DC
:102B50000E943F0A8C81823029F460E48A819B8143
:102B60000E943F0A8C81833029F460E28A819B8134
:102B70000E943F0A8C81843029F460E18A819B8124
:102B80000E943F0A8C81853029F468E08A819B810C
:102B90000E943F0A8C81863029F464E08A819B81FF
:102BA0000E943F0A8C81873029F462E08A819B81F0
:102BB0000E943F0A8C81883029F461E08A819B81E0
:102BC0000E943F0ADF91CF91089508950F931F93BC
:102BD000CF93DF93EC018C01025E1F4FCE010E9468
:102BE00051152596C017D107C9F7DF91CF911F91D5
:102BF0000F9108958F929F92AF92BF92CF92DF92E2
:102C0000EF92FF920F931F93CF93DF938C010F2EC0
:102C1000FFEEAF2EF1E2BF2EF02D6501C0E0D0E057
:102C20000F2EF7E0EF2EF2E2FF2EF02DFE01EE0F59
:102C3000FF1FEE51FE4D80819181181619060CF090
:102C400057C0CE010E94DB02802E912EC8010E9447
:102C50009F15C6010E94AF0B0E94751987E792E28B
:102C60000E94891887E792E20E94241961E087E7B1
:102C700092E20E944E19FE01EE0FFF1FEE51FE4D33
:102C80008081918118161906B4F480E090E0FE016D
:102C9000EE0FFF1FEE51FE4D2FEF33E341E22150C7
:102CA00030404040E1F700C00000019620813181B2
:102CB000821793078CF3882D992D0E945115450199
:102CC000C4010E94610B84E0880E911C8E149F0445
:102CD000B9F70E94751987E792E20E94891887E781
:102CE00092E20E94241961E087E792E20E944E1965
:102CF00021960B5F1F4F24E0C20ED11CC630D105B8
:102D000009F094CFDF91CF911F910F91FF90EF9039
:102D1000DF90CF90BF90AF909F908F900895CF920B
:102D2000DF92EF92FF92CF93DF93EC016A017B0178
:102D30002DEC3CEC47EC52E4C701B6010E948B1B22
:102D400088232CF4CC82DD82EE82FF8208C080E0F2
:102D500090E0A8ECB2E48C839D83AE83BF83CE0168
:102D60000E94340F833421F0843409F456C07FC0AC
:102D7000CE010E94370F811110C020E030E040EA00
:102D800050E46C817D818E819F810E94EF1C0E94A6
:102D9000091C6093280870932908CE010E94370F00
:102DA000813081F420E030E040EA50E46C817D81A4
:102DB0008E819F810E94EF1C0E94091C60932A084B
:102DC00070932B08CE010E94370F823081F420E0EF
:102DD00030E040EA50E46C817D818E819F810E94C9
:102DE000EF1C0E94091C60932C0870932D08CE01E3
:102DF0000E94370F8330D9F520E030E040EA50E4FC
:102E00006C817D818E819F810E94EF1C0E94091C34
:102E100060932E0870932F082AC0CE010E94370FAE
:102E2000811110C020E030E040EA50E46C817D81E7
:102E30008E819F810E94EF1C0E94091C60932809CB
:102E400070932909CE010E94370F813081F420E070
:102E500030E040EA50E46C817D818E819F810E9448
:102E6000EF1C0E94091C60932A0970932B09DF91C3
:102E7000CF91FF90EF90DF90CF900895FC01648197
:102E800075818681978108951F93CF93DF93EC011D
:102E9000162F0E94340F833421F0843409F470C05B
:102EA000ADC0CE010E94370F81111AC0112361F00D
:102EB000E0E0F8E0818180618183CE010E94370FDC
:102EC000813009F094C013C0E0E0F8E081818F7E8A
:102ED0008183CE010E94370F813009F081C012C07A
:102EE000CE010E94370F8130C1F4112359F0E0E088
:102EF000F8E0818180628183CE010E94370F8230A9
:102F000059F512C0E0E0F8E081818F7D8183CE0128
:102F10000E94370F823001F513C0CE010E94370F97
:102F20008230D1F4112361F0E0E0F8E08181806427
:102F30008183CE010E94370F833009F05FC014C037
:102F4000E0E0F8E081818F7B8183CE010E94370F22
:102F5000833009F053C00EC0CE010E94370F83307A
:102F600009F04CC0112331F0E0E0F8E08181806885
:102F7000818344C0E0E0F8E081818F7781833EC0A7
:102F8000CE010E94370F811118C0112359F0E0E0E3
:102F9000F9E0818180618183CE010E94370F813009
:102FA00069F512C0E0E0F9E081818F7E8183CE0176
:102FB0000E94370F813011F50DC0CE010E94370FEE
:102FC0008130E1F4112331F0E0E0F9E081818062A9
:102FD000818314C0E0E0F9E081818F7D81830EC0A0
:102FE000CE010E94370F823009F0B6CFA9CFCE01B3
:102FF0000E94370F823009F0AFCF96CFDF91CF918B
:103000001F9108950E94340F833419F0843479F0AD
:10301000089585E080934906E0E0F8E087E080834A
:1030200083E0818384EF91E086A397A3089585E0F0
:1030300080936906E0E0F9E087E0808383E08183A4
:1030400084EF91E086A397A308954F925F926F92C9
:103050007F928F929F92AF92BF92CF92EF920F93F7
:103060001F93CF93DF93EC012A013B0148015901E3
:103070000E94330F6E2DCE010E943A0F6C2DCE01AF
:103080000E943D0FB301A201CE010E948F168886D7
:103090009986AA86BB8660E0CE010E94400FCE01D1
:1030A0000E94430FCE010E940218DF91CF911F9121
:1030B0000F91EF90CF90BF90AF909F908F907F90A7
:1030C0006F905F904F9008950895CF93DF93EC0138
:1030D0000E94330FCE0104960E94330FCE01089652
:1030E0000E94330FCE010C960E94330FCE01409602
:1030F0000E94330F89EF92E28093F7229093F82297
:1031000089E090E28093F5229093F622DF91CF91AF
:1031100008958091F922809309208091FA2280936A
:103120000A208091FB2280930B208091FC228093C7
:103130000C208091FD2280930D208091FE228093AF
:103140000E208091FF2280930F2080910023809396
:1031500010200895FF920F931F93CF93DF931F9238
:10316000CDB7DEB7F62E042F000F000F000F08506A
:1031700010E0612F8F2D0E94FC02898389818130AC
:1031800049F4612F600F8091F7229091F8220E94FC
:10319000080308C0612F600F8091F7229091F822F8
:1031A0000E942F031F5F183021F70F90DF91CF91FE
:1031B0001F910F91FF900895FF920F931F93CF934C
:1031C000DF9300D0CDB7DEB78C0169837A83CE015F
:1031D00001960E943C0AF82ECE0101960E94390AFF
:1031E0004F2D682FC8010E94AA180F900F90DF91F1
:1031F000CF911F910F91FF90089560E089ED92E2C9
:103200000E946211089561E089ED92E20E946211CC
:10321000089560E08DED92E20E94621160E085EE1B
:1032200092E20E94621160E081EE92E20E946211DD
:103230008FEB9DE50197F1F700C0000061E081EEA2
:1032400092E20E94621108958091F5229091F622F7
:103250000E945E030895611105C089EE92E20E940A
:10326000621105C061E089EE92E20E9462118FE373
:103270009FE10197F1F700C0000061E085EE92E266
:103280000E9462118FEB9DE50197F1F700C00000ED
:1032900060E085EE92E20E94621108951F93CF9341
:1032A000DF93EC01162F0E94031961E08DED92E28D
:1032B0000E9462118FEB9DE50197F1F700C00000BD
:1032C00060E08DED92E20E946211112321F0CE01A7
:1032D0000E94FD1803C0CE010E940319CE010E9476
:1032E0008918DF91CF911F910895CF93DF93C0E0AC
:1032F000D0E0FE01EE0FFF1FE559FD4D60817181A9
:1033000087E792E20E94DC182196C630D10589F742
:10331000DF91CF9108950F931F93CF93DF93CDB794
:10332000DEB72A97CDBFDEBF9F938F9388E891E2E7
:103330009F938F938E010F5F1F4F1F930F930E94D8
:10334000081E0F900F900F900F900F900F90C801D4
:103350002A96CDBFDEBFDF91CF911F910F910895C7
:10336000E0E4F6E090E4928380E8818388E1878B53
:10337000E0EBF8E097839CE09683848383E0858389
:1033800080E383830895FC0101900020E9F73197E1
:103390003E2F381B61F0DC0120E0E0EBF8E091818A
:1033A00095FFFDCF8D9180832F5F3213F8CFE0EB37
:1033B000F8E0818185FFFDCFE0EBF8E0818185FFBA
:1033C000FDCF089510923F231092E12108951F929E
:1033D0000F920FB60F9211242F933F934F935F9349
:1033E0006F937F938F939F93AF93BF93EF93FF93CD
:1033F0008091B00890913F2391110BC08A3041F128
:103400008D3031F18B3221F190913E239C3370F05D
:103410001FC08091E1218130B9F58091A8218736C4
:1034200099F58091AC21833779F526C0E0913E2350
:10343000F0E0EF5FFC4D8083E0913E23F0E0EC553F
:10344000FE4D808380913E238F5F80933E23E1CFAA
:10345000E0913E23F0E0EF5FFC4D1082E0913E23CF
:10346000F0E0EC55FE4D108210923E2381E08093F7
:103470003F238093E121CDCF8091A2219091A32180
:103480000E94C3190E94E219FF91EF91BF91AF9181
:103490009F918F917F916F915F914F913F912F916C
:1034A0000F900FBE0F901F9018950F931F93CF93FF
:1034B000DF93161617060CF07AC0DC01A60FB71FB3
:1034C000EC0121E030E080E090E00BE811E2EE91C9
:1034D0004E2F50E0FA01F097EA30F10508F053C0A2
:1034E000EF5DFE4F0C94BD1D820F931F50C0A901CC
:1034F000440F551F840F951F4AC0A901440F551F43
:10350000420F531F840F951F42C0A901440F551F3E
:10351000440F551F840F951F3AC0A901440F551F32
:10352000440F551F420F531F840F951F30C0A90130
:10353000440F551F420F531F440F551F840F951FF3
:1035400026C0A901440F551F440F551F440F551F96
:10355000421B530B840F951F1AC0A901440F551F1E
:10356000440F551F440F551F840F951F10C0A9010C
:10357000440F551F440F551F440F551F420F531F33
:10358000840F951F04C00093A2211093A321A901C9
:10359000440F551F220F331F220F331F220F331FDB
:1035A000240F351FAC17BD0709F091CF02C080E092
:1035B00090E0DF91CF911F910F910895CF92DF920C
:1035C000EF92FF920F931F93CF93DF9300D000D021
:1035D000CDB7DEB78AE08C8304EA11E20F2EF0E467
:1035E000EF2EF3E2FF2EF02D0F2EF4EDCF2EF1E2B1
:1035F000DF2EF02DF8018085898381858A8382857D
:103600008B8363E070E0CE0101960E94551AF701AA
:10361000819391937F01085F1F4F0C151D0551F792
:1036200080E493E22496CDBFDEBFDF91CF911F915E
:103630000F91FF90EF90DF90CF9008955058BB27E7
:10364000AA270E94361B0C94B01C0E94A21C38F0C2
:103650000E94A91C20F039F49F3F19F426F40C9421
:103660009F1C0EF4E095E7FB0C94991CE92F0E9437
:10367000C11C58F3BA17620773078407950720F037
:1036800079F4A6F50C94E31C0EF4E0950B2EBA2FFA
:10369000A02D0B01B90190010C01CA01A001112458
:1036A000FF27591B99F0593F50F4503E68F11A1604
:1036B000F040A22F232F342F4427585FF3CF469595
:1036C00037952795A795F0405395C9F77EF41F16B7
:1036D000BA0B620B730B840BBAF09150A1F0FF0F81
:1036E000BB1F661F771F881FC2F70EC0BA0F621F6D
:1036F000731F841F48F4879577956795B795F7955D
:103700009E3F08F0B0CF9395880F08F09927EE0FF1
:103710009795879508950E94751C08F481E0089597
:103720000E94A41B0C94B01C0E94A91C58F00E947B
:10373000A21C40F029F45F3F29F00C94991C511110
:103740000C94E41C0C949F1C0E94C11C68F39923E8
:10375000B1F3552391F3951B550BBB27AA2762178D
:103760007307840738F09F5F5F4F220F331F441F9A
:10377000AA1FA9F335D00E2E3AF0E0E832D09150CE
:103780005040E695001CCAF72BD0FE2F29D0660FBB
:10379000771F881FBB1F261737074807AB07B0E8FE
:1037A00009F0BB0B802DBF01FF2793585F4F3AF004
:1037B0009E3F510578F00C94991C0C94E41C5F3FDB
:1037C000E4F3983ED4F3869577956795B795F7958A
:1037D0009F5FC9F7880F911D9695879597F9089572
:1037E000E1E0660F771F881FBB1F6217730784070E
:1037F000BA0720F0621B730B840BBA0BEE1F88F71D
:10380000E09508950E94091C6894B1110C94E41C81
:1038100008950E94C91C88F09F5798F0B92F9927E6
:10382000B751B0F0E1F0660F771F881F991F1AF0AB
:10383000BA95C9F714C0B13091F00E94E31CB1E011
:1038400008950C94E31C672F782F8827B85F39F010
:10385000B93FCCF3869577956795B395D9F73EF444
:1038600090958095709561957F4F8F4F9F4F0895EC
:10387000E89409C097FB3EF490958095709561950A
:103880007F4F8F4F9F4F9923A9F0F92F96E9BB27C0
:103890009395F695879577956795B795F111F8CF3C
:1038A000FAF4BB0F11F460FF1BC06F5F7F4F8F4FA7
:1038B0009F4F16C0882311F096E911C0772321F09D
:1038C0009EE8872F762F05C0662371F096E8862F35
:1038D00070E060E02AF09A95660F771F881FDAF78C
:1038E000880F9695879597F90895990F0008550FB9
:1038F000AA0BE0E8FEEF16161706E807F907C0F076
:1039000012161306E407F50798F0621B730B840B7D
:10391000950B39F40A2661F0232B242B252B21F457
:1039200008950A2609F4A140A6958FEF811D811DF7
:10393000089597F99F6780E870E060E008959FEF31
:1039400080EC089500240A94161617061806090636
:10395000089500240A941216130614060506089505
:10396000092E0394000C11F4882352F0BB0F40F48D
:10397000BF2B11F460FF04C06F5F7F4F8F4F9F4FCD
:10398000089557FD9058440F551F59F05F3F71F04F
:103990004795880F97FB991F61F09F3F79F08795B6
:1039A0000895121613061406551FF2CF4695F1DF3F
:1039B00008C0161617061806991FF1CF86957105CF
:1039C000610508940895E894BB2766277727CB0103
:1039D00097F908950E94751C08F48FEF08950E94CE
:1039E000021D0C94B01C0E94A21C38F00E94A91C5D
:1039F00020F0952311F00C94991C0C949F1C112419
:103A00000C94E41C0E94C11C70F3959FC1F3950FA8
:103A100050E0551F629FF001729FBB27F00DB11D52
:103A2000639FAA27F00DB11DAA1F649F6627B00DE2
:103A3000A11D661F829F2227B00DA11D621F739FCB
:103A4000B00DA11D621F839FA00D611D221F749FD9
:103A50003327A00D611D231F849F600D211D822F20
:103A6000762F6A2F11249F5750409AF0F1F0882347
:103A70004AF0EE0FFF1FBB1F661F771F881F915074
:103A80005040A9F79E3F510580F00C94991C0C946E
:103A9000E41C5F3FE4F3983ED4F3869577956795F1
:103AA000B795F795E7959F5FC1F7FE2B880F911D9E
:103AB0009695879597F908950E94C91CE8F09E375E
:103AC000E8F09639B8F49E3848F4672F782F8827A5
:103AD000985FF9CF86957795679593959539D0F34B
:103AE000B62FB1706B0F711D811D20F487957795EE
:103AF000679593950C94801D0C949B1D0C94E41C6D
:103B0000882371F4772321F09850872B762F07C0F4
:103B1000662311F499270DC09051862B70E060E068
:103B20002AF09A95660F771F881FDAF7880F969507
:103B3000879597F908959F3F31F0915020F487952C
:103B400077956795B795880F911D9695879597F905
:103B5000089597FB072E16F4009407D077FD09D03F
:103B60000E94F41D07FC05D03EF4909581959F4F6F
:103B70000895709561957F4F0895EE0FFF1F059092
:103B8000F491E02D09940F93083090F0982F872F2F
:103B9000762F652F542F432F322F22270850F4CF32
:103BA000220F331F441F551F661F771F881F991F41
:103BB0000A95B2F70F9108950024A7FD00942A0FEB
:103BC000301D401D501D601D701D801D901D0895ED
:103BD0000024A7FD00942A17300540055005600514
:103BE0007005800590050895AA1BBB1B51E107C015
:103BF000AA1FBB1FA617B70710F0A61BB70B881F7D
:103C0000991F5A95A9F780959095BC01CD0108950B
:103C1000AEE0B0E0EEE0FEE10C94C9200D891E8913
:103C200086E08C8309831A838FEF9FE78D839E83C1
:103C3000AE01475E5F4F6F89788DCE0101960E947D
:103C40002A1EEF81F885E00FF11F10822E96E4E026
:103C50000C94E220ABE0B0E0E0E3FEE10C94BB208A
:103C60006C017B018A01FC0116821782838181FF2E
:103C7000CCC1CE0101963C01F6019381F70193FD81
:103C8000859193FF81917F01882309F4BAC1853220
:103C900039F493FD859193FF81917F01853229F459
:103CA000B60190E00E942120E7CF912C212C312CED
:103CB000FFE1F315D8F08B3279F038F4803279F0E7
:103CC0008332A1F4232D20611DC08D3261F0803339
:103CD00069F4232D216016C0832D8260382EE32DD8
:103CE000E4603E2E2AC0F32DF8601DC037FC2DC0C5
:103CF00020ED280F2A3040F08E32B9F436FC81C115
:103D0000232D2064322E19C036FE06C08AE0989E0C
:103D1000200D1124922E11C0EAE02E9E200D1124B8
:103D2000222EF32DF0623F2E08C08C3621F4832D15
:103D30008068382E02C0883641F4F70193FD8591E2
:103D400093FF81917F018111B3CF982F9F7D95546F
:103D5000933028F40C5F1F4F9FE399830DC0833687
:103D600031F0833771F0833509F059C021C0F80173
:103D7000808189830E5F1F4F88248394912C530187
:103D800013C02801F2E04F0E511CF801A080B18051
:103D900036FE03C0692D70E002C06FEF7FEFC501F2
:103DA0000E9416204C018201F32DFF773F2E16C092
:103DB000280122E0420E511CF801A080B18036FE9D
:103DC00003C0692D70E002C06FEF7FEFC5010E9454
:103DD0000B204C01F32DF0683F2E820133FC1BC0F9
:103DE000822D90E088169906B0F4B60180E290E04A
:103DF0000E9421202A94F4CFF50137FC859137FEEB
:103E000081915F01B60190E00E94212021102A9447
:103E100021E0821A91088114910471F7E8C0843678
:103E200011F0893641F5F80137FE07C060817181D4
:103E3000828193810C5F1F4F08C060817181072EC2
:103E4000000C880B990B0E5F1F4FF32DFF763F2E52
:103E500097FF09C090958095709561957F4F8F4F22
:103E60009F4FF0683F2E2AE030E0A3010E945D20C2
:103E7000882E861845C0853731F4232D2F7EB22E2B
:103E80002AE030E025C0932D997FB92E8F36C1F0FE
:103E900018F4883579F0B5C0803719F0883721F0EB
:103EA000B0C0E92FE061BE2EB4FE0DC0FB2DF46062
:103EB000BF2E09C034FE0AC0292F2660B22E06C0CC
:103EC00028E030E005C020E130E002C020E132E02F
:103ED000F801B7FE07C060817181828193810C5F18
:103EE0001F4F06C06081718180E090E00E5F1F4F20
:103EF000A3010E945D20882E8618FB2DFF773F2EA0
:103F000036FE0DC0232D2E7FA22E891458F434FEC8
:103F10000BC032FC09C0832D8E7EA82E05C0B82CA4
:103F2000A32C03C0B82C01C0B92CA4FE0FC0FE0105
:103F3000E80DF11D8081803321F49A2D997EA92E00
:103F400009C0A2FE06C0B394B39404C08A2D86783B
:103F500009F0B394A3FC11C0A0FE06C0B21488F40B
:103F6000280C922C9B180EC0B21460F4B60180E2AB
:103F700090E00E942120B394F7CFB21418F42B18CC
:103F800002C0982C212CA4FE10C0B60180E390E062
:103F90000E942120A2FE17C0A1FC03C088E790E088
:103FA00002C088E590E0B6010CC08A2D867859F0F1
:103FB000A1FE02C08BE201C080E2A7FC8DE2B60147
:103FC00090E00E942120891438F4B60180E390E04B
:103FD0000E9421209A94F7CF8A94F301E80DF11DF5
:103FE0008081B60190E00E9421208110F5CF22202F
:103FF00009F442CEB60180E290E00E9421202A948A
:10400000F6CFF6018681978102C08FEF9FEF2B9646
:10401000E2E10C94D420FC01059061507040011045
:10402000D8F7809590958E0F9F1F0895FC016150E1
:10403000704001900110D8F7809590958E0F9F1FCA
:1040400008950F931F93CF93DF93FB01238121FDED
:1040500003C08FEF9FEF2CC022FF16C0468157810F
:10406000248135814217530744F4A081B1819D0119
:104070002F5F3F4F208331838C93268137812F5FC1
:104080003F4F2683378314C08B01EC01FB01008472
:10409000F185E02D0995892BE1F6D80116968D91D1
:1040A0009C911797019616968D939C931797CE0126
:1040B000DF91CF911F910F910895FA01AA2728301F
:1040C00051F1203181F1E8946F936E7F6E5F7F4FE5
:1040D0008F4F9F4FAF4FB1E03ED0B4E03CD0670F61
:1040E000781F891F9A1FA11D680F791F8A1F911DB4
:1040F000A11D6A0F711D811D911DA11D20D009F404
:1041000068943F912AE0269F11243019305D319345
:10411000DEF6CF010895462F4770405D4193B3E02E
:104120000FD0C9F7F6CF462F4F70405D4A3318F0D5
:10413000495D31FD4052419302D0A9F7EACFB4E086
:10414000A6959795879577956795BA95C9F700973E
:104150006105710508959B01AC010A2E06945795DF
:10416000479537952795BA95C9F7620F731F841F36
:10417000951FA01D08952F923F924F925F926F92CC
:104180007F928F929F92AF92BF92CF92DF92EF92E7
:10419000FF920F931F93CF93DF93CDB7DEB7CA1B68
:1041A000DB0BCDBFDEBF09942A88398848885F843D
:1041B0006E847D848C849B84AA84B984C884DF80C7
:1041C000EE80FD800C811B81AA81B981CE0FD11DAB
:1041D000CDBFDEBFED01089511E0CCE2D1E004C017
:1041E000FE010E94BD1D2196CD32D107C9F7F8947A
:0241F000FFCFFF
:1041F200016400010101010101983A000000000080
:104202000053797374656D20666165687274006825
:104212006F6368005748532D5372696E67203030C0
:10422200360042697474652053746172742064723A
:104232007565636B656E006D61782E204675656CE1
:104242006C6D656E676520766F6E006D6C6C2062BA
:104252006561636874656E00476573616D6D746551
:104262002052657A65707475720065696E67656261
:10427200656E20202020206D6C6C00537461727476
:1042820020777572646500676564727565636B7427
:104292000053746F702077757264650045727220E6
:1042A20050696E204E756D0045727220506F7274A7
:1042B200204275636873740050574D20777572649D
:1042C20065006465616B6974766965727400447532
:1042D2007479204379636C65203D00414443205743
:1042E2006572740041627765696368756E6700483C
:1042F200616C7420777572646500657272656963BA
:1043020068742E0052657A65707420776972640051
:104312006175736765676562656E0050756D70657E
:10432200206E6F200020616E67657370726F636824
:10433200656E005541525420537472696E67006570
:10434200726B616E6E74002323232349444C452B08
:104352002B2B2B0023232323446174615F4F4B2BB0
:104362002B2B2B004461746120496E76616C696469
:10437200000A09040225752E2575002323232344F0
:104382006174615F496E76616C69642B2B2B2B0023
:00000001FF
