S0150000436F636B7461696C6D697865722E73726563C0
S11300000C946F010C9497010C9497010C94970134
S11300100C9497010C9497010C9497010C949701FC
S11300200C9497010C9497010C9497010C949701EC
S11300300C9497010C9497010C9497010C949701DC
S11300400C9497010C9497010C9497010C949701CC
S11300500C9497010C9497010C9497010C949701BC
S11300600C9497010C9497010C9497010C949701AC
S11300700C94251B0C9497010C9497010C949701F4
S11300800C9497010C9497010C9497010C9497018C
S11300900C9497010C9497010C9497010C9497017C
S11300A00C9497010C9497010C9497010C9497016C
S11300B00C9497010C9497010C9497010C9497015C
S11300C00C9497010C9497010C9497010C9497014C
S11300D00C9497010C9497010C9497010C9497013C
S11300E00C9497010C9497010C9497010C9497012C
S11300F00C9497010C9497010C9497010C9497011C
S11301000C9497010C9497010C94A40D0C94F90D84
S11301100C9497010C9497010C9497010C949701FB
S11301200C9497010C9497010C9497010C949701EB
S11301300C9497010C9497010C9497010C949701DB
S11301400C9497010C9497010C9497010C949701CB
S11301500C9497010C9497010C9497010C949701BB
S11301600C9497010C9497010C9497010C949701AB
S11301700C9497010C949701CD0DD10DE90DD50D7B
S1130180D90DDD0DE90DE90DE10DE50D1B0E1F0E79
S11301903B0E230E270E2B0E3B0E3B0E2F0E330E63
S11301A0370E061011101C10271032103D10481085
S11301B0531070107B10861091109C10A710B21071
S11301C0BD10DA10E510F010FB10061111111C110E
S11301D0271144114F115A11651170117B118611A9
S11301E09111AE11B911C411CF11DA11E511F01149
S11301F0FB112712331240124D125A126712741255
S11302008112A012AC12B912C612D312E012ED126E
S1130210FA121913251332133F134C13591366138F
S1130220731392139E13AB13B813C513D213DF13B6
S1130230EC130B141714241431143E144B145814D7
S11302406514BC1AA31ABF1AA61AA91AAC1AAF1AB3
S1130250B21AB51AB81A07634236B79BD8A71A3927
S1130260685618AEBAAB558C1D3CB7CC5763BD6D00
S1130270EDFD753EF6177231BF000000803F0800A7
S11302800000BE922449123EABAAAA2ABECDCCCC11
S11302904C3E00000080BEABAAAAAA3E00000000AB
S11302A0BF000000803F0000000000084178D3BB7D
S11302B04387D1133D190E3CC3BD4282AD2B3E682A
S11302C0EC8276BED98FE1A93E4C80EFFFBE01C41B
S11302D0FF7F3F0000000000370A4B0EC00F1124BF
S11302E01FBECFEFCDBFDFE2DEBF11E2A0E0B0E280
S11302F0EAEDF6E402C005900D92AA39B107D9F7E8
S113030023E2AAE9B1E201C01D92AC35B207E1F7DC
S113031011E0CEE6D1E004C02197FE010E94312015
S1130320CC36D107C9F70E94CC0C0C9460230C94F2
S11303300000E0E0F2E084E0818380E3828387E0F0
S1130340848381E0808380A308950F931F93CF93C8
S1130350DF93EC01062F142F0E94E30F602FCE01D0
S11303600E94EA0F612FCE010E94ED0F61E0CE01E1
S11303700E94F00FCE010E94F30FCE010E9499015A
S1130380DF91CF911F910F910895CF93DF93EC01EB
S11303900E94E40F813409F098C0CE010E94E70F57
S11303A081110EC0E0E0F2E081A1877F81A381A1E9
S11303B08F7E81A381A18F7D81A381A18F7B81A366
S11303C0CE010E94E70F813071F4E0E0F2E081A1F8
S11303D0886081A381A18F7E81A381A18F7D81A368
S11303E081A18F7B81A3CE010E94E70F823071F43B
S11303F0E0E0F2E081A1877F81A381A1806181A3F4
S113040081A18F7D81A381A18F7B81A3CE010E94D5
S1130410E70F833071F4E0E0F2E081A1886081A30A
S113042081A1806181A381A18F7D81A381A18F7B23
S113043081A3CE010E94E70F843071F4E0E0F2E082
S113044081A1877F81A381A18F7E81A381A1806205
S113045081A381A18F7B81A3CE010E94E70F853008
S113046071F4E0E0F2E081A1886081A381A18F7E34
S113047081A381A1806281A381A18F7B81A3CE010D
S11304800E94E70F863071F4E0E0F2E081A1877FFB
S113049081A381A1806181A381A1806281A381A1C3
S11304A08F7B81A3CE010E94E70F873071F4E0E0D7
S11304B0F2E081A1886081A381A1806181A381A1EF
S11304C0806281A381A18F7B81A3E0E0F2E080A11F
S11304D0806880A383A18823E9F3E0E0F2E081E06F
S11304E083A380899189DF91CF91089508950E9413
S11304F0460B08950E943C0B84E190E20E94BC0BE1
S113050062E080E00E94A70B82E290E20E94BC0BB2
S113051008950E943C0B61E080E00E94A70B87E2F3
S113052090E20E94BC0B62E080E00E94A70B85E38E
S113053090E20E94BC0B0895CF93DF93EC010E94DC
S11305403C0B84E490E20E94BC0B62E080E00E94D9
S1130550A70BCE010E94381A0E94BC0B88E590E2DA
S11305600E94BC0BDF91CF9108950E943C0B85E65D
S113057090E20E94BC0B62E080E00E94A70B81E73E
S113058090E20E94BC0B0895CF93DF93EC0162E0EC
S113059089E00E94A70BC436D10520F487E291E2DA
S11305A00E94BC0BCA30D10520F487E291E20E947C
S11305B0BC0BCE010E94381A0E94BC0B8AE790E261
S11305C00E94BC0BDF91CF91089561E080E00E940E
S11305D0A70B80EA90E20E94BC0B089521E030E072
S11305E002C0220F331F6A95E2F7282381E009F441
S11305F080E008950F93FC01062F21E030E040E0F5
S113060050E060E070E080E090E00E943720A0813C
S11306102A2B20832181322B31832281422B428356
S11306202381522B53832481622B64832581722B73
S113063075832681822B86838781982B97830F91DC
S113064008950F93FC01062F21E030E040E050E0D4
S113065060E070E080E090E00E94372020953095C3
S1130660409550956095709580959095A0812A232A
S113067020832181322331832281422342832381B7
S113068052235383248162236483258172237583D7
S11306902681822386838781982397830F910895E7
S11306A0EF92FF920F93CF93DF93CDB7DEB76097AE
S11306B0CDBFDEBF7C0181E089831A821B821C824C
S11306C01D821E821F82188619861A861B861C8626
S11306D01D861E861F86188A29853A854B855C856A
S11306E06D857E858F859889AFE20E945C2011F02C
S11306F008F069C029813A814B815C816D817E81DA
S11307008F819885D701EC912E231196EC91119746
S11307103E231296EC9112974E231396EC91139765
S11307205E231496EC9114976E231596EC9115970D
S11307307E231696FC9116971796EC918F239E2391
S1130740A0E00E945C2031F460E086E892E20E941E
S1130750D81905C061E086E892E20E94D81929817F
S11307603A814B815C816D817E818F81988501E026
S11307700E94372029833A834B835C836D837E8375
S11307808F83988729853A854B855C856D857E8521
S11307908F859889A1E00E94502029873A874B874A
S11307A05C876D877E878F87988B29853A854B85F3
S11307B05C856D857E858F859889AFE20E945C207B
S11307C009F008F497CF6096CDBFDEBFDF91CF91DB
S11307D00F91FF90EF900895CF93DF9300D0CDB7A2
S11307E0DEB780E292E20E94961683E20E949C06A3
S11307F00E9489028AE192E20E94190C86E192E247
S11308000E94CB0B19821A8289819A819C012F5FE5
S11308103F4F29833A8321E0892B09F420E02223E6
S113082059F089819A81880F991F880F991F8250E6
S11308309E4D0E94CB0BE8CF0E94221A86E892E2DA
S11308400E94361986E892E20E94D11961E086E896
S113085092E20E94FB191092032000000F900F9067
S1130860DF91CF9108950F931F93CF93DF93CDB76B
S1130870DEB7A297CDBFDEBF8B8F9C8F6D8F7E8F2F
S11308804F8F58A329A33AA326E0CE010D96FC016D
S1130890322F11923A95E9F726E0CE014396FC01F6
S11308A0322F11923A95E9F7198E1A8E19821A820B
S11308B01B821C821D821E829B8981E089278823DA
S11308C0C9F49C8981E089278823A1F49D8981E06A
S11308D08927882379F49E8981E08927882351F424
S11308E09F8981E08927882329F4988D81E08927CD
S11308F0882311F081E001C080E0882309F413C249
S1130900898D9A8D21E006970CF020E02223A1F234
S11309101B821C821D821E82898D9A8D9E012D5EF2
S11309203F4F820F931FFC01908181E08927882328
S113093009F4F3C1298D3A8DC901880F991F820FDB
S1130940931F880F991F825C9D4D0E943F0A898DD9
S11309509A8D880F991F2B8D3C8D820F931FFC015C
S11309608081918121E0C3970CF020E02223A1F043
S1130970098D1A8D898D9A8D880F991F880F991F5B
S11309808E599D4D0E94C501282FCE010796800FD8
S1130990911FFC01208314C0098D1A8D898D9A8DB5
S11309A0880F991F880F991F8E599D4D0E94C5016C
S11309B022E1280FCE010796800F911FFC012083AE
S11309C0298D3A8DC901880F991F820F931F880FB3
S11309D0991F825C9D4D0E94460A898D9A8D9E01C5
S11309E0295F3F4F820F931FFC018081282F30E045
S11309F0898D9A8D880F991F4B8D5C8D840F951F5F
S1130A00FC018081918141E0821793070CF440E05E
S1130A10442371F1898D9A8D298D3A8D220F331FCC
S1130A204B8D5C8D240F351FF90120813181622F9C
S1130A30298D3A8DAE01495F5F4F240F351FF901AF
S1130A402081462F421B9E01235F3F4F820F931F3D
S1130A50FC014083298D3A8DC901880F991F820FAB
S1130A60931F880F991F825C9D4D61E00E94500A7C
S1130A70898D9A8D9E01295F3F4F820F931FFC0140
S1130A808081282F30E0898D9A8D880F991F4B8D96
S1130A905C8D840F951FFC018081918141E0821758
S1130AA093070CF040E0442369F1898D9A8D298DD8
S1130AB03A8DAE01495F5F4F240F351FF901608104
S1130AC0298D3A8D220F331F4B8D5C8D240F351FDA
S1130AD0F90120813181462F421B9E01235F3F4F44
S1130AE0820F931FFC014083298D3A8DC901880F21
S1130AF0991F820F931F880F991F825C9D4D60E0A0
S1130B000E94500A898D9A8D8A5F9F4DFC01108145
S1130B10298D3A8DC901880F991F820F931F880F61
S1130B20991F825C9D4D0E944D0A982F81E01917F0
S1130B3009F080E0882359F189819A8118161906F1
S1130B400CF449C00E94221A86E892E20E943619E7
S1130B5086E892E20E94D11961E086E892E20E945E
S1130B60FB19098D1A8D298D3A8DC901880F991F9A
S1130B70820F931F880F991F825C9D4D0E944D0A1E
S1130B80282FC8018A5F9F4DFC01208324C00E9446
S1130B90221A86E892E20E94361986E892E20E94BE
S1130BA0D11961E086E892E20E94FB19098D1A8D41
S1130BB0298D3A8DC901880F991F820F931F880FC1
S1130BC0991F825C9D4D0E944D0A282FC8018A5F9F
S1130BD09F4DFC01208389819A81019689839A83A0
S1130BE0298D3A8DC901880F991F820F931F880F91
S1130BF0991F825C9D4D0E94460A898D9A8D9E01A3
S1130C00235F3F4F820F931FFC01908181E092305C
S1130C1008F080E08823C1F0298D3A8DC901880F3E
S1130C20991F820F931F880F991F825C9D4D0E940C
S1130C303F0A898D9A8D9E012D5E3F4F820F931F2F
S1130C4021E0FC01208368CE898D9A8D9E01235F6B
S1130C503F4F820F931FFC01908181E09F3108F088
S1130C6080E0882371F1298D3A8D4DE0429FC001C7
S1130C70439F900D112486569D4D0E94EB17DC0175
S1130C80CB0111E020E030E040E751E4BC01CD01AC
S1130C900E94881C882309F410E0112309F43CCE37
S1130CA0298D3A8D4DE0429FC001439F900D112440
S1130CB086569D4D40E050E060E771E40E943C1789
S1130CC02BCE898D9A8D9E01235F3F4F820F931FF8
S1130CD0FC018081882F90E0A0E0B0E0BC01CD0150
S1130CE00E94351DDC01CB0120E030E040EC5FE3E5
S1130CF0BC01CD010E948D1CDC01CB01AC01BD0106
S1130D00298D3A8DEDE0E29FC001E39F900D1124FF
S1130D1086569D4D0E943C17FFCD898D9A8D019674
S1130D20898F9A8FEDCD0000A296CDBFDEBFDF91F3
S1130D30CF911F910F9108950F931F93CF93DF933A
S1130D40CDB7DEB7A197CDBFDEBF89A31B821C82BE
S1130D501D821E8226E0CE014196FC01322F1192A3
S1130D603A95E9F726E0CE014796FC01322F11921D
S1130D703A95E9F71D8E1E8E19821A829F8981E0A9
S1130D8089278823C9F4988D81E089278823A1F4D1
S1130D90998D81E08927882379F49A8D81E08927C8
S1130DA0882351F49B8D81E08927882329F49C8D25
S1130DB081E08927882311F081E001C080E0882345
S1130DC009F482C28D8D9E8D21E006970CF020E0FF
S1130DD02223A1F28D8D9E8D9E01295E3F4F820FAD
S1130DE0931FFC01908181E08927882309F409C2BB
S1130DF00D8D1E8D8D8D9E8D880F991F880F991FC7
S1130E008E599D4D0E94C501282FCE010B96800F4F
S1130E10911FFC0120838D8D9E8D9E01255F3F4F88
S1130E20820F931FFC01208181E099A1291708F00A
S1130E3080E0882319F18D8D9E8D2D8D3E8DAE0120
S1130E40455F5F4F240F351FF901208139A1432FDE
S1130E50421B9E012F5E3F4F820F931FFC01408374
S1130E602D8D3E8DC901880F991F820F931F880F06
S1130E70991F825C9D4D61E00E94500A8D8D9E8D6C
S1130E809E01255F3F4F820F931FFC01208181E06B
S1130E9099A1921708F080E0882319F18D8D9E8D19
S1130EA02D8D3E8DAE01455F5F4F240F351FF90137
S1130EB0308129A1432F421B9E012F5E3F4F820F99
S1130EC0931FFC0140832D8D3E8DC901880F991F0E
S1130ED0820F931F880F991F825C9D4D60E00E94D2
S1130EE0500A8D8D9E8D8A5F9F4DFC0110812D8D42
S1130EF03E8DC901880F991F820F931F880F991F78
S1130F00825C9D4D0E944D0A982F81E0191709F0CB
S1130F1080E0882359F189819A81181619060CF406
S1130F2062C00E94221A86E892E20E94361986E87C
S1130F3092E20E94D11961E086E892E20E94FB19D4
S1130F400D8D1E8D2D8D3E8DC901880F991F820F29
S1130F50931F880F991F825C9D4D0E944D0A282F74
S1130F60C8018A5F9F4DFC0120833DC061E08AE98E
S1130F7091E20E9412122D8D3E8D4DE0429FC001E0
S1130F80439F900D112486569D4D40E050E0BA01D8
S1130F900E943C170E94221A86E892E20E943619A7
S1130FA086E892E20E94D11961E086E892E20E940A
S1130FB0FB190D8D1E8D2D8D3E8DC901880F991F36
S1130FC0820F931F880F991F825C9D4D0E944D0ACA
S1130FD0282FC8018A5F9F4DFC01208360E08AE9C5
S1130FE091E20E94121289819A81019689839A83DF
S1130FF08D8D9E8D9E012F5E3F4F820F931FFC01AE
S1131000808131E0823008F030E08D8D9E8D21E0CA
S1131010039709F020E0832F822B882399F12D8DEB
S11310203E8DC901880F991F820F931F880F991F46
S1131030825C9D4D0E943F0A8D8D9E8D9E01295E8E
S11310403F4F820F931F21E0FC0120838D8D9E8DE5
S113105021E0039709F020E0222309F4BBCE2D8D73
S11310603E8D4DE0429FC001439F900D1124865652
S11310709D4D0E94EB17DC01CB018F839887A987D4
S1131080BA87A8CE8D8D9E8D9E012F5E3F4F820F15
S1131090931FFC01908181E0953108F080E0882362
S11310A0D1F12D8D3E8D4DE0429FC001439F900DA7
S11310B0112486569D4D0E94EB17DC01CB0111E0F3
S11310C020E030E040EF51E4BC01CD010E94881CD7
S11310D0882309F410E0112309F481C080E090E032
S11310E0A0EFB1E48B839C83AD83BE832D8D3E8DB5
S11310F04DE0429FC001439F900D11249C01265650
S11311003D4D8B819C81AD81BE81AC01BD01C90186
S11311100E943C1764C08D8D9E8D9E012F5E3F4FB3
S1131120820F931FFC01908181E09F3108F080E0E1
S11311308823C9F12D8D3E8D4DE0429FC001439F10
S1131140900D112486569D4D0E94EB17DC01CB01B6
S113115011E020E030E040E252E4BC01CD010E9405
S1131160881C882309F410E01123C9F180E090E081
S1131170A0E2B2E48B839C83AD83BE832D8D3E8D30
S11311804DE0429FC001439F900D11249C012656BF
S11311903D4D8B819C81AD81BE81AC01BD01C901F6
S11311A00E943C171CC080E090E0A0EAB2E48B836C
S11311B09C83AD83BE832D8D3E8D4DE0429FC00147
S11311C0439F900D11249C0126563D4D8B819C819B
S11311D0AD81BE81AC01BD01C9010E943C172D8DBA
S11311E03E8DC901880F991F820F931F880F991F85
S11311F0825C9D4D0E94460A80E592E20E943F0A6D
S1131200E9CD8D8D9E8D21E0059709F020E0222304
S113121009F454C01F8E18A28F8D98A121E006975F
S11312200CF020E0222309F449C00F8D18A18F8D02
S113123098A1880F991F880F991F8E599D4D0E9460
S1131240C501282FCE010B96800F911FFC0120832E
S11312508F8D98A19E01255F3F4F820F931FFC0144
S11312608081282F30E089A1882F90E0A901481BB4
S1131270590BCA0121E002970CF020E0222359F017
S11312808F8D98A19E01295E3F4F820F931F21E00D
S1131290FC0120830DC08F8D98A19E01295E3F4FD4
S11312A0820F931FFC0110828FEF9FEF8D8F9E8F13
S11312B08F8D98A101968F8F98A3AECF8D8D9E8D23
S11312C001968D8F9E8F7ECD0000A196CDBFDEBF8F
S11312D0DF91CF911F910F910895CF93DF93CDB7F5
S11312E0DEB72897CDBFDEBF6D837E838F8398875B
S11312F020E030E048EC52E46D817E818F81988556
S11313000E94E71D88235CF420E030E0A9016D8190
S11313107E818F8198850E94881C181644F120E0F4
S113132030E048EC52E46D817E818F8198850E9483
S1131330E71D181644F480E090E0A0E7B3E4898345
S11313409A83AB83BC8320E030E0A9016D817E8168
S11313508F8198850E94881C18166CF180E090E0BB
S1131360A0E7B1E489839A83AB83BC8324C02D8135
S11313703E814F81588560E070E088EC92E40E94E1
S11313808D1CDC01CB019C01AD0160E070E081E6C5
S113139093E40E948D1CDC01CB0120E030E040E7A7
S11313A051E4BC01CD010E941C1CDC01CB018983EA
S11313B09A83AB83BC8389819A81AB81BC81BC0154
S11313C0CD010E94A91EDC01CB01BC01CD010E940C
S11313D0061DDC01CB012896CDBFDEBFDF91CF9186
S11313E008950F931F93CF93DF9300D000D0CDB710
S11313F0DEB78B839C8319821A8289819A8106972E
S11314006CF589819A81880F991F2B813C81890110
S1131410080F191F89819A81880F991F2B813C819C
S1131420820F931FFC0180819181092E000CAA0B6D
S1131430BB0BBC01CD010E94371DDC01CB01BC01FB
S1131440CD010E946D09882F90E0F801808391837B
S113145089819A81019689839A83CFCF000024964B
S1131460CDBFDEBFDF91CF911F910F91089520E092
S113147043E062E48AE991E20E940B12089560E07D
S1131480FC01808191810E94F117089561E0FC01C3
S1131490808191810E94F1170895FC01858108954E
S11314A01F93CF93DF93EC01162F8C818130F1F4DD
S11314B0662371F060E88A819B810E94A90A60E238
S11314C08A819B810E94AE0A8C81823049F513C0C7
S11314D060E28A819B810E94A90A60E88A819B81DB
S11314E00E94AE0A8C818230D9F410C08C81823083
S11314F0B9F4662359F068E08A819B810E94A90AA5
S113150062E08A819B810E94AE0A0AC062E08A81FD
S11315109B810E94A90A68E08A819B810E94AE0A8D
S11315201D83DF91CF911F910895FC016083718326
S113153042835383248361E00E94500A0895FC018E
S1131540408361830895FC0181810895FC018081B9
S11315500895FC012181622B61830895FC0191812E
S1131560662314F49F776058603410F09F7B6054B6
S1131570603210F09F7D6052603110F09F7E6051A8
S1131580683010F0977F6850643010F09B7F64508F
S1131590623010F09D7F625061119E7F91830895A7
S11315A0E0E5F0E0808182608083818181FFFDCF6E
S11315B088ED84BF81E08093400008950E94D00AA2
S11315C00895807F2CF492E09093E507805803C03F
S11315D092E09093E607803428F091E09093E50739
S11315E0805403C091E09093E607803228F098E09D
S11315F090938506805203C098E0909386068031CC
S113160020F084E08093850603C084E080938606FE
S113161082E08093850695ED9A95F1F7000080931A
S113162086060895CF93C82F81E0809385068C2F7A
S11316300E94E10A8C2F8295807F0E94E10A8FE646
S113164091E00197F1F700C00000CF910895CF9386
S1131650C82F81E0809386068C2F0E94E10A8C2F8C
S11316608295807F0E94E10A8FE491E00197F1F76F
S113167000C00000CF91089581E00E94270B8FE7FE
S11316809EE30197F1F700C0000008950F931F93A4
S1131690CF93E1EEF7E081E08083C2E0C083E1E82C
S11316A0F6E08083C08324E0208398E09083E6EE14
S11316B0F7E08083C08306E816E0D8018C93CC93CE
S11316C02C939C93BFEFE6E7F1E0B150E040F0408B
S11316D0E1F700C0000080E30E94E10A8FE39CE987
S11316E00197F1F700C00000E5E8F6E0C08395ED4E
S11316F09A95F1F70000D801CC938FE39FE101970D
S1131700F1F700C00000C08395ED9A95F1F7000051
S1131710CC93EFE3FFE13197F1F700C0000080E2E2
S11317200E94E10A8FE39CE90197F1F700C00000F1
S113173088E20E94270B8CE00E94270B86E00E941F
S1131740270B0E943C0BCF911F910F91089562309B
S113175059F018F4613031F00895633039F0643091
S113176039F00895805805C0805403C0805701C0E3
S113177080530E94270B0895CF93DF93EC01888157
S1131780882331F021960E94120B89918111FBCF9D
S1131790DF91CF910895CF93DF93EC018B8181305A
S11317A029F460E889819A810E94AE0A8B81823093
S11317B029F460E489819A810E94AE0A8B81833086
S11317C029F460E289819A810E94AE0A8B81843077
S11317D029F460E189819A810E94AE0A8B81853067
S11317E029F468E089819A810E94AE0A8B8186304F
S11317F029F464E089819A810E94AE0A8B81873042
S113180029F462E089819A810E94AE0A8B81883032
S113181029F461E089819A810E94AE0A1882DF91DD
S1131820CF910895FC016383418352830E94CB0BC3
S11318300895CF93DF93EC018B81813029F460E824
S113184089819A810E94A90A8B81823029F460E4FB
S113185089819A810E94A90A8B81833029F460E2EC
S113186089819A810E94A90A8B81843029F460E1DC
S113187089819A810E94A90A8B81853029F468E0C4
S113188089819A810E94A90A8B81863029F464E0B7
S113189089819A810E94A90A8B81873029F462E0A8
S11318A089819A810E94A90A8B81883029F461E098
S11318B089819A810E94A90A81E08883DF91CF916E
S11318C00895FC01808108950E94DE0A2FEF83ECC5
S11318D099E0215080409040E1F700C000000E9450
S11318E077022FEF83EC99E0215080409040E1F79C
S11318F000C000000E945D1AF894E0E0F6E08285E2
S1131900806882878385806483878AE1868B878B5E
S113191085E08187E0EAF0E08281876082837894C1
S113192008950F931F93CF93DF93CEEFD1E206E197
S113193012E2CE010E94CB0B2496C017D107C9F73F
S11319400E94221A86E892E20E94361986E892E200
S11319500E94D11961E086E892E20E94FB19DF91AE
S1131960CF911F910F91089524E0829FC00111240B
S113197082509E4D0E94190C0E94221A86E892E21F
S11319800E94361986E892E20E94D11961E086E845
S113199092E20E94FB19089510921F2210E0C0E009
S11319A0D0E0CC24C3946894AA24A1F80F2EF3E0C9
S11319B09F2EF02D0F2EF3E4EF2EF1E2FF2EF02DEB
S11319C00F2EF0E36F2EF5E77F2EF02D0F2EF9E0AA
S11319D0BF2EF02D80911F22811102C0C0921F22C0
S11319E080911F22813051F40E94640C0E947A027B
S11319F086E892E20E94B619A0921F2280911F22CB
S1131A00823089F40E94EC0390921F221092FD21EF
S1131A10E092AF21F092B021C7010E94701A0E9497
S1131A20941A10921E2280911F22833009F03FC025
S1131A302196CE01B3010E941D20892B21F4812F10
S1131A400E94B40C1F5F163029F40E94910C10E020
S1131A50C0E0D0E08091AC21882349F10E94071CAA
S1131A608093AD219093AE21FC010C9620E030E0F0
S1131A7041915191240F351FE817F907C9F724360E
S1131A80310579F480E591E20E94701A80E591E2D3
S1131A908093AF219093B021C0921E221092AC216A
S1131AA004C080E691E20E94701A0E94941A809108
S1131AB01F22843079F580911E228823C9F08091F9
S1131AC0AD219091AE210E94F1092EE332E242E66B
S1131AD052E26AE972E28091AD219091AE210E94B6
S1131AE0330410921E221092AC21B0921F2212C015
S1131AF084E690E00E949C0224E535E885E491E0C8
S1131B002150304080409040D9F700C000C0000010
S1131B10B0921F2280911F22893051F480911F229C
S1131B20893031F40E94771480911F228930D1F3D7
S1131B3080911F228A3009F04DCF80E292E20E9408
S1131B40AA16A0921F2246CF1F920F920FB60F9291
S1131B5011242F938F939F93AF93BF93EF93FF938E
S1131B60F89480910320811137C081E08093032091
S1131B702FEF8FE097E2215080409040E1F700C0C2
S1131B800000E0911F228E2F90E08A30910508F525
S1131B90FC01E454FF4F0C94312082E080931F2217
S1131BA01BC082E080931F2217C084E080931F2211
S1131BB013C082E080931F220FC082E080931F2213
S1131BC00BC082E080931F2207C08AE080931F220B
S1131BD003C082E080931F227894FF91EF91BF911C
S1131BE0AF919F918F912F910F900FBE0F901F90E7
S1131BF018951F920F920FB60F9211242F938F9363
S1131C009F93AF93BF93EF93FF93F8942FEF8FE0DD
S1131C1097E2215080409040E1F700C00000E0913D
S1131C201F228E2F90E08B30910528F5FC01EA539A
S1131C30FF4F0C94312082E080931F221FC082E06A
S1131C4080931F221BC082E080931F2217C082E072
S1131C5080931F2213C082E080931F220FC082E072
S1131C6080931F220BC082E080931F2207C082E072
S1131C7080931F2203C082E080931F227894FF91F7
S1131C80EF91BF91AF919F918F912F910F900FBEC4
S1131C900F901F901895CF92EF920F931F9321E00E
S1131CA046E061E480E093E20E940B1221E047E009
S1131CB061E48CEF92E20E940B1220E043E064E4C2
S1131CC088EF92E20E940B1220E044E064E484EF87
S1131CD092E20E940B1220E045E064E480EF92E27D
S1131CE00E940B1220E047E064E48CEE92E20E9432
S1131CF00B1220E046E064E488EE92E20E940B12AC
S1131D00C12C0F2EF3E4EF2EF02D00E010E020E0C4
S1131D1030E440E050E0BA018AE992E20E94D2182D
S1131D20CC24C39400E010E020E030E440E050E034
S1131D30BA0187EA92E20E94D2186894CC24C1F8CE
S1131D4000E010E020E030E440E050E0BA0184EB31
S1131D5092E20E94D2180F2EF3E0CF2EF02D00E075
S1131D6010E020E030E440E050E0BA0181EC92E27F
S1131D700E94D218C12C0F2EF4E4EF2EF02D00E0B7
S1131D8010E020E030E440E050E0BA018EEC92E252
S1131D900E94D218CC24C39400E010E020E030E488
S1131DA040E050E0BA018BED92E20E94D21886E83E
S1131DB092E20E94121941E060E08AE792E20E94F6
S1131DC09F0A42E060E08CE792E20E949F0A43E0AF
S1131DD060E08EE792E20E949F0A44E060E080E8BF
S1131DE092E20E949F0A45E060E082E892E20E944B
S1131DF09F0A46E060E084E892E20E949F0A40E085
S1131E0061E482E692E20E94A50141E061E486E693
S1131E1092E20E94A50142E061E48AE692E20E9415
S1131E20A50143E061E48EE692E20E94A50144E04C
S1131E3061E482E792E20E94A50145E061E486E75D
S1131E4092E20E94A50121E044E852E26AE972E2CA
S1131E508EE392E20E94950A22E044E852E267EAA5
S1131E6072E284E492E20E94950A21E042E852E29E
S1131E7064EB72E28AE492E20E94950A22E042E86C
S1131E8052E261EC72E280E592E20E94950A21E05E
S1131E9040E852E26EEC72E286E592E20E94950A14
S1131EA022E040E852E26BED72E28CE592E20E949D
S1131EB0950A4EE752E261E080E292E20E94471600
S1131EC04EE752E262E085E292E20E9447164EE754
S1131ED052E263E08AE292E20E9447164EE752E23F
S1131EE064E08FE292E20E9447164EE752E265E018
S1131EF084E392E20E9447164EE752E266E089E3E9
S1131F0092E20E9447164CE752E268E08AE192E2CC
S1131F100E94120C4CE752E267E086E192E20E94D2
S1131F20120C4CE752E261E08EEF91E20E94120C37
S1131F304CE752E262E082E092E20E94120C4CE72B
S1131F4052E263E086E092E20E94120C4CE752E215
S1131F5064E08AE092E20E94120C4CE752E265E0EF
S1131F608EE092E20E94120C4CE752E266E082E1BB
S1131F7092E20E94120C1F910F91EF90CF9008955E
S1131F80CF93DF93CEE3D2E22597CE010E9495163C
S1131F9082E2C032D807C1F7CAE7D2E22497CE0161
S1131FA00E94760282E2C236D807C1F7C8EED2E2B6
S1131FB02D97CE010E94111982E2CA39D807C1F7C0
S1131FC0DF91CF9108950895FC0180810895FC016B
S1131FD081810895FC0160830895FC016183089563
S1131FE0FC0162830895CF93DF93EC0188818134EF
S1131FF009F066C0E9818E2F90E08830910508F0E1
S11320005DC0FC01EF52FF4F0C9431208A8188237C
S113201021F081E08093020653C081E080930106A1
S11320204FC08A81882321F082E08093020648C051
S113203082E08093010644C08A81882321F084E0F1
S1132040809302063DC084E08093010639C08A81F2
S1132050882321F088E08093020632C088E08093D0
S113206001062EC08A81882321F080E18093020634
S113207027C080E18093010623C08A81882321F050
S113208080E2809302061CC080E28093010618C09F
S11320908A81882321F080E48093020611C080E4C1
S11320A0809301060DC08A81882321F080E8809303
S11320B0020606C080E88093010602C00E94E50281
S11320C08881823409F066C0E9818E2F90E08830DF
S11320D0910508F05DC0FC01E752FF4F0C943120DC
S11320E08A81882321F081E08093220653C081E015
S11320F0809321064FC08A81882321F082E0809357
S1132100220648C082E08093210644C08A81882345
S113211021F084E0809322063DC084E08093210670
S113212039C08A81882321F088E08093220632C056
S113213088E0809321062EC08A81882321F080E1E3
S11321408093220627C080E18093210623C08A81E0
S1132150882321F080E2809322061CC080E28093D1
S1132160210618C08A81882321F080E48093220606
S113217011C080E4809321060DC08A81882321F058
S113218080E88093220606C080E88093210602C07E
S11321900E94E5028881833409F066C0E9818E2FAC
S11321A090E08830910508F05DC0FC01EF51FF4FCD
S11321B00C9431208A81882321F081E080934206A7
S11321C053C081E0809341064FC08A81882321F067
S11321D082E08093420648C082E08093410644C076
S11321E08A81882321F084E0809342063DC084E004
S11321F08093410639C08A81882321F088E0809346
S1132200420632C088E0809341062EC08A8188232A
S113221021F080E18093420627C080E1809341064B
S113222023C08A81882321F080E2809342061CC067
S113223080E28093410618C08A81882321F080E4DB
S11322408093420611C080E4809341060DC08A81C8
S1132250882321F080E88093420606C080E88093BA
S1132260410602C00E94E5028881843409F066C0F8
S1132270E9818E2F90E08830910508F05DC0FC0163
S1132280E751FF4F0C9431208A81882321F081E0AB
S11322908093620653C081E0809361064FC08A81B7
S11322A0882321F082E08093620648C082E0809314
S11322B0610644C08A81882321F084E08093620609
S11322C03DC084E08093610639C08A81882321F06F
S11322D088E08093620632C088E0809361062EC055
S11322E08A81882321F080E18093620627C080E1FF
S11322F08093610623C08A81882321F080E2809341
S113230062061CC080E28093610618C08A8188231B
S113231021F080E48093620611C080E4809361061A
S11323200DC08A81882321F080E88093620606C06C
S113233080E88093610602C00E94E50288818534AA
S113234009F066C0E9818E2F90E08830910508F08D
S11323505DC0FC01EF50FF4F0C9431208A8188232B
S113236021F081E08093820653C081E0809381064E
S11323704FC08A81882321F082E08093820648C07E
S113238082E08093810644C08A81882321F084E01E
S1132390809382063DC084E08093810639C08A819F
S11323A0882321F088E08093820632C088E08093FD
S11323B081062EC08A81882321F080E180938206E1
S11323C027C080E18093810623C08A81882321F07D
S11323D080E2809382061CC080E28093810618C04C
S11323E08A81882321F080E48093820611C080E4EE
S11323F0809381060DC08A81882321F080E8809330
S1132400820606C080E88093810602C00E94E5022D
S1132410DF91CF910895FC016083418322830E9460
S1132420F30F08951F93CF93DF93EC01162F888148
S1132430813409F075C0E9818E2F90E088309105D0
S113244008F06CC0FC01E750FF4F0C943120662368
S113245029F081E0809305068B8362C081E080933C
S113246006061B825DC0662331F082E08093050678
S113247081E08B8355C082E0809306061B8250C0A6
S1132480662331F084E08093050681E08B8348C0A5
S113249084E0809306061B8243C0662331F088E003
S11324A08093050681E08B833BC088E08093060619
S11324B01B8236C0662331F080E18093050681E0FB
S11324C08B832EC080E1809306061B8229C066237D
S11324D031F080E28093050681E08B8321C080E2A5
S11324E0809306061B821CC0662331F080E480932F
S11324F0050681E08B8314C080E4809306061B826A
S11325000FC0662331F080E88093050681E08B8359
S113251007C080E8809306061B8202C00E94E50281
S11325208881823409F075C0E9818E2F90E088306B
S1132530910508F06CC0FC01EF5FFE4F0C94312054
S1132540112329F081E0809325068B8362C081E00A
S1132550809326061B825DC0112331F082E08093B4
S1132560250681E08B8355C082E0809326061B827A
S113257050C0112331F084E08093250681E08B83E1
S113258048C084E0809326061B8243C0112331F0A7
S113259088E08093250681E08B833BC088E08093AC
S11325A026061B8236C0112331F080E18093250674
S11325B081E08B832EC080E1809326061B8229C094
S11325C0112331F080E28093250681E08B8321C0C2
S11325D080E2809326061B821CC0112331F080E424
S11325E08093250681E08B8314C080E480932606C3
S11325F01B820FC0112331F080E88093250681E00F
S11326008B8307C080E8809326061B8202C00E9449
S1132610E5028881833409F075C0E9818E2F90E04A
S11326208830910508F06CC0FC01E75FFE4F0C9404
S11326303120112329F081E0809345068B8362C009
S113264081E0809346061B825DC0112331F082E055
S11326508093450681E08B8355C082E080934606D3
S11326601B8250C0112331F084E08093450681E041
S11326708B8348C084E0809346061B8243C01123A9
S113268031F088E08093450681E08B833BC088E08D
S1132690809346061B8236C0112331F080E180937B
S11326A0450681E08B832EC080E1809346061B8221
S11326B029C0112331F080E28093450681E08B83A9
S11326C021C080E2809346061B821CC0112331F096
S11326D080E48093450681E08B8314C080E480937A
S11326E046061B820FC0112331F080E88093450613
S11326F081E08B8307C080E8809346061B8202C07A
S11327000E94E5028881843409F075C0E9818E2F26
S113271090E08830910508F06CC0FC01EF5EFE4F3C
S11327200C943120112329F081E0809365068B837A
S113273062C081E0809366061B825DC0112331F084
S113274082E08093650681E08B8355C082E08093AC
S113275066061B8250C0112331F084E08093650625
S113276081E08B8348C084E0809366061B8243C06B
S1132770112331F088E08093650681E08B833BC0B0
S113278088E0809366061B8236C0112331F080E115
S11327908093650681E08B832EC080E1809366067A
S11327A01B8229C0112331F080E28093650681E009
S11327B08B8321C080E2809366061B821CC0112398
S11327C031F080E48093650681E08B8314C080E45B
S11327D0809366061B820FC0112331F080E880933A
S11327E0650681E08B8307C080E8809366061B82C0
S11327F002C00E94E5028881853409F074C0E98131
S11328008E2F90E08830910508F06BC0FC01E75EE4
S1132810FE4F0C943120112329F081E0809385062A
S11328208B8361C081E0809386061B825CC0112388
S113283031F082E08093850681E08B8354C082E08E
S1132840809386061B824FC0112331F084E080936D
S1132850850681E08B8347C084E0809386061B82D3
S113286042C0112331F088E08093850681E08B8398
S11328703AC088E0809386061B8235C0112331F06C
S113288080E18093850681E08B832DC080E1809375
S113289086061B8228C0112331F080E280938506CE
S11328A081E08B8320C080E2809386061B821BC05C
S11328B0112331F080E48093850681E08B8313C07B
S11328C080E4809386061B820EC0112331F080E8D9
S11328D08093850681E08B8306C080E8809386061A
S11328E002C00E94E502DF91CF911F910895CF931A
S11328F0DF93CDB7DEB76E97CDBFDEBF81E08983AE
S113290081E08C871A821B820E94B50220910420E8
S11329103091052080EF90E0B9010E941D20CB0189
S1132920092E000CAA0BBB0BBC01CD010E94371D64
S1132930DC01CB018D879E87AF87B88B198A1A8AF1
S11329401B8A1C8A1D8A1E8A1F8A188E198E1A8E4B
S11329501B8E1C8E85E090E08D8F9E8F1C821D82C5
S11329601E821F8220911F2290916E2181E02917DF
S113297009F080E0882309F419C11A821B821886A1
S113298019868885998506970CF0B5C01C821D822E
S11329901E821F821A861B868A859B8505973CF5B5
S11329A088859985880F991F880F991F8E599D4D89
S11329B00E94C501CC01A0E0B0E0BC01CD010E94A1
S11329C0351DDC01CB019C01AD016C817D818E81C3
S11329D09F810E941C1CDC01CB018C839D83AE83F0
S11329E0BF838A859B8501968A879B87D5CF20E004
S11329F030E040EA50E46C817D818E819F810E94A9
S1132A008D1CDC01CB01BC01CD010E94A91EDC019F
S1132A10CB01BC01CD010E94FF1CDC01CB01898BE1
S1132A209A8B89899A890F978D8B9E8B8D899E8924
S1132A30092E000CAA0BBB0BBC01CD010E94371D53
S1132A40DC01CB012D853E854F855889BC01CD0124
S1132A500E948D1CDC01CB018F8B988FA98FBA8FBC
S1132A608F89988DA98DBA8DBC01CD010E94A91EB4
S1132A70DC01CB01BC01CD010E94FF1CDC01CB01B8
S1132A808B8B9C8B88859985880F991F8F509E4DC1
S1132A902B893C89FC012083318388859985880FA3
S1132AA0991F8F509E4DFC018081918121E00497F4
S1132AB00CF020E0222349F088859985880F991F1E
S1132AC08F509E4DFC011082118288859985880F54
S1132AD0991F8F509E4DFC01808191819C018A81B8
S1132AE09B81820F931F8A839B8388859985019696
S1132AF08887998746CF8A819B810E94C40210925D
S1132B00032080910420909105209C0141E08A815A
S1132B109B812817390708F440E0442321F181E020
S1132B208C8799818C85981709F41CCF8AE192E2ED
S1132B300E94190C86E192E20E94CB0B0E94221A99
S1132B4086E892E20E94361986E892E20E94D11940
S1132B5061E086E892E20E94FB198AE192E20E9417
S1132B60610C8983FFCE1C8699818C85981709F4A2
S1132B70F9CE8AE192E20E94CB0B86E192E20E94B6
S1132B80190C0E94221A86E892E20E94361986E8FD
S1132B9092E20E94D11961E086E892E20E94FB1958
S1132BA08AE192E20E94610C8983DCCE20911F228B
S1132BB09091702181E0291709F480E08823D1F0F5
S1132BC080910420909105209C0141E08A819B81A1
S1132BD02817390708F440E0442329F080916D2137
S1132BE080931F2207C081E08093FD2180916F2193
S1132BF080931F2200006E96CDBFDEBFDF91CF9180
S1132C000895CF93DF93EC018C81813029F460E83F
S1132C108A819B810E94AE0A8C81823029F460E40F
S1132C208A819B810E94AE0A8C81833029F460E200
S1132C308A819B810E94AE0A8C81843029F460E1F0
S1132C408A819B810E94AE0A8C81853029F468E0D8
S1132C508A819B810E94AE0A8C81863029F464E0CB
S1132C608A819B810E94AE0A8C81873029F462E0BC
S1132C708A819B810E94AE0A8C81883029F461E0AC
S1132C808A819B810E94AE0ADF91CF910895FC0155
S1132C9060834283538364830E9401160895CF9313
S1132CA0DF93EC018C81813029F460E88A819B8177
S1132CB00E94A90A8C81823029F460E48A819B8174
S1132CC00E94A90A8C81833029F460E28A819B8165
S1132CD00E94A90A8C81843029F460E18A819B8155
S1132CE00E94A90A8C81853029F468E08A819B813D
S1132CF00E94A90A8C81863029F464E08A819B8130
S1132D000E94A90A8C81873029F462E08A819B8120
S1132D100E94A90A8C81883029F461E08A819B8110
S1132D200E94A90ADF91CF91089508950F931F93EC
S1132D30CF93DF93EC018C01025E1F4FCE010E9402
S1132D4001162596C017D107C9F7DF91CF911F91BE
S1132D500F9108958F929F92AF92BF92CF92DF927C
S1132D60EF92FF920F931F93CF93DF938C010F2E5B
S1132D70FEEFAF2EF1E2BF2EF02D6501C0E0D0E0F2
S1132D800F2EF6E1EF2EF2E2FF2EF02DFE01EE0FF4
S1132D90FF1FEF50FE4D80819181181619060CF02B
S1132DA054C0802E912EC8010E944F16C6010E9465
S1132DB0190C0E94221A86E892E20E94361986E8CB
S1132DC092E20E94D11961E086E892E20E94FB1926
S1132DD0FE01EE0FFF1FEF50FE4D8081918118160A
S1132DE01906B4F480E090E0FE01EE0FFF1FEF50EF
S1132DF0FE4D2FEF33E341E2215030404040E1F7F4
S1132E0000C00000019620813181821793078CF362
S1132E10882D992D0E9401164501C4010E94CB0BF7
S1132E2084E0880E911C8E149F04B9F70E94221A24
S1132E3086E892E20E94361986E892E20E94D1194D
S1132E4061E086E892E20E94FB1921960B5F1F4F16
S1132E5024E0C20ED11CC630D10509F097CFDF9112
S1132E60CF911F910F91FF90EF90DF90CF90BF9083
S1132E70AF909F908F900895CF92DF92EF92FF9240
S1132E80CF93DF93EC016A017B012DEC3CEC47EC22
S1132E9052E4C701B6010E94881C88232CF4CC821A
S1132EA0DD82EE82FF8208C080E090E0A8ECB2E40C
S1132EB08C839D83AE83BF83CE010E94E40F833451
S1132EC021F0843409F456C07FC0CE010E94E70F7C
S1132ED0811110C020E030E040EA50E46C817D8133
S1132EE08E819F810E94EC1D0E94061D609328081C
S1132EF070932908CE010E94E70F813081F420E00D
S1132F0030E040EA50E46C817D818E819F810E9493
S1132F10EC1D0E94061D60932A0870932B08CE01B5
S1132F200E94E70F823081F420E030E040EA50E470
S1132F306C817D818E819F810E94EC1D0E94061D03
S1132F4060932C0870932D08CE010E94E70F833004
S1132F50D9F520E030E040EA50E46C817D818E8137
S1132F609F810E94EC1D0E94061D60932E087093A1
S1132F702F082AC0CE010E94E70F811110C020E063
S1132F8030E040EA50E46C817D818E819F810E9413
S1132F90EC1D0E94061D6093280970932909CE0137
S1132FA00E94E70F813081F420E030E040EA50E4F1
S1132FB06C817D818E819F810E94EC1D0E94061D83
S1132FC060932A0970932B09DF91CF91FF90EF90C2
S1132FD0DF90CF900895FC0164817581868197818B
S1132FE008951F93CF93DF93EC01162F0E94E40FF3
S1132FF0833421F0843409F470C0ADC0CE010E9442
S1133000E70F81111AC0112361F0E0E0F8E081813B
S113301080618183CE010E94E70F813009F094C062
S113302013C0E0E0F8E081818F7E8183CE010E94AD
S1133030E70F813009F081C012C0CE010E94E70F72
S11330408130C1F4112359F0E0E0F8E0818180621D
S11330508183CE010E94E70F823059F512C0E0E06F
S1133060F8E081818F7D8183CE010E94E70F823059
S113307001F513C0CE010E94E70F8230D1F4112371
S113308061F0E0E0F8E0818180648183CE010E94F8
S1133090E70F833009F05FC014C0E0E0F8E08181FD
S11330A08F7B8183CE010E94E70F833009F053C0E8
S11330B00EC0CE010E94E70F833009F04CC01123EB
S11330C031F0E0E0F8E081818068818344C0E0E091
S11330D0F8E081818F7781833EC0CE010E94E70FA3
S11330E0811118C0112359F0E0E0F9E08181806179
S11330F08183CE010E94E70F813069F512C0E0E0C0
S1133100F9E081818F7E8183CE010E94E70F8130B7
S113311011F50DC0CE010E94E70F8130E1F41123B7
S113312031F0E0E0F9E081818062818314C0E0E065
S1133130F9E081818F7D81830EC0CE010E94E70F6B
S1133140823009F0B6CFA9CFCE010E94E70F8230BA
S113315009F0AFCF96CFDF91CF911F9108950E94D0
S1133160E40F833419F0843479F0089585E0809372
S11331704906E0E0F8E087E0808383E0818384EF20
S113318091E086A397A3089585E080936906E0E023
S1133190F9E087E0808383E0818384EF91E086A374
S11331A097A308954F925F926F927F928F929F920E
S11331B0AF92BF92CF92EF920F931F93CF93DF936F
S11331C0EC012A013B01480159010E94E30F6E2DD5
S11331D0CE010E94EA0F6C2DCE010E94ED0FB301C7
S11331E0A201CE010E943C1788869986AA86BB86D6
S11331F060E0CE010E94F00FCE010E94F30FCE01D9
S11332000E94AF18DF91CF911F910F91EF90CF9053
S1133210BF90AF909F908F907F906F905F904F90F2
S113322008950895CF93DF93EC010E94E30FCE013C
S113323004960E94E30FCE0108960E94E30FCE018C
S11332400C960E94E30FCE0140960E94E30F88E0A3
S113325093E280930623909307238CE090E280937B
S1133260042390930523DF91CF910895809108233F
S113327080930C208091092380930D2080910A2350
S113328080930E2080910B2380930F2080910C2338
S11332908093102080910D238093112080910E2320
S11332A08093122080910F23809313200895FF921E
S11332B00F931F93CF93DF931F92CDB7DEB7F62EF4
S11332C0042F000F000F000F085010E0612F8F2D06
S11332D00E94EE0289838981813049F4612F600F55
S11332E080910623909107230E94FA0208C0612F5F
S11332F0600F80910623909107230E9421031F5F92
S1133300183021F70F90DF91CF911F910F91FF900B
S11333100895FF920F931F93CF93DF9300D0CDB7FF
S1133320DEB78C0169837A83CE0101960E94A60AD6
S1133330F82ECE0101960E94A30A4F2D682FC801D2
S11333400E9457190F900F90DF91CF911F910F9109
S1133350FF90089560E088EE92E20E9412120895B0
S113336061E088EE92E20E941212089560E08CEE11
S113337092E20E94121260E084EF92E20E94121222
S113338060E080EF92E20E9412128FE599E00197CB
S1133390F1F700C0000061E080EF92E20E94121297
S11333A0089580910423909105230E945003089569
S11333B0611105C088EF92E20E94121205C061E01B
S11333C088EF92E20E9412128FE193E00197F1F7E5
S11333D000C0000061E084EF92E20E9412128FE5C7
S11333E099E00197F1F700C0000060E084EF92E2F9
S11333F00E94121208951F93CF93DF93EC01162FAE
S11334000E94B01961E08CEE92E20E9412128FE5E4
S113341099E00197F1F700C0000060E08CEE92E2C1
S11334200E941212112321F0CE010E94AA1903C096
S1133430CE010E94B019CE010E943619DF91CF91BE
S11334401F910895CF93DF93C0E0D0E0FE01EE0F0B
S1133450FF1FE658FD4D6081718186E892E20E946B
S113346089192196C630D10589F7DF91CF91089546
S11334700F931F93CF93DF93CDB7DEB72A97CDBFBA
S1133480DEBF9F938F9384E791E29F938F938E0186
S11334900F5F1F4F1F930F930E947C200F900F907C
S11334A00F900F900F900F90C8012A96CDBFDEBFEA
S11334B0DF91CF911F910F910895E0E4F6E090E43D
S11334C0928380E8818388E1878BE0EBF8E097833F
S11334D09CE09683848383E0858380E383830895DB
S11334E0FC0101900020E9F731973E2F381B61F071
S11334F0DC0120E0E0EBF8E0918195FFFDCF8D91B8
S113350080832F5F3213F8CFE0EBF8E0818185FFF1
S1133510FDCFE0EBF8E0818185FFFDCF08951092A7
S11335204F2310924E2308950E948F1A1092F02177
S1133530089590E0FC01F097EA30F105E0F4EF5DC6
S1133540FE4F0C94312081E090E0089583E090E0F8
S1133550089584E090E0089585E090E0089586E081
S113356090E0089587E090E0089588E090E0089561
S113357089E090E00895089580E090E0089582E065
S113358090E008956F927F928F929F92AF92BF9234
S1133590CF92DF92EF92FF920F931F93CF93DF931B
S11335A0662E712C16141704F4F5C82ED92E00E0DB
S11335B010E0C0E0D0E0F60181916F010E94991AF9
S11335C07C01B801012E000C880B990B0E94371D59
S11335D09B01AC0160E070E080E291E40E94591E1E
S11335E04B015C01B701FF0C880B990B0E94371D3E
S11335F0A50194010E94EC1D4B015C01BE01DD0F8D
S1133600880B990B0E94371D9B01AC01C501B401C5
S11336100E941C1C0E94FF1CEB010F5F1F4F06152C
S1133620170549F602C0C0E0D0E0CE01DF91CF918A
S11336301F910F91FF90EF90DF90CF90BF90AF90CC
S11336409F908F907F906F9008951F920F920FB666
S11336500F921124EF92FF920F931F932F933F9396
S11336604F935F936F937F938F939F93AF93BF9386
S1133670CF93DF93EF93FF938091B008833241F0AF
S11336808B3261F48091B2218F5F8093B22112C09A
S11336908091B1218F5F8093B1210CC08A3009F4ED
S11336A089C08D3009F486C090914E239C3308F470
S11336B06FC080C08091B221843009F091C08091A4
S11336C0B121843009F08CC07CC08091B72183374C
S11336D009F47DC08091B321803309F054C08091F6
S11336E0B4218A3309F04FC0C0E0D0E00F2EF3E0DC
S11336F0EF2EF0E2FF2EF02DFE01ED54FE4D808101
S11337008B33B9F58E0105501109F801ED54FE4DC6
S113371080810E94991A80939E2190939F21CE01CB
S11337200197E0E0F0E2DC01AD54BE4D2C91219311
S11337300197EE16FF06B9F7F801ED54FE4D8081AE
S11337400E94991A815080931023082F10E063E09F
S113375080E090E20E94C21A9801220F331FF901FF
S1133760E056FE4D80839183F901EF50FE4D808336
S113377091832196C833D10509F0BECF81E08093AF
S1133780AC210E94941A1092B2211092B12128C047
S1133790E0914E23F0E0EF5EFC4D8083E0914E23F8
S11337A0F0E0ED54FE4D808380914E238F5F809333
S11337B04E2380CF87E791E20E94701A0E94941AE8
S11337C079CF8091B321873609F084CF7ECF809161
S11337D0AF219091B0210E94701A0E94941A7ACF5E
S11337E0FF91EF91DF91CF91BF91AF919F918F9115
S11337F07F916F915F914F913F912F911F910F9105
S1133800FF90EF900F900FBE0F901F901895A0E5BA
S1133810B3E280E090E0FC01EE0FFF1FEF50FE4D9D
S1133820208131812D933D9301968630910599F73E
S113383080E593E208955058BB27AA270E94331CC1
S11338400C94AD1D0E949F1D38F00E94A61D20F00F
S113385039F49F3F19F426F40C949C1D0EF4E09562
S1133860E7FB0C94961DE92F0E94BE1D58F3BA176E
S1133870620773078407950720F079F4A6F50C9482
S1133880E01D0EF4E0950B2EBA2FA02D0B01B9010B
S113389090010C01CA01A0011124FF27591B99F0C2
S11338A0593F50F4503E68F11A16F040A22F232FCE
S11338B0342F4427585FF3CF469537952795A7951E
S11338C0F0405395C9F77EF41F16BA0B620B730BC5
S11338D0840BBAF09150A1F0FF0FBB1F661F771F36
S11338E0881FC2F70EC0BA0F621F731F841F48F4EB
S11338F0879577956795B795F7959E3F08F0B0CF74
S11339009395880F08F09927EE0F9795879508955A
S11339100E94721D08F481E008950E94A11C0C9479
S1133920AD1D0E94A61D58F00E949F1D40F029F471
S11339305F3F29F00C94961D51110C94E11D0C94D9
S11339409C1D0E94BE1D68F39923B1F3552391F386
S1133950951B550BBB27AA2762177307840738F0FA
S11339609F5F5F4F220F331F441FAA1FA9F335D057
S11339700E2E3AF0E0E832D091505040E695001C0B
S1133980CAF72BD0FE2F29D0660F771F881FBB1FC5
S1133990261737074807AB07B0E809F0BB0B802DA3
S11339A0BF01FF2793585F4F3AF09E3F510578F0CF
S11339B00C94961D0C94E11D5F3FE4F3983ED4F300
S11339C0869577956795B795F7959F5FC9F7880FA3
S11339D0911D9695879597F90895E1E0660F771FF5
S11339E0881FBB1F621773078407BA0720F0621B86
S11339F0730B840BBA0BEE1F88F7E09508950E94B1
S1133A00061D6894B1110C94E11D08950E94C61D11
S1133A1088F09F5798F0B92F9927B751B0F0E1F08B
S1133A20660F771F881F991F1AF0BA95C9F714C03B
S1133A30B13091F00E94E01DB1E008950C94E01DB6
S1133A40672F782F8827B85F39F0B93FCCF3869574
S1133A5077956795B395D9F73EF4909580957095D1
S1133A6061957F4F8F4F9F4F0895E89409C097FB4E
S1133A703EF490958095709561957F4F8F4F9F4F41
S1133A809923A9F0F92F96E9BB279395F695879585
S1133A9077956795B795F111F8CFFAF4BB0F11F448
S1133AA060FF1BC06F5F7F4F8F4F9F4F16C08823EF
S1133AB011F096E911C0772321F09EE8872F762F25
S1133AC005C0662371F096E8862F70E060E02AF066
S1133AD09A95660F771F881FDAF7880F9695879552
S1133AE097F90895990F0008550FAA0BE0E8FEEF27
S1133AF016161706E807F907C0F012161306E407AE
S1133B00F50798F0621B730B840B950B39F40A26A6
S1133B1061F0232B242B252B21F408950A2609F484
S1133B20A140A6958FEF811D811D089597F99F6788
S1133B3080E870E060E008959FEF80EC0895002431
S1133B400A941616170618060906089500240A94FE
S1133B5012161306140605060895092E0394000C84
S1133B6011F4882352F0BB0F40F4BF2B11F460FF13
S1133B7004C06F5F7F4F8F4F9F4F089557FD90583C
S1133B80440F551F59F05F3F71F04795880F97FB1D
S1133B90991F61F09F3F79F08795089512161306D7
S1133BA01406551FF2CF4695F1DF08C01616170606
S1133BB01806991FF1CF869571056105089408953B
S1133BC0E894BB2766277727CB0197F908950E94CD
S1133BD0721D08F48FEF08950E94FF1D0C94AD1D13
S1133BE00E949F1D38F00E94A61D20F0952311F01D
S1133BF00C94961D0C949C1D11240C94E11D0E94A0
S1133C00BE1D70F3959FC1F3950F50E0551F629F41
S1133C10F001729FBB27F00DB11D639FAA27F00D21
S1133C20B11DAA1F649F6627B00DA11D661F829F48
S1133C302227B00DA11D621F739FB00DA11D621F2D
S1133C40839FA00D611D221F749F3327A00D611D4A
S1133C50231F849F600D211D822F762F6A2F11242C
S1133C609F5750409AF0F1F088234AF0EE0FFF1F5F
S1133C70BB1F661F771F881F91505040A9F79E3FB6
S1133C80510580F00C94961D0C94E11D5F3FE4F304
S1133C90983ED4F3869577956795B795F795E7950C
S1133CA09F5FC1F7FE2B880F911D9695879597F915
S1133CB00895FA01EE0FFF1F309621053105A1F199
S1133CC06115710561F48038BFE39B0749F168947D
S1133CD09038810561F08038BFEF9B0741F099234C
S1133CE04AF5FF3FE1053105210519F1E8940894EF
S1133CF0E795D901AA2329F4AB2FBE2FF85FD0F39F
S1133D0010C0FF5F70F4A695E0F7F73950F019F092
S1133D10FF3A38F49F779F930DD00F9007FC90588B
S1133D20089546F00C949C1D60E070E080E89FE3E9
S1133D3008954FE79F775F934F933F932F930E948C
S1133D40A11F2F913F914F915F910E94EC1D0C9404
S1133D50D51E0E94C61DE8F09E37E8F09639B8F4E7
S1133D609E3848F4672F782F8827985FF9CF869577
S1133D707795679593959539D0F3B62FB1706B0FFE
S1133D80711D811D20F487957795679593950C9403
S1133D90071F0C94221F0C94E11D29F416F00C94B7
S1133DA0961D0C94E01D0C949C1D0E94C61DA8F346
S1133DB09638A0F707F80F92E8942BE33AEA48EB19
S1133DC05FE70E94021E0F920F920F924DB75EB7EB
S1133DD00F920E94E91FE6E5F2E00E94301F4F9126
S1133DE05F91EF91FF91E595EE1FFF1F49F0FE579C
S1133DF0E0684427EE0F441FFA95E1F74195550B0F
S1133E000E94631F0F9007FE0C94571F0895882388
S1133E1071F4772321F09850872B762F07C06623FF
S1133E2011F499270DC09051862B70E060E02AF0C0
S1133E309A95660F771F881FDAF7880F96958795EE
S1133E4097F908959F3F31F0915020F48795779525
S1133E506795B795880F911D9695879597F908955D
S1133E60DF93CF931F930F93FF92EF92DF927B0127
S1133E708C01689406C0DA2EEF010E94FF1DFE013A
S1133E80E894A5912591359145915591A6F3EF01BB
S1133E900E94331CFE019701A801DA9469F7DF90B0
S1133EA0EF90FF900F911F91CF91DF9108959B01A7
S1133EB0AC0160E070E080E89FE30C948D1C0C94EE
S1133EC0961D0C94221F0E94C61DD8F39923C9F392
S1133ED0940F511DA3F39150504094F059F088234E
S1133EE032F0660F771F881F91505040C1F79E3FF4
S1133EF051052CF7880F911D9695879597F908958C
S1133F005F3FACF0983E9CF0BB278695779567950C
S1133F10B79508F4B1609395C1F7BB0F58F711F446
S1133F2060FFE8CF6F5F7F4F8F4F9F4FE3CF0C94BD
S1133F30E11D16F00C94221F0C949C1D68940C94A3
S1133F40961D0E94C61DA8F39923C1F3AEF3DF9317
S1133F50CF931F930F93FF92C92FDD2788232AF055
S1133F602197660F771F881FDAF720E030E040E8DA
S1133F705FEB9FE3883920F0803E38F021968F77FD
S1133F800E941C1CEEE7F2E004C00E941C1CEBEA39
S1133F90F2E00E94301F8B01BE01EC01FB2E6F5733
S1133FA071097595771F880B990B0E94371D28E1BD
S1133FB032E741E35FE30E94FF1DAF2D9801AE019C
S1133FC0FF900F911F91CF91DF910E94331C0C94AD
S1133FD0AD1DFA01DC01AA0FBB1F9B01AC01BF5749
S1133FE028F4222733274427507820C0B75190F46F
S1133FF0AB2F0024469537952795011CA395D2F342
S1134000002071F0220F331F441FB395DAF30ED052
S11340100C941B1C61307105A0E88A07B94630F482
S11340209B01AC016627772788279078309621F08A
S11340302083318342835383089597FB072E16F41C
S1134040009407D077FD09D00E94682007FC05D0B2
S11340503EF4909581959F4F0895709561957F4F9B
S11340600895EE0FFF1F0590F491E02D09940F932E
S1134070083090F0982F872F762F652F542F432FD9
S1134080322F22270850F4CF220F331F441F551F0D
S1134090661F771F881F991F0A95B2F70F9108951D
S11340A00024A7FD00942A0F301D401D501D601DE3
S11340B0701D801D901D08950024A7FD00942A17EB
S11340C0300540055005600570058005900508958C
S11340D0AA1BBB1B51E107C0AA1FBB1FA617B7072A
S11340E010F0A61BB70B881F991F5A95A9F7809546
S11340F09095BC01CD010895AEE0B0E0E2E8F0E2B5
S11341000C943D230D891E8986E08C8309831A83D0
S11341108FEF9FE78D839E83AE01475E5F4F6F896C
S1134120788DCE0101960E949E20EF81F885E00FE4
S1134130F11F10822E96E4E00C945623ABE0B0E01D
S1134140E4EAF0E20C942F236C017B018A01FC0168
S113415016821782838181FFCCC1CE0101963C0176
S1134160F6019381F70193FD859193FF81917F017E
S1134170882309F4BAC1853239F493FD859193FFFC
S113418081917F01853229F4B60190E00E94952245
S1134190E7CF912C212C312CFFE1F315D8F08B3291
S11341A079F038F4803279F08332A1F4232D206140
S11341B01DC08D3261F0803369F4232D216016C057
S11341C0832D8260382EE32DE4603E2E2AC0F32D29
S11341D0F8601DC037FC2DC020ED280F2A3040F0B8
S11341E08E32B9F436FC81C1232D2064322E19C0DD
S11341F036FE06C08AE0989E200D1124922E11C02E
S1134200EAE02E9E200D1124222EF32DF0623F2E83
S113421008C08C3621F4832D8068382E02C088367D
S113422041F4F70193FD859193FF81917F01811101
S1134230B3CF982F9F7D9554933028F40C5F1F4F74
S11342409FE399830DC0833631F0833771F0833552
S113425009F059C021C0F801808189830E5F1F4F86
S113426088248394912C530113C02801F2E04F0E4B
S1134270511CF801A080B18036FE03C0692D70E0A6
S113428002C06FEF7FEFC5010E948A224C018201B8
S1134290F32DFF773F2E16C0280122E0420E511C59
S11342A0F801A080B18036FE03C0692D70E002C021
S11342B06FEF7FEFC5010E947F224C01F32DF06860
S11342C03F2E820133FC1BC0822D90E08816990694
S11342D0B0F4B60180E290E00E9495222A94F4CFD3
S11342E0F50137FC859137FE81915F01B60190E0BD
S11342F00E94952221102A9421E0821A91088114A7
S1134300910471F7E8C0843611F0893641F5F8015B
S113431037FE07C060817181828193810C5F1F4FDA
S113432008C060817181072E000C880B990B0E5F09
S11343301F4FF32DFF763F2E97FF09C09095809570
S1134340709561957F4F8F4F9F4FF0683F2E2AE005
S113435030E0A3010E94D122882E861845C08537FB
S113436031F4232D2F7EB22E2AE030E025C0932D88
S1134370997FB92E8F36C1F018F4883579F0B5C01D
S1134380803719F0883721F0B0C0E92FE061BE2EE4
S1134390B4FE0DC0FB2DF460BF2E09C034FE0AC06C
S11343A0292F2660B22E06C028E030E005C020E1A7
S11343B030E002C020E132E0F801B7FE07C06081BE
S11343C07181828193810C5F1F4F06C0608171816E
S11343D080E090E00E5F1F4FA3010E94D122882E3F
S11343E08618FB2DFF773F2E36FE0DC0232D2E7F22
S11343F0A22E891458F434FE0BC032FC09C0832D5C
S11344008E7EA82E05C0B82CA32C03C0B82C01C0E6
S1134410B92CA4FE0FC0FE01E80DF11D808180338C
S113442021F49A2D997EA92E09C0A2FE06C0B39448
S1134430B39404C08A2D867809F0B394A3FC11C008
S1134440A0FE06C0B21488F4280C922C9B180EC04F
S1134450B21460F4B60180E290E00E949522B39415
S1134460F7CFB21418F42B1802C0982C212CA4FEF8
S113447010C0B60180E390E00E949522A2FE17C00E
S1134480A1FC03C088E790E002C088E590E0B60193
S11344900CC08A2D867859F0A1FE02C08BE201C0BF
S11344A080E2A7FC8DE2B60190E00E949522891477
S11344B038F4B60180E390E00E9495229A94F7CFF5
S11344C08A94F301E80DF11D8081B60190E00E9409
S11344D095228110F5CF222009F442CEB60180E264
S11344E090E00E9495222A94F6CFF6018681978166
S11344F002C08FEF9FEF2B96E2E10C944823FC015E
S11345000590615070400110D8F7809590958E0FFA
S11345109F1F0895FC016150704001900110D8F76D
S1134520809590958E0F9F1F08950F931F93CF939F
S1134530DF93FB01238121FD03C08FEF9FEF2CC08C
S113454022FF16C0468157812481358142175307C3
S113455044F4A081B1819D012F5F3F4F20833183BB
S11345608C93268137812F5F3F4F2683378314C076
S11345708B01EC01FB010084F185E02D0995892B69
S1134580E1F6D80116968D919C911797019616968F
S11345908D939C931797CE01DF91CF911F910F912B
S11345A00895FA01AA27283051F1203181F1E894C5
S11345B06F936E7F6E5F7F4F8F4F9F4FAF4FB1E012
S11345C03ED0B4E03CD0670F781F891F9A1FA11D0D
S11345D0680F791F8A1F911DA11D6A0F711D811D0E
S11345E0911DA11D20D009F468943F912AE0269FD3
S11345F011243019305D3193DEF6CF010895462F32
S11346004770405D4193B3E00FD0C9F7F6CF462F12
S11346104F70405D4A3318F0495D31FD405241937B
S113462002D0A9F7EACFB4E0A69597958795779538
S11346306795BA95C9F700976105710508959B01BF
S1134640AC010A2E06945795479537952795BA9548
S1134650C9F7620F731F841F951FA01D08952F9221
S11346603F924F925F926F927F928F929F92AF92FE
S1134670BF92CF92DF92EF92FF920F931F93CF934B
S1134680DF93CDB7DEB7CA1BDB0BCDBFDEBF09940A
S11346902A88398848885F846E847D848C849B84CE
S11346A0AA84B984C884DF80EE80FD800C811B81DC
S11346B0AA81B981CE0FD11DCDBFDEBFED01089512
S11346C011E0CEE6D1E004C0FE010E943120219623
S10D46D0CF36D107C9F7F894FFCFE5
S11346DA303030016400010101010101983A0000FF
S11346EA0000000053797374656D20666165687211
S11346FA7400686F6368005748532D5372696E6774
S113470A20303036005374617274206472756563A4
S113471A6B656E006D61782E204675656C6C6D65EF
S113472A6E676520766F6E006D6C6C2062656163DE
S113473A6874656E0052657A657074757220696E64
S113474A0053756D6D6520202020206D6C6C00531C
S113475A7461727420777572646500676564727532
S113476A65636B740053746F7020777572646500A7
S113477A4572722050696E204E756D004572722022
S113478A506F7274204275636873740050574D20D9
S113479A7775726465006465616B697476696572BC
S11347AA740044757479204379636C65203D004133
S11347BA444320576572740041627765696368757A
S11347CA6E670048616C742077757264650065725F
S11347DA7265696368742E0052657A65707420770D
S11347EA697264006175736765676562656E005016
S11347FA756D7065206E6F200020616E6765737039
S113480A726F6368656E005541525420537472691D
S113481A6E67002323232349444C452B2B2B2B005F
S113482A23232323446174615F4F4B2B2B2B2B00CF
S113483A4461746120496E76616C6964000A0904F2
S113484A0225752E257500456E6465205A656963CF
S113485A68656E206F646572204F766572666C6F48
S10D486A772065726B616E6E7400B6
S9030000FC
